{
  "abi": [
    {
      "inputs": [
        {
          "internalType": "string",
          "name": "_name",
          "type": "string"
        },
        {
          "internalType": "uint256",
          "name": "_maxCap",
          "type": "uint256"
        },
        {
          "internalType": "uint256",
          "name": "_saleStart",
          "type": "uint256"
        },
        {
          "internalType": "uint256",
          "name": "_saleEnd",
          "type": "uint256"
        },
        {
          "internalType": "uint256",
          "name": "_noOfTiers",
          "type": "uint256"
        },
        {
          "internalType": "address",
          "name": "_projectOwner",
          "type": "address"
        },
        {
          "internalType": "address",
          "name": "_tokenAddress",
          "type": "address"
        },
        {
          "internalType": "uint256",
          "name": "_totalUsers",
          "type": "uint256"
        },
        {
          "internalType": "uint8",
          "name": "_phaseNo",
          "type": "uint8"
        }
      ],
      "stateMutability": "nonpayable",
      "type": "constructor"
    },
    {
      "anonymous": false,
      "inputs": [
        {
          "indexed": true,
          "internalType": "address",
          "name": "previousOwner",
          "type": "address"
        },
        {
          "indexed": true,
          "internalType": "address",
          "name": "newOwner",
          "type": "address"
        }
      ],
      "name": "OwnershipTransferred",
      "type": "event"
    },
    {
      "anonymous": false,
      "inputs": [
        {
          "indexed": false,
          "internalType": "address",
          "name": "account",
          "type": "address"
        }
      ],
      "name": "Paused",
      "type": "event"
    },
    {
      "anonymous": false,
      "inputs": [
        {
          "indexed": false,
          "internalType": "address",
          "name": "account",
          "type": "address"
        }
      ],
      "name": "Unpaused",
      "type": "event"
    },
    {
      "anonymous": false,
      "inputs": [
        {
          "indexed": true,
          "internalType": "address",
          "name": "user",
          "type": "address"
        },
        {
          "indexed": false,
          "internalType": "uint256",
          "name": "amount",
          "type": "uint256"
        },
        {
          "indexed": true,
          "internalType": "uint8",
          "name": "phase",
          "type": "uint8"
        }
      ],
      "name": "UserInvestment",
      "type": "event"
    },
    {
      "inputs": [],
      "name": "ERC20Interface",
      "outputs": [
        {
          "internalType": "contract IERC20",
          "name": "",
          "type": "address"
        }
      ],
      "stateMutability": "view",
      "type": "function"
    },
    {
      "inputs": [
        {
          "internalType": "uint256",
          "name": "amount",
          "type": "uint256"
        }
      ],
      "name": "buyTokens",
      "outputs": [
        {
          "internalType": "bool",
          "name": "",
          "type": "bool"
        }
      ],
      "stateMutability": "nonpayable",
      "type": "function"
    },
    {
      "inputs": [],
      "name": "maxCap",
      "outputs": [
        {
          "internalType": "uint256",
          "name": "",
          "type": "uint256"
        }
      ],
      "stateMutability": "view",
      "type": "function"
    },
    {
      "inputs": [],
      "name": "name",
      "outputs": [
        {
          "internalType": "string",
          "name": "",
          "type": "string"
        }
      ],
      "stateMutability": "view",
      "type": "function"
    },
    {
      "inputs": [],
      "name": "noOfTiers",
      "outputs": [
        {
          "internalType": "uint256",
          "name": "",
          "type": "uint256"
        }
      ],
      "stateMutability": "view",
      "type": "function"
    },
    {
      "inputs": [],
      "name": "owner",
      "outputs": [
        {
          "internalType": "address",
          "name": "",
          "type": "address"
        }
      ],
      "stateMutability": "view",
      "type": "function"
    },
    {
      "inputs": [],
      "name": "pause",
      "outputs": [],
      "stateMutability": "nonpayable",
      "type": "function"
    },
    {
      "inputs": [],
      "name": "paused",
      "outputs": [
        {
          "internalType": "bool",
          "name": "",
          "type": "bool"
        }
      ],
      "stateMutability": "view",
      "type": "function"
    },
    {
      "inputs": [],
      "name": "phaseNo",
      "outputs": [
        {
          "internalType": "uint8",
          "name": "",
          "type": "uint8"
        }
      ],
      "stateMutability": "view",
      "type": "function"
    },
    {
      "inputs": [],
      "name": "projectOwner",
      "outputs": [
        {
          "internalType": "address",
          "name": "",
          "type": "address"
        }
      ],
      "stateMutability": "view",
      "type": "function"
    },
    {
      "inputs": [],
      "name": "renounceOwnership",
      "outputs": [],
      "stateMutability": "nonpayable",
      "type": "function"
    },
    {
      "inputs": [],
      "name": "saleEnd",
      "outputs": [
        {
          "internalType": "uint256",
          "name": "",
          "type": "uint256"
        }
      ],
      "stateMutability": "view",
      "type": "function"
    },
    {
      "inputs": [],
      "name": "saleStart",
      "outputs": [
        {
          "internalType": "uint256",
          "name": "",
          "type": "uint256"
        }
      ],
      "stateMutability": "view",
      "type": "function"
    },
    {
      "inputs": [
        {
          "internalType": "uint256",
          "name": "",
          "type": "uint256"
        }
      ],
      "name": "tierDetails",
      "outputs": [
        {
          "internalType": "uint256",
          "name": "maxTierCap",
          "type": "uint256"
        },
        {
          "internalType": "uint256",
          "name": "minUserCap",
          "type": "uint256"
        },
        {
          "internalType": "uint256",
          "name": "maxUserCap",
          "type": "uint256"
        },
        {
          "internalType": "uint256",
          "name": "amountRaised",
          "type": "uint256"
        },
        {
          "internalType": "uint256",
          "name": "users",
          "type": "uint256"
        }
      ],
      "stateMutability": "view",
      "type": "function"
    },
    {
      "inputs": [],
      "name": "tokenAddress",
      "outputs": [
        {
          "internalType": "address",
          "name": "",
          "type": "address"
        }
      ],
      "stateMutability": "view",
      "type": "function"
    },
    {
      "inputs": [],
      "name": "totalBUSDReceivedInAllTier",
      "outputs": [
        {
          "internalType": "uint256",
          "name": "",
          "type": "uint256"
        }
      ],
      "stateMutability": "view",
      "type": "function"
    },
    {
      "inputs": [],
      "name": "totalUsers",
      "outputs": [
        {
          "internalType": "uint256",
          "name": "",
          "type": "uint256"
        }
      ],
      "stateMutability": "view",
      "type": "function"
    },
    {
      "inputs": [
        {
          "internalType": "address",
          "name": "newOwner",
          "type": "address"
        }
      ],
      "name": "transferOwnership",
      "outputs": [],
      "stateMutability": "nonpayable",
      "type": "function"
    },
    {
      "inputs": [],
      "name": "unpause",
      "outputs": [],
      "stateMutability": "nonpayable",
      "type": "function"
    },
    {
      "inputs": [
        {
          "internalType": "uint256",
          "name": "newSaleEnd",
          "type": "uint256"
        }
      ],
      "name": "updateEndTime",
      "outputs": [],
      "stateMutability": "nonpayable",
      "type": "function"
    },
    {
      "inputs": [
        {
          "internalType": "uint256",
          "name": "_maxCap",
          "type": "uint256"
        }
      ],
      "name": "updateMaxCap",
      "outputs": [],
      "stateMutability": "nonpayable",
      "type": "function"
    },
    {
      "inputs": [
        {
          "internalType": "uint256",
          "name": "newsaleStart",
          "type": "uint256"
        }
      ],
      "name": "updateStartTime",
      "outputs": [],
      "stateMutability": "nonpayable",
      "type": "function"
    },
    {
      "inputs": [
        {
          "internalType": "uint256[]",
          "name": "_tier",
          "type": "uint256[]"
        },
        {
          "internalType": "uint256[]",
          "name": "_maxTierCap",
          "type": "uint256[]"
        },
        {
          "internalType": "uint256[]",
          "name": "_minUserCap",
          "type": "uint256[]"
        },
        {
          "internalType": "uint256[]",
          "name": "_maxUserCap",
          "type": "uint256[]"
        },
        {
          "internalType": "uint256[]",
          "name": "_tierUsers",
          "type": "uint256[]"
        }
      ],
      "name": "updateTiers",
      "outputs": [],
      "stateMutability": "nonpayable",
      "type": "function"
    },
    {
      "inputs": [
        {
          "internalType": "address[]",
          "name": "_users",
          "type": "address[]"
        },
        {
          "internalType": "uint256[]",
          "name": "_tiers",
          "type": "uint256[]"
        }
      ],
      "name": "updateUsers",
      "outputs": [],
      "stateMutability": "nonpayable",
      "type": "function"
    },
    {
      "inputs": [
        {
          "internalType": "address",
          "name": "",
          "type": "address"
        }
      ],
      "name": "userDetails",
      "outputs": [
        {
          "internalType": "uint256",
          "name": "tier",
          "type": "uint256"
        },
        {
          "internalType": "uint256",
          "name": "investedAmount",
          "type": "uint256"
        }
      ],
      "stateMutability": "view",
      "type": "function"
    }
  ],
  "bytecode": {
    "object": "0x60a06040523480156200001157600080fd5b5060405162001cad38038062001cad8339810160408190526200003491620003bf565b6200003f3362000284565b6000805460ff60a01b191690558851620000619060019060208c0190620002d4565b5060008811620000a75760405162461bcd60e51b815260206004820152600c60248201526b05a65726f206d6178206361760a41b60448201526064015b60405180910390fd5b60028890554287118015620000bb57508686115b620000fb5760405162461bcd60e51b815260206004820152600f60248201526e496e76616c69642074696d696e677360881b60448201526064016200009e565b6003879055600486905584620001415760405162461bcd60e51b815260206004820152600a6024820152695a65726f20746965727360b01b60448201526064016200009e565b60068590556001600160a01b0384166200019e5760405162461bcd60e51b815260206004820152601a60248201527f5a65726f2070726f6a656374206f776e6572206164647265737300000000000060448201526064016200009e565b600880546001600160a01b0319166001600160a01b03868116919091179091558316620002035760405162461bcd60e51b81526020600482015260126024820152715a65726f20746f6b656e206164647265737360701b60448201526064016200009e565b600980546001600160a01b0385166001600160a01b03199182168117909255600a80549091169091179055816200026a5760405162461bcd60e51b815260206004820152600a6024820152695a65726f20757365727360b01b60448201526064016200009e565b60079190915560ff16608052506200054495505050505050565b600080546001600160a01b038381166001600160a01b0319831681178455604051919092169283917f8be0079c531659141344cd1fd0a4f28419497f9722a3daafe3b4186f6b6457e09190a35050565b828054620002e29062000507565b90600052602060002090601f01602090048101928262000306576000855562000351565b82601f106200032157805160ff191683800117855562000351565b8280016001018555821562000351579182015b828111156200035157825182559160200191906001019062000334565b506200035f92915062000363565b5090565b5b808211156200035f576000815560010162000364565b634e487b7160e01b600052604160045260246000fd5b80516001600160a01b0381168114620003a857600080fd5b919050565b805160ff81168114620003a857600080fd5b60008060008060008060008060006101208a8c031215620003df57600080fd5b89516001600160401b0380821115620003f757600080fd5b818c0191508c601f8301126200040c57600080fd5b8151818111156200042157620004216200037a565b604051601f8201601f19908116603f011681019083821181831017156200044c576200044c6200037a565b81604052828152602093508f848487010111156200046957600080fd5b600091505b828210156200048d57848201840151818301850152908301906200046e565b828211156200049f5760008484830101525b809d50505050808c01519950505060408a0151965060608a0151955060808a01519450620004d060a08b0162000390565b9350620004e060c08b0162000390565b925060e08a01519150620004f86101008b01620003ad565b90509295985092959850929598565b600181811c908216806200051c57607f821691505b602082108114156200053e57634e487b7160e01b600052602260045260246000fd5b50919050565b60805161174662000567600039600081816102a40152610a8c01526117466000f3fe608060405234801561001057600080fd5b50600436106101735760003560e01c8063715018a6116100de578063ab0bcc4111610097578063dd30105711610071578063dd30105714610343578063e81ba0801461034c578063f2fde38b1461035f578063f75c1b981461037257600080fd5b8063ab0bcc4114610328578063bff1f9e114610331578063c10b93581461033a57600080fd5b8063715018a6146102d85780638456cb59146102e05780638cb37ab2146102e85780638da5cb5b146102f15780639d76ea5814610302578063a4475ce41461031557600080fd5b80633f4ba83a116101305780633f4ba83a1461022357806348dec2a71461022b5780635c975abb1461026757806362dd5f38146102795780636ab3846b1461028c578063712830881461029f57600080fd5b806306bcf02f1461017857806306fdde031461018d5780631bbc4b83146101ab5780631c713fa9146101d657806323548b8b146101e95780633610724e14610200575b600080fd5b61018b6101863660046112f9565b6103d7565b005b610195610457565b6040516101a29190611312565b60405180910390f35b600a546101be906001600160a01b031681565b6040516001600160a01b0390911681526020016101a2565b61018b6101e4366004611459565b6104e5565b6101f260025481565b6040519081526020016101a2565b61021361020e3660046112f9565b61064e565b60405190151581526020016101a2565b61018b610ae9565b610252610239366004611519565b600c602052600090815260409020805460019091015482565b604080519283526020830191909152016101a2565b600054600160a01b900460ff16610213565b61018b610287366004611534565b610b1d565b61018b61029a3660046112f9565b610e7c565b6102c67f000000000000000000000000000000000000000000000000000000000000000081565b60405160ff90911681526020016101a2565b61018b610f16565b61018b610f4a565b6101f260055481565b6000546001600160a01b03166101be565b6009546101be906001600160a01b031681565b6008546101be906001600160a01b031681565b6101f260035481565b6101f260075481565b6101f260045481565b6101f260065481565b61018b61035a3660046112f9565b610f7c565b61018b61036d366004611519565b610fea565b6103af6103803660046112f9565b600b60205260009081526040902080546001820154600283015460038401546004909401549293919290919085565b604080519586526020860194909452928401919091526060830152608082015260a0016101a2565b6000546001600160a01b0316331461040a5760405162461bcd60e51b815260040161040190611606565b60405180910390fd5b60035442106104525760405162461bcd60e51b815260206004820152601460248201527314d85b1948185b1c9958591e481cdd185c9d195960621b6044820152606401610401565b600355565b600180546104649061163b565b80601f01602080910402602001604051908101604052809291908181526020018280546104909061163b565b80156104dd5780601f106104b2576101008083540402835291602001916104dd565b820191906000526020600020905b8154815290600101906020018083116104c057829003601f168201915b505050505081565b6000546001600160a01b0316331461050f5760405162461bcd60e51b815260040161040190611606565b80518251146105585760405162461bcd60e51b8152602060048201526015602482015274082e4e4c2f240d8cadccee8d040dad2e6dac2e8c6d605b1b6044820152606401610401565b60005b825181101561064957600082828151811061057857610578611676565b60200260200101511180156105a8575060065482828151811061059d5761059d611676565b602002602001015111155b6105e35760405162461bcd60e51b815260206004820152600c60248201526b24b73b30b634b2103a34b2b960a11b6044820152606401610401565b8181815181106105f5576105f5611676565b6020026020010151600c600085848151811061061357610613611676565b6020908102919091018101516001600160a01b031682528101919091526040016000205580610641816116a2565b91505061055b565b505050565b60008054600160a01b900460ff161561069c5760405162461bcd60e51b815260206004820152601060248201526f14185d5cd8589b194e881c185d5cd95960821b6044820152606401610401565b600a54604051636eb1769f60e11b815233600482018190523060248301529184916000916001600160a01b03169063dd62ed3e9060440160206040518083038186803b1580156106eb57600080fd5b505afa1580156106ff573d6000803e3d6000fd5b505050506040513d601f19601f8201168201806040525081019061072391906116bd565b90508082111561077f5760405162461bcd60e51b815260206004820152602160248201527f4d616b65207375726520746f2061646420656e6f75676820616c6c6f77616e636044820152606560f81b6064820152608401610401565b6003544210156107c85760405162461bcd60e51b815260206004820152601460248201527314d85b19481b9bdd081cdd185c9d1959081e595d60621b6044820152606401610401565b6004544211156108075760405162461bcd60e51b815260206004820152600a60248201526914d85b1948115b99195960b21b6044820152606401610401565b6002546005546108179087611085565b111561085c5760405162461bcd60e51b815260206004820152601460248201527304578636565647320706f6f6c206d6178206361760641b6044820152606401610401565b336000908152600c6020526040902054801580159061087d57506006548111155b6108c05760405162461bcd60e51b8152602060048201526014602482015273155cd95c881b9bdd081dda1a5d195b1a5cdd195960621b6044820152606401610401565b336000908152600c60205260408120600101546108de908890611085565b6000838152600b60205260409020600101549091508110156109425760405162461bcd60e51b815260206004820152601d60248201527f416d6f756e74206c657373207468616e2075736572206d696e206361700000006044820152606401610401565b6000828152600b60205260409020600201548111156109a35760405162461bcd60e51b815260206004820181905260248201527f416d6f756e742067726561746572207468616e2075736572206d6178206361706044820152606401610401565b6000828152600b6020526040902054811115610a0d5760405162461bcd60e51b8152602060048201526024808201527f416d6f756e742067726561746572207468616e207468652074696572206d61786044820152630206361760e41b6064820152608401610401565b600554610a1a9088611085565b6005556000828152600b6020526040902060030154610a399088611085565b6000838152600b602090815260408083206003019390935533808352600c909152919020600101829055600854600a54610a82926001600160a01b03918216929091168a6110eb565b60405181815260ff7f0000000000000000000000000000000000000000000000000000000000000000169033907fa6c963db73174350c08b882c2b6c89902dccdfdb463a6f6fe06659a0320b7a339060200160405180910390a35060019695505050505050565b6000546001600160a01b03163314610b135760405162461bcd60e51b815260040161040190611606565b610b1b611184565b565b6000546001600160a01b03163314610b475760405162461bcd60e51b815260040161040190611606565b83518551148015610b59575082518451145b8015610b66575081518351145b8015610b73575080518251145b610bb25760405162461bcd60e51b815260206004820152601060248201526f098cadccee8d0e640dad2e6dac2e8c6d60831b6044820152606401610401565b60005b8551811015610e74576000868281518110610bd257610bd2611676565b6020026020010151118015610c025750600654868281518110610bf757610bf7611676565b602002602001015111155b610c445760405162461bcd60e51b815260206004820152601360248201527224b73b30b634b2103a34b2b910373ab6b132b960691b6044820152606401610401565b6000858281518110610c5857610c58611676565b602002602001015111610cad5760405162461bcd60e51b815260206004820152601b60248201527f496e76616c6964206d617820746965722063617020616d6f756e7400000000006044820152606401610401565b6000838281518110610cc157610cc1611676565b602002602001015111610d165760405162461bcd60e51b815260206004820152601b60248201527f496e76616c6964206d617820757365722063617020616d6f756e7400000000006044820152606401610401565b6000828281518110610d2a57610d2a611676565b602002602001015111610d745760405162461bcd60e51b81526020600482015260126024820152712d32b937903ab9b2b9399034b7103a34b2b960711b6044820152606401610401565b6040518060a00160405280868381518110610d9157610d91611676565b60200260200101518152602001858381518110610db057610db0611676565b60200260200101518152602001848381518110610dcf57610dcf611676565b6020026020010151815260200160008152602001838381518110610df557610df5611676565b6020026020010151815250600b6000888481518110610e1657610e16611676565b6020026020010151815260200190815260200160002060008201518160000155602082015181600101556040820151816002015560608201518160030155608082015181600401559050508080610e6c906116a2565b915050610bb5565b505050505050565b6000546001600160a01b03163314610ea65760405162461bcd60e51b815260040161040190611606565b60035481118015610eb657504281115b610f115760405162461bcd60e51b815260206004820152602660248201527f53616c6520656e642063616e2774206265206c657373207468616e2073616c65604482015265081cdd185c9d60d21b6064820152608401610401565b600455565b6000546001600160a01b03163314610f405760405162461bcd60e51b815260040161040190611606565b610b1b6000611221565b6000546001600160a01b03163314610f745760405162461bcd60e51b815260040161040190611606565b610b1b611271565b6000546001600160a01b03163314610fa65760405162461bcd60e51b815260040161040190611606565b60008111610fe55760405162461bcd60e51b815260206004820152600c60248201526b05a65726f206d6178206361760a41b6044820152606401610401565b600255565b6000546001600160a01b031633146110145760405162461bcd60e51b815260040161040190611606565b6001600160a01b0381166110795760405162461bcd60e51b815260206004820152602660248201527f4f776e61626c653a206e6577206f776e657220697320746865207a65726f206160448201526564647265737360d01b6064820152608401610401565b61108281611221565b50565b60008061109283856116d6565b9050838110156110e45760405162461bcd60e51b815260206004820152601b60248201527f536166654d6174683a206164646974696f6e206f766572666c6f7700000000006044820152606401610401565b9392505050565b6040516323b872dd60e01b81526001600160a01b0384811660048301528381166024830152604482018390528516906323b872dd90606401602060405180830381600087803b15801561113d57600080fd5b505af1158015611151573d6000803e3d6000fd5b505050506040513d601f19601f8201168201806040525081019061117591906116ee565b61117e57600080fd5b50505050565b600054600160a01b900460ff166111d45760405162461bcd60e51b815260206004820152601460248201527314185d5cd8589b194e881b9bdd081c185d5cd95960621b6044820152606401610401565b6000805460ff60a01b191690557f5db9ee0a495bf2e6ff9c91a7834c1ba4fdd244a5e8aa4e537bd38aeae4b073aa335b6040516001600160a01b03909116815260200160405180910390a1565b600080546001600160a01b038381166001600160a01b0319831681178455604051919092169283917f8be0079c531659141344cd1fd0a4f28419497f9722a3daafe3b4186f6b6457e09190a35050565b600054600160a01b900460ff16156112be5760405162461bcd60e51b815260206004820152601060248201526f14185d5cd8589b194e881c185d5cd95960821b6044820152606401610401565b6000805460ff60a01b1916600160a01b1790557f62e78cea01bee320cd4e420270b5ea74000d11b0c9f74754ebdbfc544b05a2586112043390565b60006020828403121561130b57600080fd5b5035919050565b600060208083528351808285015260005b8181101561133f57858101830151858201604001528201611323565b81811115611351576000604083870101525b50601f01601f1916929092016040019392505050565b634e487b7160e01b600052604160045260246000fd5b604051601f8201601f1916810167ffffffffffffffff811182821017156113a6576113a6611367565b604052919050565b600067ffffffffffffffff8211156113c8576113c8611367565b5060051b60200190565b80356001600160a01b03811681146113e957600080fd5b919050565b600082601f8301126113ff57600080fd5b8135602061141461140f836113ae565b61137d565b82815260059290921b8401810191818101908684111561143357600080fd5b8286015b8481101561144e5780358352918301918301611437565b509695505050505050565b6000806040838503121561146c57600080fd5b823567ffffffffffffffff8082111561148457600080fd5b818501915085601f83011261149857600080fd5b813560206114a861140f836113ae565b82815260059290921b840181019181810190898411156114c757600080fd5b948201945b838610156114ec576114dd866113d2565b825294820194908201906114cc565b9650508601359250508082111561150257600080fd5b5061150f858286016113ee565b9150509250929050565b60006020828403121561152b57600080fd5b6110e4826113d2565b600080600080600060a0868803121561154c57600080fd5b853567ffffffffffffffff8082111561156457600080fd5b61157089838a016113ee565b9650602088013591508082111561158657600080fd5b61159289838a016113ee565b955060408801359150808211156115a857600080fd5b6115b489838a016113ee565b945060608801359150808211156115ca57600080fd5b6115d689838a016113ee565b935060808801359150808211156115ec57600080fd5b506115f9888289016113ee565b9150509295509295909350565b6020808252818101527f4f776e61626c653a2063616c6c6572206973206e6f7420746865206f776e6572604082015260600190565b600181811c9082168061164f57607f821691505b6020821081141561167057634e487b7160e01b600052602260045260246000fd5b50919050565b634e487b7160e01b600052603260045260246000fd5b634e487b7160e01b600052601160045260246000fd5b60006000198214156116b6576116b661168c565b5060010190565b6000602082840312156116cf57600080fd5b5051919050565b600082198211156116e9576116e961168c565b500190565b60006020828403121561170057600080fd5b815180151581146110e457600080fdfea2646970667358221220f76fe1b099a383d9d47ddf24a992b79f52dd5b09036926802c51ac8d85a0dcc764736f6c63430008090033",
    "linkReferences": {}
  },
  "methodIdentifiers": {
    "ERC20Interface()": "1bbc4b83",
    "buyTokens(uint256)": "3610724e",
    "maxCap()": "23548b8b",
    "name()": "06fdde03",
    "noOfTiers()": "dd301057",
    "owner()": "8da5cb5b",
    "pause()": "8456cb59",
    "paused()": "5c975abb",
    "phaseNo()": "71283088",
    "projectOwner()": "a4475ce4",
    "renounceOwnership()": "715018a6",
    "saleEnd()": "c10b9358",
    "saleStart()": "ab0bcc41",
    "tierDetails(uint256)": "f75c1b98",
    "tokenAddress()": "9d76ea58",
    "totalBUSDReceivedInAllTier()": "8cb37ab2",
    "totalUsers()": "bff1f9e1",
    "transferOwnership(address)": "f2fde38b",
    "unpause()": "3f4ba83a",
    "updateEndTime(uint256)": "6ab3846b",
    "updateMaxCap(uint256)": "e81ba080",
    "updateStartTime(uint256)": "06bcf02f",
    "updateTiers(uint256[],uint256[],uint256[],uint256[],uint256[])": "62dd5f38",
    "updateUsers(address[],uint256[])": "1c713fa9",
    "userDetails(address)": "48dec2a7"
  },
  "id": 23
}