{
  "abi": [
    {
      "inputs": [
        {
          "internalType": "string",
          "name": "_name",
          "type": "string"
        },
        {
          "internalType": "uint256",
          "name": "_maxCap",
          "type": "uint256"
        },
        {
          "internalType": "uint256",
          "name": "_saleStart",
          "type": "uint256"
        },
        {
          "internalType": "uint256",
          "name": "_saleEnd",
          "type": "uint256"
        },
        {
          "internalType": "uint256",
          "name": "_noOfTiers",
          "type": "uint256"
        },
        {
          "internalType": "address",
          "name": "_projectOwner",
          "type": "address"
        },
        {
          "internalType": "address",
          "name": "_tokenAddress",
          "type": "address"
        },
        {
          "internalType": "uint256",
          "name": "_totalUsers",
          "type": "uint256"
        },
        {
          "internalType": "uint8",
          "name": "_phaseNo",
          "type": "uint8"
        }
      ],
      "stateMutability": "nonpayable",
      "type": "constructor"
    },
    {
      "anonymous": false,
      "inputs": [
        {
          "indexed": true,
          "internalType": "address",
          "name": "previousOwner",
          "type": "address"
        },
        {
          "indexed": true,
          "internalType": "address",
          "name": "newOwner",
          "type": "address"
        }
      ],
      "name": "OwnershipTransferred",
      "type": "event"
    },
    {
      "anonymous": false,
      "inputs": [
        {
          "indexed": false,
          "internalType": "address",
          "name": "account",
          "type": "address"
        }
      ],
      "name": "Paused",
      "type": "event"
    },
    {
      "anonymous": false,
      "inputs": [
        {
          "indexed": false,
          "internalType": "address",
          "name": "account",
          "type": "address"
        }
      ],
      "name": "Unpaused",
      "type": "event"
    },
    {
      "anonymous": false,
      "inputs": [
        {
          "indexed": true,
          "internalType": "address",
          "name": "user",
          "type": "address"
        },
        {
          "indexed": false,
          "internalType": "uint256",
          "name": "amount",
          "type": "uint256"
        },
        {
          "indexed": true,
          "internalType": "uint8",
          "name": "phase",
          "type": "uint8"
        }
      ],
      "name": "UserInvestment",
      "type": "event"
    },
    {
      "inputs": [],
      "name": "ERC20Interface",
      "outputs": [
        {
          "internalType": "contract IERC20",
          "name": "",
          "type": "address"
        }
      ],
      "stateMutability": "view",
      "type": "function"
    },
    {
      "inputs": [
        {
          "internalType": "uint256",
          "name": "amount",
          "type": "uint256"
        }
      ],
      "name": "buyTokens",
      "outputs": [
        {
          "internalType": "bool",
          "name": "",
          "type": "bool"
        }
      ],
      "stateMutability": "nonpayable",
      "type": "function"
    },
    {
      "inputs": [],
      "name": "maxCap",
      "outputs": [
        {
          "internalType": "uint256",
          "name": "",
          "type": "uint256"
        }
      ],
      "stateMutability": "view",
      "type": "function"
    },
    {
      "inputs": [],
      "name": "name",
      "outputs": [
        {
          "internalType": "string",
          "name": "",
          "type": "string"
        }
      ],
      "stateMutability": "view",
      "type": "function"
    },
    {
      "inputs": [],
      "name": "noOfTiers",
      "outputs": [
        {
          "internalType": "uint256",
          "name": "",
          "type": "uint256"
        }
      ],
      "stateMutability": "view",
      "type": "function"
    },
    {
      "inputs": [],
      "name": "owner",
      "outputs": [
        {
          "internalType": "address",
          "name": "",
          "type": "address"
        }
      ],
      "stateMutability": "view",
      "type": "function"
    },
    {
      "inputs": [],
      "name": "pause",
      "outputs": [],
      "stateMutability": "nonpayable",
      "type": "function"
    },
    {
      "inputs": [],
      "name": "paused",
      "outputs": [
        {
          "internalType": "bool",
          "name": "",
          "type": "bool"
        }
      ],
      "stateMutability": "view",
      "type": "function"
    },
    {
      "inputs": [],
      "name": "phaseNo",
      "outputs": [
        {
          "internalType": "uint8",
          "name": "",
          "type": "uint8"
        }
      ],
      "stateMutability": "view",
      "type": "function"
    },
    {
      "inputs": [],
      "name": "projectOwner",
      "outputs": [
        {
          "internalType": "address",
          "name": "",
          "type": "address"
        }
      ],
      "stateMutability": "view",
      "type": "function"
    },
    {
      "inputs": [],
      "name": "renounceOwnership",
      "outputs": [],
      "stateMutability": "nonpayable",
      "type": "function"
    },
    {
      "inputs": [],
      "name": "saleEnd",
      "outputs": [
        {
          "internalType": "uint256",
          "name": "",
          "type": "uint256"
        }
      ],
      "stateMutability": "view",
      "type": "function"
    },
    {
      "inputs": [],
      "name": "saleStart",
      "outputs": [
        {
          "internalType": "uint256",
          "name": "",
          "type": "uint256"
        }
      ],
      "stateMutability": "view",
      "type": "function"
    },
    {
      "inputs": [
        {
          "internalType": "uint256",
          "name": "",
          "type": "uint256"
        }
      ],
      "name": "tierDetails",
      "outputs": [
        {
          "internalType": "uint256",
          "name": "maxTierCap",
          "type": "uint256"
        },
        {
          "internalType": "uint256",
          "name": "minUserCap",
          "type": "uint256"
        },
        {
          "internalType": "uint256",
          "name": "maxUserCap",
          "type": "uint256"
        },
        {
          "internalType": "uint256",
          "name": "amountRaised",
          "type": "uint256"
        },
        {
          "internalType": "uint256",
          "name": "users",
          "type": "uint256"
        }
      ],
      "stateMutability": "view",
      "type": "function"
    },
    {
      "inputs": [],
      "name": "tokenAddress",
      "outputs": [
        {
          "internalType": "address",
          "name": "",
          "type": "address"
        }
      ],
      "stateMutability": "view",
      "type": "function"
    },
    {
      "inputs": [],
      "name": "totalBUSDReceivedInAllTier",
      "outputs": [
        {
          "internalType": "uint256",
          "name": "",
          "type": "uint256"
        }
      ],
      "stateMutability": "view",
      "type": "function"
    },
    {
      "inputs": [],
      "name": "totalUsers",
      "outputs": [
        {
          "internalType": "uint256",
          "name": "",
          "type": "uint256"
        }
      ],
      "stateMutability": "view",
      "type": "function"
    },
    {
      "inputs": [
        {
          "internalType": "address",
          "name": "newOwner",
          "type": "address"
        }
      ],
      "name": "transferOwnership",
      "outputs": [],
      "stateMutability": "nonpayable",
      "type": "function"
    },
    {
      "inputs": [],
      "name": "unpause",
      "outputs": [],
      "stateMutability": "nonpayable",
      "type": "function"
    },
    {
      "inputs": [
        {
          "internalType": "uint256",
          "name": "newSaleEnd",
          "type": "uint256"
        }
      ],
      "name": "updateEndTime",
      "outputs": [],
      "stateMutability": "nonpayable",
      "type": "function"
    },
    {
      "inputs": [
        {
          "internalType": "uint256",
          "name": "_maxCap",
          "type": "uint256"
        }
      ],
      "name": "updateMaxCap",
      "outputs": [],
      "stateMutability": "nonpayable",
      "type": "function"
    },
    {
      "inputs": [
        {
          "internalType": "uint256",
          "name": "newsaleStart",
          "type": "uint256"
        }
      ],
      "name": "updateStartTime",
      "outputs": [],
      "stateMutability": "nonpayable",
      "type": "function"
    },
    {
      "inputs": [
        {
          "internalType": "uint256[]",
          "name": "_tier",
          "type": "uint256[]"
        },
        {
          "internalType": "uint256[]",
          "name": "_maxTierCap",
          "type": "uint256[]"
        },
        {
          "internalType": "uint256[]",
          "name": "_minUserCap",
          "type": "uint256[]"
        },
        {
          "internalType": "uint256[]",
          "name": "_maxUserCap",
          "type": "uint256[]"
        },
        {
          "internalType": "uint256[]",
          "name": "_tierUsers",
          "type": "uint256[]"
        }
      ],
      "name": "updateTiers",
      "outputs": [],
      "stateMutability": "nonpayable",
      "type": "function"
    },
    {
      "inputs": [
        {
          "internalType": "address[]",
          "name": "_users",
          "type": "address[]"
        },
        {
          "internalType": "uint256[]",
          "name": "_tiers",
          "type": "uint256[]"
        }
      ],
      "name": "updateUsers",
      "outputs": [],
      "stateMutability": "nonpayable",
      "type": "function"
    },
    {
      "inputs": [
        {
          "internalType": "address",
          "name": "",
          "type": "address"
        }
      ],
      "name": "userDetails",
      "outputs": [
        {
          "internalType": "uint256",
          "name": "tier",
          "type": "uint256"
        },
        {
          "internalType": "uint256",
          "name": "investedAmount",
          "type": "uint256"
        }
      ],
      "stateMutability": "view",
      "type": "function"
    }
  ],
  "bytecode": {
    "object": "0x60a06040523480156200001157600080fd5b5060405162001cf038038062001cf0833981016040819052620000349162000312565b6200003f336200027d565b6000805460ff60a01b1916905560016200005a8a82620004df565b5060008811620000a05760405162461bcd60e51b815260206004820152600c60248201526b05a65726f206d6178206361760a41b60448201526064015b60405180910390fd5b60028890554287118015620000b457508686115b620000f45760405162461bcd60e51b815260206004820152600f60248201526e496e76616c69642074696d696e677360881b604482015260640162000097565b60038790556004869055846200013a5760405162461bcd60e51b815260206004820152600a6024820152695a65726f20746965727360b01b604482015260640162000097565b60068590556001600160a01b038416620001975760405162461bcd60e51b815260206004820152601a60248201527f5a65726f2070726f6a656374206f776e65722061646472657373000000000000604482015260640162000097565b600880546001600160a01b0319166001600160a01b03868116919091179091558316620001fc5760405162461bcd60e51b81526020600482015260126024820152715a65726f20746f6b656e206164647265737360701b604482015260640162000097565b600980546001600160a01b0385166001600160a01b03199182168117909255600a8054909116909117905581620002635760405162461bcd60e51b815260206004820152600a6024820152695a65726f20757365727360b01b604482015260640162000097565b60079190915560ff1660805250620005ab95505050505050565b600080546001600160a01b038381166001600160a01b0319831681178455604051919092169283917f8be0079c531659141344cd1fd0a4f28419497f9722a3daafe3b4186f6b6457e09190a35050565b634e487b7160e01b600052604160045260246000fd5b80516001600160a01b0381168114620002fb57600080fd5b919050565b805160ff81168114620002fb57600080fd5b60008060008060008060008060006101208a8c0312156200033257600080fd5b89516001600160401b03808211156200034a57600080fd5b818c0191508c601f8301126200035f57600080fd5b815181811115620003745762000374620002cd565b604051601f8201601f19908116603f011681019083821181831017156200039f576200039f620002cd565b81604052828152602093508f84848701011115620003bc57600080fd5b600091505b82821015620003e05784820184015181830185015290830190620003c1565b6000848483010152809d50505050808c01519950505060408a0151965060608a0151955060808a015194506200041960a08b01620002e3565b93506200042960c08b01620002e3565b925060e08a01519150620004416101008b0162000300565b90509295985092959850929598565b600181811c908216806200046557607f821691505b6020821081036200048657634e487b7160e01b600052602260045260246000fd5b50919050565b601f821115620004da57600081815260208120601f850160051c81016020861015620004b55750805b601f850160051c820191505b81811015620004d657828155600101620004c1565b5050505b505050565b81516001600160401b03811115620004fb57620004fb620002cd565b62000513816200050c845462000450565b846200048c565b602080601f8311600181146200054b5760008415620005325750858301515b600019600386901b1c1916600185901b178555620004d6565b600085815260208120601f198616915b828110156200057c578886015182559484019460019091019084016200055b565b50858210156200059b5787850151600019600388901b60f8161c191681555b5050505050600190811b01905550565b608051611722620005ce600039600081816102a40152610a7d01526117226000f3fe608060405234801561001057600080fd5b50600436106101735760003560e01c8063715018a6116100de578063ab0bcc4111610097578063dd30105711610071578063dd30105714610343578063e81ba0801461034c578063f2fde38b1461035f578063f75c1b981461037257600080fd5b8063ab0bcc4114610328578063bff1f9e114610331578063c10b93581461033a57600080fd5b8063715018a6146102d85780638456cb59146102e05780638cb37ab2146102e85780638da5cb5b146102f15780639d76ea5814610302578063a4475ce41461031557600080fd5b80633f4ba83a116101305780633f4ba83a1461022357806348dec2a71461022b5780635c975abb1461026757806362dd5f38146102795780636ab3846b1461028c578063712830881461029f57600080fd5b806306bcf02f1461017857806306fdde031461018d5780631bbc4b83146101ab5780631c713fa9146101d657806323548b8b146101e95780633610724e14610200575b600080fd5b61018b6101863660046112dd565b6103d7565b005b610195610457565b6040516101a291906112f6565b60405180910390f35b600a546101be906001600160a01b031681565b6040516001600160a01b0390911681526020016101a2565b61018b6101e4366004611436565b6104e5565b6101f260025481565b6040519081526020016101a2565b61021361020e3660046112dd565b61064e565b60405190151581526020016101a2565b61018b610ada565b6102526102393660046114f6565b600c602052600090815260409020805460019091015482565b604080519283526020830191909152016101a2565b600054600160a01b900460ff16610213565b61018b610287366004611518565b610b0e565b61018b61029a3660046112dd565b610e6d565b6102c67f000000000000000000000000000000000000000000000000000000000000000081565b60405160ff90911681526020016101a2565b61018b610f07565b61018b610f3b565b6101f260055481565b6000546001600160a01b03166101be565b6009546101be906001600160a01b031681565b6008546101be906001600160a01b031681565b6101f260035481565b6101f260075481565b6101f260045481565b6101f260065481565b61018b61035a3660046112dd565b610f6d565b61018b61036d3660046114f6565b610fdb565b6103af6103803660046112dd565b600b60205260009081526040902080546001820154600283015460038401546004909401549293919290919085565b604080519586526020860194909452928401919091526060830152608082015260a0016101a2565b6000546001600160a01b0316331461040a5760405162461bcd60e51b8152600401610401906115ea565b60405180910390fd5b60035442106104525760405162461bcd60e51b815260206004820152601460248201527314d85b1948185b1c9958591e481cdd185c9d195960621b6044820152606401610401565b600355565b600180546104649061161f565b80601f01602080910402602001604051908101604052809291908181526020018280546104909061161f565b80156104dd5780601f106104b2576101008083540402835291602001916104dd565b820191906000526020600020905b8154815290600101906020018083116104c057829003601f168201915b505050505081565b6000546001600160a01b0316331461050f5760405162461bcd60e51b8152600401610401906115ea565b80518251146105585760405162461bcd60e51b8152602060048201526015602482015274082e4e4c2f240d8cadccee8d040dad2e6dac2e8c6d605b1b6044820152606401610401565b60005b825181101561064957600082828151811061057857610578611659565b60200260200101511180156105a8575060065482828151811061059d5761059d611659565b602002602001015111155b6105e35760405162461bcd60e51b815260206004820152600c60248201526b24b73b30b634b2103a34b2b960a11b6044820152606401610401565b8181815181106105f5576105f5611659565b6020026020010151600c600085848151811061061357610613611659565b6020908102919091018101516001600160a01b03168252810191909152604001600020558061064181611685565b91505061055b565b505050565b60008054600160a01b900460ff161561069c5760405162461bcd60e51b815260206004820152601060248201526f14185d5cd8589b194e881c185d5cd95960821b6044820152606401610401565b600a54604051636eb1769f60e11b815233600482018190523060248301529184916000916001600160a01b03169063dd62ed3e90604401602060405180830381865afa1580156106f0573d6000803e3d6000fd5b505050506040513d601f19601f82011682018060405250810190610714919061169e565b9050808211156107705760405162461bcd60e51b815260206004820152602160248201527f4d616b65207375726520746f2061646420656e6f75676820616c6c6f77616e636044820152606560f81b6064820152608401610401565b6003544210156107b95760405162461bcd60e51b815260206004820152601460248201527314d85b19481b9bdd081cdd185c9d1959081e595d60621b6044820152606401610401565b6004544211156107f85760405162461bcd60e51b815260206004820152600a60248201526914d85b1948115b99195960b21b6044820152606401610401565b6002546005546108089087611076565b111561084d5760405162461bcd60e51b815260206004820152601460248201527304578636565647320706f6f6c206d6178206361760641b6044820152606401610401565b336000908152600c6020526040902054801580159061086e57506006548111155b6108b15760405162461bcd60e51b8152602060048201526014602482015273155cd95c881b9bdd081dda1a5d195b1a5cdd195960621b6044820152606401610401565b336000908152600c60205260408120600101546108cf908890611076565b6000838152600b60205260409020600101549091508110156109335760405162461bcd60e51b815260206004820152601d60248201527f416d6f756e74206c657373207468616e2075736572206d696e206361700000006044820152606401610401565b6000828152600b60205260409020600201548111156109945760405162461bcd60e51b815260206004820181905260248201527f416d6f756e742067726561746572207468616e2075736572206d6178206361706044820152606401610401565b6000828152600b60205260409020548111156109fe5760405162461bcd60e51b8152602060048201526024808201527f416d6f756e742067726561746572207468616e207468652074696572206d61786044820152630206361760e41b6064820152608401610401565b600554610a0b9088611076565b6005556000828152600b6020526040902060030154610a2a9088611076565b6000838152600b602090815260408083206003019390935533808352600c909152919020600101829055600854600a54610a73926001600160a01b03918216929091168a6110de565b60405181815260ff7f0000000000000000000000000000000000000000000000000000000000000000169033907fa6c963db73174350c08b882c2b6c89902dccdfdb463a6f6fe06659a0320b7a339060200160405180910390a35060019695505050505050565b6000546001600160a01b03163314610b045760405162461bcd60e51b8152600401610401906115ea565b610b0c611168565b565b6000546001600160a01b03163314610b385760405162461bcd60e51b8152600401610401906115ea565b83518551148015610b4a575082518451145b8015610b57575081518351145b8015610b64575080518251145b610ba35760405162461bcd60e51b815260206004820152601060248201526f098cadccee8d0e640dad2e6dac2e8c6d60831b6044820152606401610401565b60005b8551811015610e65576000868281518110610bc357610bc3611659565b6020026020010151118015610bf35750600654868281518110610be857610be8611659565b602002602001015111155b610c355760405162461bcd60e51b815260206004820152601360248201527224b73b30b634b2103a34b2b910373ab6b132b960691b6044820152606401610401565b6000858281518110610c4957610c49611659565b602002602001015111610c9e5760405162461bcd60e51b815260206004820152601b60248201527f496e76616c6964206d617820746965722063617020616d6f756e7400000000006044820152606401610401565b6000838281518110610cb257610cb2611659565b602002602001015111610d075760405162461bcd60e51b815260206004820152601b60248201527f496e76616c6964206d617820757365722063617020616d6f756e7400000000006044820152606401610401565b6000828281518110610d1b57610d1b611659565b602002602001015111610d655760405162461bcd60e51b81526020600482015260126024820152712d32b937903ab9b2b9399034b7103a34b2b960711b6044820152606401610401565b6040518060a00160405280868381518110610d8257610d82611659565b60200260200101518152602001858381518110610da157610da1611659565b60200260200101518152602001848381518110610dc057610dc0611659565b6020026020010151815260200160008152602001838381518110610de657610de6611659565b6020026020010151815250600b6000888481518110610e0757610e07611659565b6020026020010151815260200190815260200160002060008201518160000155602082015181600101556040820151816002015560608201518160030155608082015181600401559050508080610e5d90611685565b915050610ba6565b505050505050565b6000546001600160a01b03163314610e975760405162461bcd60e51b8152600401610401906115ea565b60035481118015610ea757504281115b610f025760405162461bcd60e51b815260206004820152602660248201527f53616c6520656e642063616e2774206265206c657373207468616e2073616c65604482015265081cdd185c9d60d21b6064820152608401610401565b600455565b6000546001600160a01b03163314610f315760405162461bcd60e51b8152600401610401906115ea565b610b0c6000611205565b6000546001600160a01b03163314610f655760405162461bcd60e51b8152600401610401906115ea565b610b0c611255565b6000546001600160a01b03163314610f975760405162461bcd60e51b8152600401610401906115ea565b60008111610fd65760405162461bcd60e51b815260206004820152600c60248201526b05a65726f206d6178206361760a41b6044820152606401610401565b600255565b6000546001600160a01b031633146110055760405162461bcd60e51b8152600401610401906115ea565b6001600160a01b03811661106a5760405162461bcd60e51b815260206004820152602660248201527f4f776e61626c653a206e6577206f776e657220697320746865207a65726f206160448201526564647265737360d01b6064820152608401610401565b61107381611205565b50565b60008061108383856116b7565b9050838110156110d55760405162461bcd60e51b815260206004820152601b60248201527f536166654d6174683a206164646974696f6e206f766572666c6f7700000000006044820152606401610401565b90505b92915050565b6040516323b872dd60e01b81526001600160a01b0384811660048301528381166024830152604482018390528516906323b872dd906064016020604051808303816000875af1158015611135573d6000803e3d6000fd5b505050506040513d601f19601f8201168201806040525081019061115991906116ca565b61116257600080fd5b50505050565b600054600160a01b900460ff166111b85760405162461bcd60e51b815260206004820152601460248201527314185d5cd8589b194e881b9bdd081c185d5cd95960621b6044820152606401610401565b6000805460ff60a01b191690557f5db9ee0a495bf2e6ff9c91a7834c1ba4fdd244a5e8aa4e537bd38aeae4b073aa335b6040516001600160a01b03909116815260200160405180910390a1565b600080546001600160a01b038381166001600160a01b0319831681178455604051919092169283917f8be0079c531659141344cd1fd0a4f28419497f9722a3daafe3b4186f6b6457e09190a35050565b600054600160a01b900460ff16156112a25760405162461bcd60e51b815260206004820152601060248201526f14185d5cd8589b194e881c185d5cd95960821b6044820152606401610401565b6000805460ff60a01b1916600160a01b1790557f62e78cea01bee320cd4e420270b5ea74000d11b0c9f74754ebdbfc544b05a2586111e83390565b6000602082840312156112ef57600080fd5b5035919050565b600060208083528351808285015260005b8181101561132357858101830151858201604001528201611307565b506000604082860101526040601f19601f8301168501019250505092915050565b634e487b7160e01b600052604160045260246000fd5b604051601f8201601f1916810167ffffffffffffffff8111828210171561138357611383611344565b604052919050565b600067ffffffffffffffff8211156113a5576113a5611344565b5060051b60200190565b80356001600160a01b03811681146113c657600080fd5b919050565b600082601f8301126113dc57600080fd5b813560206113f16113ec8361138b565b61135a565b82815260059290921b8401810191818101908684111561141057600080fd5b8286015b8481101561142b5780358352918301918301611414565b509695505050505050565b6000806040838503121561144957600080fd5b823567ffffffffffffffff8082111561146157600080fd5b818501915085601f83011261147557600080fd5b813560206114856113ec8361138b565b82815260059290921b840181019181810190898411156114a457600080fd5b948201945b838610156114c9576114ba866113af565b825294820194908201906114a9565b965050860135925050808211156114df57600080fd5b506114ec858286016113cb565b9150509250929050565b60006020828403121561150857600080fd5b611511826113af565b9392505050565b600080600080600060a0868803121561153057600080fd5b853567ffffffffffffffff8082111561154857600080fd5b61155489838a016113cb565b9650602088013591508082111561156a57600080fd5b61157689838a016113cb565b9550604088013591508082111561158c57600080fd5b61159889838a016113cb565b945060608801359150808211156115ae57600080fd5b6115ba89838a016113cb565b935060808801359150808211156115d057600080fd5b506115dd888289016113cb565b9150509295509295909350565b6020808252818101527f4f776e61626c653a2063616c6c6572206973206e6f7420746865206f776e6572604082015260600190565b600181811c9082168061163357607f821691505b60208210810361165357634e487b7160e01b600052602260045260246000fd5b50919050565b634e487b7160e01b600052603260045260246000fd5b634e487b7160e01b600052601160045260246000fd5b6000600182016116975761169761166f565b5060010190565b6000602082840312156116b057600080fd5b5051919050565b808201808211156110d8576110d861166f565b6000602082840312156116dc57600080fd5b815180151581146110d557600080fdfea26469706673582212207bb89233e8f7cb5539b191b496581e495b9906c7e6f4b280d079718b9f31a25e64736f6c63430008140033",
    "linkReferences": {}
  },
  "methodIdentifiers": {
    "ERC20Interface()": "1bbc4b83",
    "buyTokens(uint256)": "3610724e",
    "maxCap()": "23548b8b",
    "name()": "06fdde03",
    "noOfTiers()": "dd301057",
    "owner()": "8da5cb5b",
    "pause()": "8456cb59",
    "paused()": "5c975abb",
    "phaseNo()": "71283088",
    "projectOwner()": "a4475ce4",
    "renounceOwnership()": "715018a6",
    "saleEnd()": "c10b9358",
    "saleStart()": "ab0bcc41",
    "tierDetails(uint256)": "f75c1b98",
    "tokenAddress()": "9d76ea58",
    "totalBUSDReceivedInAllTier()": "8cb37ab2",
    "totalUsers()": "bff1f9e1",
    "transferOwnership(address)": "f2fde38b",
    "unpause()": "3f4ba83a",
    "updateEndTime(uint256)": "6ab3846b",
    "updateMaxCap(uint256)": "e81ba080",
    "updateStartTime(uint256)": "06bcf02f",
    "updateTiers(uint256[],uint256[],uint256[],uint256[],uint256[])": "62dd5f38",
    "updateUsers(address[],uint256[])": "1c713fa9",
    "userDetails(address)": "48dec2a7"
  },
  "id": 43
}