{
  "abi": [
    {
      "inputs": [
        {
          "internalType": "address",
          "name": "_authorizedSigner",
          "type": "address"
        }
      ],
      "stateMutability": "nonpayable",
      "type": "constructor"
    },
    {
      "anonymous": false,
      "inputs": [
        {
          "indexed": true,
          "internalType": "address",
          "name": "user",
          "type": "address"
        },
        {
          "indexed": false,
          "internalType": "uint256",
          "name": "reward",
          "type": "uint256"
        }
      ],
      "name": "RewardClaimed",
      "type": "event"
    },
    {
      "inputs": [],
      "name": "authorizedSigner",
      "outputs": [
        {
          "internalType": "address",
          "name": "",
          "type": "address"
        }
      ],
      "stateMutability": "view",
      "type": "function"
    },
    {
      "inputs": [
        {
          "internalType": "address",
          "name": "user",
          "type": "address"
        },
        {
          "internalType": "uint256",
          "name": "rewardAmount",
          "type": "uint256"
        },
        {
          "internalType": "uint256",
          "name": "nonce",
          "type": "uint256"
        },
        {
          "internalType": "uint256",
          "name": "expiration",
          "type": "uint256"
        },
        {
          "internalType": "uint8",
          "name": "v",
          "type": "uint8"
        },
        {
          "internalType": "bytes32",
          "name": "r",
          "type": "bytes32"
        },
        {
          "internalType": "bytes32",
          "name": "s",
          "type": "bytes32"
        }
      ],
      "name": "claimReward",
      "outputs": [],
      "stateMutability": "nonpayable",
      "type": "function"
    },
    {
      "inputs": [
        {
          "internalType": "address",
          "name": "",
          "type": "address"
        }
      ],
      "name": "nonces",
      "outputs": [
        {
          "internalType": "uint256",
          "name": "",
          "type": "uint256"
        }
      ],
      "stateMutability": "view",
      "type": "function"
    },
    {
      "inputs": [],
      "name": "owner",
      "outputs": [
        {
          "internalType": "address",
          "name": "",
          "type": "address"
        }
      ],
      "stateMutability": "view",
      "type": "function"
    },
    {
      "inputs": [
        {
          "internalType": "address",
          "name": "_authorizedSigner",
          "type": "address"
        }
      ],
      "name": "setAuthorizedSigner",
      "outputs": [],
      "stateMutability": "nonpayable",
      "type": "function"
    }
  ],
  "bytecode": {
    "object": "0x608060405234801561001057600080fd5b5060405161055738038061055783398101604081905261002f91610062565b60008054336001600160a01b031991821617909155600280549091166001600160a01b0392909216919091179055610092565b60006020828403121561007457600080fd5b81516001600160a01b038116811461008b57600080fd5b9392505050565b6104b6806100a16000396000f3fe608060405234801561001057600080fd5b50600436106100575760003560e01c80637ecebe001461005c5780638da5cb5b1461008f578063c771909c146100ba578063d279b0ca146100cd578063f0fe0b89146100e2575b600080fd5b61007c61006a3660046103f2565b60016020526000908152604090205481565b6040519081526020015b60405180910390f35b6000546100a2906001600160a01b031681565b6040516001600160a01b039091168152602001610086565b6002546100a2906001600160a01b031681565b6100e06100db3660046103f2565b6100f5565b005b6100e06100f0366004610414565b610182565b6000546001600160a01b031633146101605760405162461bcd60e51b8152602060048201526024808201527f4f6e6c79206f776e65722063616e2073657420617574686f72697a656420736960448201526333b732b960e11b60648201526084015b60405180910390fd5b600280546001600160a01b0319166001600160a01b0392909216919091179055565b8342106101c55760405162461bcd60e51b815260206004820152601160248201527014da59db985d1d5c9948195e1c1a5c9959607a1b6044820152606401610157565b6001600160a01b038716600090815260016020526040902054851161021c5760405162461bcd60e51b815260206004820152600d60248201526c496e76616c6964206e6f6e636560981b6044820152606401610157565b6040516bffffffffffffffffffffffff19606089901b1660208201526034810187905260548101869052607481018590526000906094016040516020818303038152906040528051906020012090506000816040516020016102aa91907f19457468657265756d205369676e6564204d6573736167653a0a3332000000008152601c810191909152603c0190565b60408051601f198184030181528282528051602091820120600080855291840180845281905260ff89169284019290925260608301879052608083018690529092509060019060a0016020604051602081039080840390855afa158015610315573d6000803e3d6000fd5b5050604051601f1901516002549092506001600160a01b0380841691161490506103755760405162461bcd60e51b8152602060048201526011602482015270496e76616c6964207369676e617475726560781b6044820152606401610157565b6001600160a01b038a16600081815260016020526040908190208a9055517f106f923f993c2149d49b4255ff723acafa1f2d94393f561d3eda32ae348f7241906103c2908c815260200190565b60405180910390a250505050505050505050565b80356001600160a01b03811681146103ed57600080fd5b919050565b60006020828403121561040457600080fd5b61040d826103d6565b9392505050565b600080600080600080600060e0888a03121561042f57600080fd5b610438886103d6565b9650602088013595506040880135945060608801359350608088013560ff8116811461046357600080fd5b9699959850939692959460a0840135945060c0909301359291505056fea2646970667358221220cce452e768649d803186fa20cff46844e8a6f3ed86fdcd9da995cb76f192e61d64736f6c63430008140033",
    "linkReferences": {}
  },
  "methodIdentifiers": {
    "authorizedSigner()": "c771909c",
    "claimReward(address,uint256,uint256,uint256,uint8,bytes32,bytes32)": "f0fe0b89",
    "nonces(address)": "7ecebe00",
    "owner()": "8da5cb5b",
    "setAuthorizedSigner(address)": "d279b0ca"
  },
  "id": 39
}