{
  "abi": [
    {
      "inputs": [
        {
          "internalType": "string",
          "name": "_name",
          "type": "string"
        },
        {
          "internalType": "uint256",
          "name": "_maxCap",
          "type": "uint256"
        },
        {
          "internalType": "uint256",
          "name": "_saleStart",
          "type": "uint256"
        },
        {
          "internalType": "uint256",
          "name": "_saleEnd",
          "type": "uint256"
        },
        {
          "internalType": "uint256",
          "name": "_noOfTiers",
          "type": "uint256"
        },
        {
          "internalType": "address",
          "name": "_projectOwner",
          "type": "address"
        },
        {
          "internalType": "address",
          "name": "_tokenAddress",
          "type": "address"
        },
        {
          "internalType": "uint256",
          "name": "_totalUsers",
          "type": "uint256"
        },
        {
          "internalType": "uint8",
          "name": "_phaseNo",
          "type": "uint8"
        }
      ],
      "stateMutability": "nonpayable",
      "type": "constructor"
    },
    {
      "anonymous": false,
      "inputs": [
        {
          "indexed": true,
          "internalType": "address",
          "name": "previousOwner",
          "type": "address"
        },
        {
          "indexed": true,
          "internalType": "address",
          "name": "newOwner",
          "type": "address"
        }
      ],
      "name": "OwnershipTransferred",
      "type": "event"
    },
    {
      "anonymous": false,
      "inputs": [
        {
          "indexed": false,
          "internalType": "address",
          "name": "account",
          "type": "address"
        }
      ],
      "name": "Paused",
      "type": "event"
    },
    {
      "anonymous": false,
      "inputs": [
        {
          "indexed": false,
          "internalType": "address",
          "name": "account",
          "type": "address"
        }
      ],
      "name": "Unpaused",
      "type": "event"
    },
    {
      "anonymous": false,
      "inputs": [
        {
          "indexed": true,
          "internalType": "address",
          "name": "user",
          "type": "address"
        },
        {
          "indexed": false,
          "internalType": "uint256",
          "name": "amount",
          "type": "uint256"
        },
        {
          "indexed": true,
          "internalType": "uint8",
          "name": "phase",
          "type": "uint8"
        }
      ],
      "name": "UserInvestment",
      "type": "event"
    },
    {
      "inputs": [],
      "name": "ERC20Interface",
      "outputs": [
        {
          "internalType": "contract IERC20",
          "name": "",
          "type": "address"
        }
      ],
      "stateMutability": "view",
      "type": "function"
    },
    {
      "inputs": [
        {
          "internalType": "uint256",
          "name": "amount",
          "type": "uint256"
        },
        {
          "internalType": "uint256",
          "name": "userTier",
          "type": "uint256"
        },
        {
          "internalType": "bytes32[]",
          "name": "proof",
          "type": "bytes32[]"
        }
      ],
      "name": "buyTokens",
      "outputs": [
        {
          "internalType": "bool",
          "name": "",
          "type": "bool"
        }
      ],
      "stateMutability": "nonpayable",
      "type": "function"
    },
    {
      "inputs": [],
      "name": "maxCap",
      "outputs": [
        {
          "internalType": "uint256",
          "name": "",
          "type": "uint256"
        }
      ],
      "stateMutability": "view",
      "type": "function"
    },
    {
      "inputs": [],
      "name": "name",
      "outputs": [
        {
          "internalType": "string",
          "name": "",
          "type": "string"
        }
      ],
      "stateMutability": "view",
      "type": "function"
    },
    {
      "inputs": [],
      "name": "noOfTiers",
      "outputs": [
        {
          "internalType": "uint256",
          "name": "",
          "type": "uint256"
        }
      ],
      "stateMutability": "view",
      "type": "function"
    },
    {
      "inputs": [],
      "name": "owner",
      "outputs": [
        {
          "internalType": "address",
          "name": "",
          "type": "address"
        }
      ],
      "stateMutability": "view",
      "type": "function"
    },
    {
      "inputs": [],
      "name": "pause",
      "outputs": [],
      "stateMutability": "nonpayable",
      "type": "function"
    },
    {
      "inputs": [],
      "name": "paused",
      "outputs": [
        {
          "internalType": "bool",
          "name": "",
          "type": "bool"
        }
      ],
      "stateMutability": "view",
      "type": "function"
    },
    {
      "inputs": [],
      "name": "phaseNo",
      "outputs": [
        {
          "internalType": "uint8",
          "name": "",
          "type": "uint8"
        }
      ],
      "stateMutability": "view",
      "type": "function"
    },
    {
      "inputs": [],
      "name": "projectOwner",
      "outputs": [
        {
          "internalType": "address",
          "name": "",
          "type": "address"
        }
      ],
      "stateMutability": "view",
      "type": "function"
    },
    {
      "inputs": [],
      "name": "renounceOwnership",
      "outputs": [],
      "stateMutability": "nonpayable",
      "type": "function"
    },
    {
      "inputs": [],
      "name": "rootHash",
      "outputs": [
        {
          "internalType": "bytes32",
          "name": "",
          "type": "bytes32"
        }
      ],
      "stateMutability": "view",
      "type": "function"
    },
    {
      "inputs": [],
      "name": "saleEnd",
      "outputs": [
        {
          "internalType": "uint256",
          "name": "",
          "type": "uint256"
        }
      ],
      "stateMutability": "view",
      "type": "function"
    },
    {
      "inputs": [],
      "name": "saleStart",
      "outputs": [
        {
          "internalType": "uint256",
          "name": "",
          "type": "uint256"
        }
      ],
      "stateMutability": "view",
      "type": "function"
    },
    {
      "inputs": [
        {
          "internalType": "uint256",
          "name": "",
          "type": "uint256"
        }
      ],
      "name": "tierDetails",
      "outputs": [
        {
          "internalType": "uint256",
          "name": "maxTierCap",
          "type": "uint256"
        },
        {
          "internalType": "uint256",
          "name": "minUserCap",
          "type": "uint256"
        },
        {
          "internalType": "uint256",
          "name": "maxUserCap",
          "type": "uint256"
        },
        {
          "internalType": "uint256",
          "name": "amountRaised",
          "type": "uint256"
        },
        {
          "internalType": "uint256",
          "name": "users",
          "type": "uint256"
        }
      ],
      "stateMutability": "view",
      "type": "function"
    },
    {
      "inputs": [],
      "name": "tokenAddress",
      "outputs": [
        {
          "internalType": "address",
          "name": "",
          "type": "address"
        }
      ],
      "stateMutability": "view",
      "type": "function"
    },
    {
      "inputs": [],
      "name": "totalBUSDReceivedInAllTier",
      "outputs": [
        {
          "internalType": "uint256",
          "name": "",
          "type": "uint256"
        }
      ],
      "stateMutability": "view",
      "type": "function"
    },
    {
      "inputs": [],
      "name": "totalUsers",
      "outputs": [
        {
          "internalType": "uint256",
          "name": "",
          "type": "uint256"
        }
      ],
      "stateMutability": "view",
      "type": "function"
    },
    {
      "inputs": [
        {
          "internalType": "address",
          "name": "newOwner",
          "type": "address"
        }
      ],
      "name": "transferOwnership",
      "outputs": [],
      "stateMutability": "nonpayable",
      "type": "function"
    },
    {
      "inputs": [],
      "name": "unpause",
      "outputs": [],
      "stateMutability": "nonpayable",
      "type": "function"
    },
    {
      "inputs": [
        {
          "internalType": "uint256",
          "name": "newSaleEnd",
          "type": "uint256"
        }
      ],
      "name": "updateEndTime",
      "outputs": [],
      "stateMutability": "nonpayable",
      "type": "function"
    },
    {
      "inputs": [
        {
          "internalType": "bytes32",
          "name": "_hash",
          "type": "bytes32"
        }
      ],
      "name": "updateHash",
      "outputs": [],
      "stateMutability": "nonpayable",
      "type": "function"
    },
    {
      "inputs": [
        {
          "internalType": "uint256",
          "name": "_maxCap",
          "type": "uint256"
        }
      ],
      "name": "updateMaxCap",
      "outputs": [],
      "stateMutability": "nonpayable",
      "type": "function"
    },
    {
      "inputs": [
        {
          "internalType": "uint256",
          "name": "newsaleStart",
          "type": "uint256"
        }
      ],
      "name": "updateStartTime",
      "outputs": [],
      "stateMutability": "nonpayable",
      "type": "function"
    },
    {
      "inputs": [
        {
          "internalType": "uint256[]",
          "name": "_tier",
          "type": "uint256[]"
        },
        {
          "internalType": "uint256[]",
          "name": "_maxTierCap",
          "type": "uint256[]"
        },
        {
          "internalType": "uint256[]",
          "name": "_minUserCap",
          "type": "uint256[]"
        },
        {
          "internalType": "uint256[]",
          "name": "_maxUserCap",
          "type": "uint256[]"
        },
        {
          "internalType": "uint256[]",
          "name": "_tierUsers",
          "type": "uint256[]"
        }
      ],
      "name": "updateTiers",
      "outputs": [],
      "stateMutability": "nonpayable",
      "type": "function"
    },
    {
      "inputs": [
        {
          "internalType": "address",
          "name": "",
          "type": "address"
        }
      ],
      "name": "userDetails",
      "outputs": [
        {
          "internalType": "uint256",
          "name": "tier",
          "type": "uint256"
        },
        {
          "internalType": "uint256",
          "name": "investedAmount",
          "type": "uint256"
        }
      ],
      "stateMutability": "view",
      "type": "function"
    },
    {
      "inputs": [
        {
          "internalType": "address",
          "name": "_wallet",
          "type": "address"
        },
        {
          "internalType": "uint256",
          "name": "_tier",
          "type": "uint256"
        },
        {
          "internalType": "bytes32[]",
          "name": "proof",
          "type": "bytes32[]"
        },
        {
          "internalType": "bytes32",
          "name": "_rootHash",
          "type": "bytes32"
        }
      ],
      "name": "verify",
      "outputs": [
        {
          "internalType": "bool",
          "name": "",
          "type": "bool"
        }
      ],
      "stateMutability": "view",
      "type": "function"
    }
  ],
  "bytecode": {
    "object": "0x60a06040523480156200001157600080fd5b5060405162001d8038038062001d80833981016040819052620000349162000312565b6200003f336200027d565b6000805460ff60a01b1916905560016200005a8a82620004df565b5060008811620000a05760405162461bcd60e51b815260206004820152600c60248201526b05a65726f206d6178206361760a41b60448201526064015b60405180910390fd5b60028890554287118015620000b457508686115b620000f45760405162461bcd60e51b815260206004820152600f60248201526e496e76616c69642074696d696e677360881b604482015260640162000097565b60038790556004869055846200013a5760405162461bcd60e51b815260206004820152600a6024820152695a65726f20746965727360b01b604482015260640162000097565b60068590556001600160a01b038416620001975760405162461bcd60e51b815260206004820152601a60248201527f5a65726f2070726f6a656374206f776e65722061646472657373000000000000604482015260640162000097565b600880546001600160a01b0319166001600160a01b03868116919091179091558316620001fc5760405162461bcd60e51b81526020600482015260126024820152715a65726f20746f6b656e206164647265737360701b604482015260640162000097565b600980546001600160a01b0385166001600160a01b03199182168117909255600a8054909116909117905581620002635760405162461bcd60e51b815260206004820152600a6024820152695a65726f20757365727360b01b604482015260640162000097565b60079190915560ff1660805250620005ab95505050505050565b600080546001600160a01b038381166001600160a01b0319831681178455604051919092169283917f8be0079c531659141344cd1fd0a4f28419497f9722a3daafe3b4186f6b6457e09190a35050565b634e487b7160e01b600052604160045260246000fd5b80516001600160a01b0381168114620002fb57600080fd5b919050565b805160ff81168114620002fb57600080fd5b60008060008060008060008060006101208a8c0312156200033257600080fd5b89516001600160401b03808211156200034a57600080fd5b818c0191508c601f8301126200035f57600080fd5b815181811115620003745762000374620002cd565b604051601f8201601f19908116603f011681019083821181831017156200039f576200039f620002cd565b81604052828152602093508f84848701011115620003bc57600080fd5b600091505b82821015620003e05784820184015181830185015290830190620003c1565b6000848483010152809d50505050808c01519950505060408a0151965060608a0151955060808a015194506200041960a08b01620002e3565b93506200042960c08b01620002e3565b925060e08a01519150620004416101008b0162000300565b90509295985092959850929598565b600181811c908216806200046557607f821691505b6020821081036200048657634e487b7160e01b600052602260045260246000fd5b50919050565b601f821115620004da57600081815260208120601f850160051c81016020861015620004b55750805b601f850160051c820191505b81811015620004d657828155600101620004c1565b5050505b505050565b81516001600160401b03811115620004fb57620004fb620002cd565b62000513816200050c845462000450565b846200048c565b602080601f8311600181146200054b5760008415620005325750858301515b600019600386901b1c1916600185901b178555620004d6565b600085815260208120601f198616915b828110156200057c578886015182559484019460019091019084016200055b565b50858210156200059b5787850151600019600388901b60f8161c191681555b5050505050600190811b01905550565b6080516117b2620005ce600039600081816102f601526109ae01526117b26000f3fe608060405234801561001057600080fd5b50600436106101a95760003560e01c806371283088116100f9578063ab0bcc4111610097578063dd30105711610071578063dd30105714610395578063e81ba0801461039e578063f2fde38b146103b1578063f75c1b98146103c457600080fd5b8063ab0bcc411461037a578063bff1f9e114610383578063c10b93581461038c57600080fd5b80638cb37ab2116100d35780638cb37ab21461033a5780638da5cb5b146103435780639d76ea5814610354578063a4475ce41461036757600080fd5b806371283088146102f1578063715018a61461032a5780638456cb591461033257600080fd5b80633f4ba83a116101665780634bc14a56116101405780634bc14a56146102a65780635c975abb146102b957806362dd5f38146102cb5780636ab3846b146102de57600080fd5b80633f4ba83a1461024f578063438114d01461025757806348dec2a71461026a57600080fd5b806306bcf02f146101ae57806306fdde03146101c35780631bbc4b83146101e15780631d80009a1461020c57806323548b8b146102235780633af98d391461022c575b600080fd5b6101c16101bc366004611351565b610429565b005b6101cb6104a9565b6040516101d8919061136a565b60405180910390f35b600a546101f4906001600160a01b031681565b6040516001600160a01b0390911681526020016101d8565b610215600b5481565b6040519081526020016101d8565b61021560025481565b61023f61023a366004611404565b610537565b60405190151581526020016101d8565b6101c1610a0d565b6101c1610265366004611351565b610a41565b610291610278366004611473565b600d602052600090815260409020805460019091015482565b604080519283526020830191909152016101d8565b61023f6102b4366004611495565b610a70565b600054600160a01b900460ff1661023f565b6101c16102d93660046115a8565b610af8565b6101c16102ec366004611351565b610e57565b6103187f000000000000000000000000000000000000000000000000000000000000000081565b60405160ff90911681526020016101d8565b6101c1610ef1565b6101c1610f25565b61021560055481565b6000546001600160a01b03166101f4565b6009546101f4906001600160a01b031681565b6008546101f4906001600160a01b031681565b61021560035481565b61021560075481565b61021560045481565b61021560065481565b6101c16103ac366004611351565b610f57565b6101c16103bf366004611473565b610fc5565b6104016103d2366004611351565b600c60205260009081526040902080546001820154600283015460038401546004909401549293919290919085565b604080519586526020860194909452928401919091526060830152608082015260a0016101d8565b6000546001600160a01b0316331461045c5760405162461bcd60e51b81526004016104539061167a565b60405180910390fd5b60035442106104a45760405162461bcd60e51b815260206004820152601460248201527314d85b1948185b1c9958591e481cdd185c9d195960621b6044820152606401610453565b600355565b600180546104b6906116af565b80601f01602080910402602001604051908101604052809291908181526020018280546104e2906116af565b801561052f5780601f106105045761010080835404028352916020019161052f565b820191906000526020600020905b81548152906001019060200180831161051257829003601f168201915b505050505081565b60008054600160a01b900460ff16156105855760405162461bcd60e51b815260206004820152601060248201526f14185d5cd8589b194e881c185d5cd95960821b6044820152606401610453565b600a54604051636eb1769f60e11b815233600482018190523060248301529187916000916001600160a01b03169063dd62ed3e90604401602060405180830381865afa1580156105d9573d6000803e3d6000fd5b505050506040513d601f19601f820116820180604052508101906105fd91906116e9565b9050808211156106595760405162461bcd60e51b815260206004820152602160248201527f4d616b65207375726520746f2061646420656e6f75676820616c6c6f77616e636044820152606560f81b6064820152608401610453565b61066833888888600b54610a70565b6106ad5760405162461bcd60e51b8152602060048201526016602482015275155cd95c881b9bdd08185d5d1a195b9d1a58d85d195960521b6044820152606401610453565b6003544210156106f65760405162461bcd60e51b815260206004820152601460248201527314d85b19481b9bdd081cdd185c9d1959081e595d60621b6044820152606401610453565b6004544211156107355760405162461bcd60e51b815260206004820152600a60248201526914d85b1948115b99195960b21b6044820152606401610453565b600254600554610745908a611060565b111561078a5760405162461bcd60e51b815260206004820152601460248201527304578636565647320706f6f6c206d6178206361760641b6044820152606401610453565b60008711801561079c57506006548711155b6107df5760405162461bcd60e51b8152602060048201526014602482015273155cd95c881b9bdd081dda1a5d195b1a5cdd195960621b6044820152606401610453565b336000908152600d60205260408120600101546107fd908a90611060565b6000898152600c60205260409020600101549091508110156108615760405162461bcd60e51b815260206004820152601d60248201527f416d6f756e74206c657373207468616e2075736572206d696e206361700000006044820152606401610453565b6000888152600c60205260409020600201548111156108c25760405162461bcd60e51b815260206004820181905260248201527f416d6f756e742067726561746572207468616e2075736572206d6178206361706044820152606401610453565b6000888152600c602052604090205481111561092c5760405162461bcd60e51b8152602060048201526024808201527f416d6f756e742067726561746572207468616e207468652074696572206d61786044820152630206361760e41b6064820152608401610453565b600554610939908a611060565b6005556000888152600c6020526040902060030154610958908a611060565b6000898152600c602090815260408083206003019390935533808352600d909152919020898155600101829055600854600a546109a4926001600160a01b03918216929091168c6110c8565b60405181815260ff7f0000000000000000000000000000000000000000000000000000000000000000169033907fa6c963db73174350c08b882c2b6c89902dccdfdb463a6f6fe06659a0320b7a339060200160405180910390a350600198975050505050505050565b6000546001600160a01b03163314610a375760405162461bcd60e51b81526004016104539061167a565b610a3f611152565b565b6000546001600160a01b03163314610a6b5760405162461bcd60e51b81526004016104539061167a565b600b55565b6000610aee84848080602002602001604051908101604052809392919081815260200183836020028082843760009201919091525050604080516001600160a01b038c1660208201529081018a905246606082015230608082015286925060a0019050604051602081830303815290604052805190602001206111ef565b9695505050505050565b6000546001600160a01b03163314610b225760405162461bcd60e51b81526004016104539061167a565b83518551148015610b34575082518451145b8015610b41575081518351145b8015610b4e575080518251145b610b8d5760405162461bcd60e51b815260206004820152601060248201526f098cadccee8d0e640dad2e6dac2e8c6d60831b6044820152606401610453565b60005b8551811015610e4f576000868281518110610bad57610bad611702565b6020026020010151118015610bdd5750600654868281518110610bd257610bd2611702565b602002602001015111155b610c1f5760405162461bcd60e51b815260206004820152601360248201527224b73b30b634b2103a34b2b910373ab6b132b960691b6044820152606401610453565b6000858281518110610c3357610c33611702565b602002602001015111610c885760405162461bcd60e51b815260206004820152601b60248201527f496e76616c6964206d617820746965722063617020616d6f756e7400000000006044820152606401610453565b6000838281518110610c9c57610c9c611702565b602002602001015111610cf15760405162461bcd60e51b815260206004820152601b60248201527f496e76616c6964206d617820757365722063617020616d6f756e7400000000006044820152606401610453565b6000828281518110610d0557610d05611702565b602002602001015111610d4f5760405162461bcd60e51b81526020600482015260126024820152712d32b937903ab9b2b9399034b7103a34b2b960711b6044820152606401610453565b6040518060a00160405280868381518110610d6c57610d6c611702565b60200260200101518152602001858381518110610d8b57610d8b611702565b60200260200101518152602001848381518110610daa57610daa611702565b6020026020010151815260200160008152602001838381518110610dd057610dd0611702565b6020026020010151815250600c6000888481518110610df157610df1611702565b6020026020010151815260200190815260200160002060008201518160000155602082015181600101556040820151816002015560608201518160030155608082015181600401559050508080610e479061172e565b915050610b90565b505050505050565b6000546001600160a01b03163314610e815760405162461bcd60e51b81526004016104539061167a565b60035481118015610e9157504281115b610eec5760405162461bcd60e51b815260206004820152602660248201527f53616c6520656e642063616e2774206265206c657373207468616e2073616c65604482015265081cdd185c9d60d21b6064820152608401610453565b600455565b6000546001600160a01b03163314610f1b5760405162461bcd60e51b81526004016104539061167a565b610a3f6000611205565b6000546001600160a01b03163314610f4f5760405162461bcd60e51b81526004016104539061167a565b610a3f611255565b6000546001600160a01b03163314610f815760405162461bcd60e51b81526004016104539061167a565b60008111610fc05760405162461bcd60e51b815260206004820152600c60248201526b05a65726f206d6178206361760a41b6044820152606401610453565b600255565b6000546001600160a01b03163314610fef5760405162461bcd60e51b81526004016104539061167a565b6001600160a01b0381166110545760405162461bcd60e51b815260206004820152602660248201527f4f776e61626c653a206e6577206f776e657220697320746865207a65726f206160448201526564647265737360d01b6064820152608401610453565b61105d81611205565b50565b60008061106d8385611747565b9050838110156110bf5760405162461bcd60e51b815260206004820152601b60248201527f536166654d6174683a206164646974696f6e206f766572666c6f7700000000006044820152606401610453565b90505b92915050565b6040516323b872dd60e01b81526001600160a01b0384811660048301528381166024830152604482018390528516906323b872dd906064016020604051808303816000875af115801561111f573d6000803e3d6000fd5b505050506040513d601f19601f82011682018060405250810190611143919061175a565b61114c57600080fd5b50505050565b600054600160a01b900460ff166111a25760405162461bcd60e51b815260206004820152601460248201527314185d5cd8589b194e881b9bdd081c185d5cd95960621b6044820152606401610453565b6000805460ff60a01b191690557f5db9ee0a495bf2e6ff9c91a7834c1ba4fdd244a5e8aa4e537bd38aeae4b073aa335b6040516001600160a01b03909116815260200160405180910390a1565b6000826111fc85846112dd565b14949350505050565b600080546001600160a01b038381166001600160a01b0319831681178455604051919092169283917f8be0079c531659141344cd1fd0a4f28419497f9722a3daafe3b4186f6b6457e09190a35050565b600054600160a01b900460ff16156112a25760405162461bcd60e51b815260206004820152601060248201526f14185d5cd8589b194e881c185d5cd95960821b6044820152606401610453565b6000805460ff60a01b1916600160a01b1790557f62e78cea01bee320cd4e420270b5ea74000d11b0c9f74754ebdbfc544b05a2586111d23390565b600081815b84518110156113495760008582815181106112ff576112ff611702565b602002602001015190508083116113255760008381526020829052604090209250611336565b600081815260208490526040902092505b50806113418161172e565b9150506112e2565b509392505050565b60006020828403121561136357600080fd5b5035919050565b600060208083528351808285015260005b818110156113975785810183015185820160400152820161137b565b506000604082860101526040601f19601f8301168501019250505092915050565b60008083601f8401126113ca57600080fd5b50813567ffffffffffffffff8111156113e257600080fd5b6020830191508360208260051b85010111156113fd57600080fd5b9250929050565b6000806000806060858703121561141a57600080fd5b8435935060208501359250604085013567ffffffffffffffff81111561143f57600080fd5b61144b878288016113b8565b95989497509550505050565b80356001600160a01b038116811461146e57600080fd5b919050565b60006020828403121561148557600080fd5b61148e82611457565b9392505050565b6000806000806000608086880312156114ad57600080fd5b6114b686611457565b945060208601359350604086013567ffffffffffffffff8111156114d957600080fd5b6114e5888289016113b8565b96999598509660600135949350505050565b634e487b7160e01b600052604160045260246000fd5b600082601f83011261151e57600080fd5b8135602067ffffffffffffffff8083111561153b5761153b6114f7565b8260051b604051601f19603f83011681018181108482111715611560576115606114f7565b60405293845285810183019383810192508785111561157e57600080fd5b83870191505b8482101561159d57813583529183019190830190611584565b979650505050505050565b600080600080600060a086880312156115c057600080fd5b853567ffffffffffffffff808211156115d857600080fd5b6115e489838a0161150d565b965060208801359150808211156115fa57600080fd5b61160689838a0161150d565b9550604088013591508082111561161c57600080fd5b61162889838a0161150d565b9450606088013591508082111561163e57600080fd5b61164a89838a0161150d565b9350608088013591508082111561166057600080fd5b5061166d8882890161150d565b9150509295509295909350565b6020808252818101527f4f776e61626c653a2063616c6c6572206973206e6f7420746865206f776e6572604082015260600190565b600181811c908216806116c357607f821691505b6020821081036116e357634e487b7160e01b600052602260045260246000fd5b50919050565b6000602082840312156116fb57600080fd5b5051919050565b634e487b7160e01b600052603260045260246000fd5b634e487b7160e01b600052601160045260246000fd5b60006001820161174057611740611718565b5060010190565b808201808211156110c2576110c2611718565b60006020828403121561176c57600080fd5b815180151581146110bf57600080fdfea264697066735822122092298a67415908f161752714152fc26131afc4f7074394ca7d3439b5be31f27b64736f6c63430008140033",
    "linkReferences": {}
  },
  "methodIdentifiers": {
    "ERC20Interface()": "1bbc4b83",
    "buyTokens(uint256,uint256,bytes32[])": "3af98d39",
    "maxCap()": "23548b8b",
    "name()": "06fdde03",
    "noOfTiers()": "dd301057",
    "owner()": "8da5cb5b",
    "pause()": "8456cb59",
    "paused()": "5c975abb",
    "phaseNo()": "71283088",
    "projectOwner()": "a4475ce4",
    "renounceOwnership()": "715018a6",
    "rootHash()": "1d80009a",
    "saleEnd()": "c10b9358",
    "saleStart()": "ab0bcc41",
    "tierDetails(uint256)": "f75c1b98",
    "tokenAddress()": "9d76ea58",
    "totalBUSDReceivedInAllTier()": "8cb37ab2",
    "totalUsers()": "bff1f9e1",
    "transferOwnership(address)": "f2fde38b",
    "unpause()": "3f4ba83a",
    "updateEndTime(uint256)": "6ab3846b",
    "updateHash(bytes32)": "438114d0",
    "updateMaxCap(uint256)": "e81ba080",
    "updateStartTime(uint256)": "06bcf02f",
    "updateTiers(uint256[],uint256[],uint256[],uint256[],uint256[])": "62dd5f38",
    "userDetails(address)": "48dec2a7",
    "verify(address,uint256,bytes32[],bytes32)": "4bc14a56"
  },
  "id": 3
}