{
  "abi": [
    {
      "inputs": [
        {
          "internalType": "string",
          "name": "_text",
          "type": "string"
        }
      ],
      "name": "setText",
      "outputs": [],
      "stateMutability": "nonpayable",
      "type": "function"
    },
    {
      "inputs": [],
      "name": "text",
      "outputs": [
        {
          "internalType": "string",
          "name": "",
          "type": "string"
        }
      ],
      "stateMutability": "view",
      "type": "function"
    }
  ],
  "bytecode": {
    "object": "0x60c0604052600b60809081526a1a195b1b1bc81ddbdc9b1960aa1b60a05260009061002a90826100dc565b5034801561003757600080fd5b5061019b565b634e487b7160e01b600052604160045260246000fd5b600181811c9082168061006757607f821691505b60208210810361008757634e487b7160e01b600052602260045260246000fd5b50919050565b601f8211156100d757600081815260208120601f850160051c810160208610156100b45750805b601f850160051c820191505b818110156100d3578281556001016100c0565b5050505b505050565b81516001600160401b038111156100f5576100f561003d565b610109816101038454610053565b8461008d565b602080601f83116001811461013e57600084156101265750858301515b600019600386901b1c1916600185901b1785556100d3565b600085815260208120601f198616915b8281101561016d5788860151825594840194600190910190840161014e565b508582101561018b5787850151600019600388901b60f8161c191681555b5050505050600190811b01905550565b6103a0806101aa6000396000f3fe608060405234801561001057600080fd5b50600436106100365760003560e01c80631f1bd6921461003b5780635d3a1f9d14610059575b600080fd5b61004361006e565b604051610050919061010c565b60405180910390f35b61006c610067366004610170565b6100fc565b005b6000805461007b90610221565b80601f01602080910402602001604051908101604052809291908181526020018280546100a790610221565b80156100f45780601f106100c9576101008083540402835291602001916100f4565b820191906000526020600020905b8154815290600101906020018083116100d757829003601f168201915b505050505081565b600061010882826102aa565b5050565b600060208083528351808285015260005b818110156101395785810183015185820160400152820161011d565b506000604082860101526040601f19601f8301168501019250505092915050565b634e487b7160e01b600052604160045260246000fd5b60006020828403121561018257600080fd5b813567ffffffffffffffff8082111561019a57600080fd5b818401915084601f8301126101ae57600080fd5b8135818111156101c0576101c061015a565b604051601f8201601f19908116603f011681019083821181831017156101e8576101e861015a565b8160405282815287602084870101111561020157600080fd5b826020860160208301376000928101602001929092525095945050505050565b600181811c9082168061023557607f821691505b60208210810361025557634e487b7160e01b600052602260045260246000fd5b50919050565b601f8211156102a557600081815260208120601f850160051c810160208610156102825750805b601f850160051c820191505b818110156102a15782815560010161028e565b5050505b505050565b815167ffffffffffffffff8111156102c4576102c461015a565b6102d8816102d28454610221565b8461025b565b602080601f83116001811461030d57600084156102f55750858301515b600019600386901b1c1916600185901b1785556102a1565b600085815260208120601f198616915b8281101561033c5788860151825594840194600190910190840161031d565b508582101561035a5787850151600019600388901b60f8161c191681555b5050505050600190811b0190555056fea2646970667358221220acd5fc6e76385c481d50f1e545e2ed1f2bf03cf73d6663dc5b0814f2154caea864736f6c63430008140033",
    "linkReferences": {}
  },
  "methodIdentifiers": {
    "setText(string)": "5d3a1f9d",
    "text()": "1f1bd692"
  },
  "id": 38
}