{
  "abi": [
    {
      "inputs": [
        {
          "internalType": "address",
          "name": "_implementation",
          "type": "address"
        }
      ],
      "stateMutability": "nonpayable",
      "type": "constructor"
    },
    {
      "inputs": [],
      "name": "Create2EmptyBytecode",
      "type": "error"
    },
    {
      "inputs": [],
      "name": "Create2FailedDeployment",
      "type": "error"
    },
    {
      "anonymous": false,
      "inputs": [
        {
          "indexed": false,
          "internalType": "address",
          "name": "proxy",
          "type": "address"
        },
        {
          "indexed": false,
          "internalType": "string",
          "name": "name",
          "type": "string"
        },
        {
          "indexed": false,
          "internalType": "address",
          "name": "projectOwner",
          "type": "address"
        }
      ],
      "name": "LaunchpadDeployed",
      "type": "event"
    },
    {
      "anonymous": false,
      "inputs": [
        {
          "indexed": true,
          "internalType": "address",
          "name": "previousOwner",
          "type": "address"
        },
        {
          "indexed": true,
          "internalType": "address",
          "name": "newOwner",
          "type": "address"
        }
      ],
      "name": "OwnershipTransferred",
      "type": "event"
    },
    {
      "inputs": [
        {
          "internalType": "uint256",
          "name": "",
          "type": "uint256"
        }
      ],
      "name": "allLaunchpads",
      "outputs": [
        {
          "internalType": "address",
          "name": "",
          "type": "address"
        }
      ],
      "stateMutability": "view",
      "type": "function"
    },
    {
      "inputs": [
        {
          "internalType": "string",
          "name": "_name",
          "type": "string"
        },
        {
          "internalType": "uint256",
          "name": "_maxCap",
          "type": "uint256"
        },
        {
          "internalType": "uint256",
          "name": "_saleStart",
          "type": "uint256"
        },
        {
          "internalType": "uint256",
          "name": "_saleEnd",
          "type": "uint256"
        },
        {
          "internalType": "uint256",
          "name": "_noOfTiers",
          "type": "uint256"
        },
        {
          "internalType": "address",
          "name": "_projectOwner",
          "type": "address"
        },
        {
          "internalType": "address",
          "name": "_tokenAddress",
          "type": "address"
        },
        {
          "internalType": "uint8",
          "name": "_phaseNo",
          "type": "uint8"
        }
      ],
      "name": "deployClone",
      "outputs": [
        {
          "internalType": "address",
          "name": "",
          "type": "address"
        }
      ],
      "stateMutability": "nonpayable",
      "type": "function"
    },
    {
      "inputs": [
        {
          "internalType": "string",
          "name": "_name",
          "type": "string"
        },
        {
          "internalType": "uint256",
          "name": "_maxCap",
          "type": "uint256"
        },
        {
          "internalType": "uint256",
          "name": "_saleStart",
          "type": "uint256"
        },
        {
          "internalType": "uint256",
          "name": "_saleEnd",
          "type": "uint256"
        },
        {
          "internalType": "uint256",
          "name": "_noOfTiers",
          "type": "uint256"
        },
        {
          "internalType": "address",
          "name": "_projectOwner",
          "type": "address"
        },
        {
          "internalType": "address",
          "name": "_tokenAddress",
          "type": "address"
        },
        {
          "internalType": "uint8",
          "name": "_phaseNo",
          "type": "uint8"
        }
      ],
      "name": "deployWithCreate2",
      "outputs": [
        {
          "internalType": "address",
          "name": "launchpad",
          "type": "address"
        }
      ],
      "stateMutability": "payable",
      "type": "function"
    },
    {
      "inputs": [],
      "name": "getAllLaunchpadsLength",
      "outputs": [
        {
          "internalType": "uint256",
          "name": "",
          "type": "uint256"
        }
      ],
      "stateMutability": "view",
      "type": "function"
    },
    {
      "inputs": [],
      "name": "implementationContract",
      "outputs": [
        {
          "internalType": "address",
          "name": "",
          "type": "address"
        }
      ],
      "stateMutability": "view",
      "type": "function"
    },
    {
      "inputs": [],
      "name": "owner",
      "outputs": [
        {
          "internalType": "address",
          "name": "",
          "type": "address"
        }
      ],
      "stateMutability": "view",
      "type": "function"
    },
    {
      "inputs": [],
      "name": "renounceOwnership",
      "outputs": [],
      "stateMutability": "nonpayable",
      "type": "function"
    },
    {
      "inputs": [
        {
          "internalType": "address",
          "name": "newOwner",
          "type": "address"
        }
      ],
      "name": "transferOwnership",
      "outputs": [],
      "stateMutability": "nonpayable",
      "type": "function"
    },
    {
      "inputs": [
        {
          "internalType": "address",
          "name": "_implementation",
          "type": "address"
        }
      ],
      "name": "updateImplementation",
      "outputs": [],
      "stateMutability": "nonpayable",
      "type": "function"
    }
  ],
  "bytecode": {
    "object": "0x608060405234801561001057600080fd5b5060405161267438038061267483398101604081905261002f916100ad565b6100383361005d565b600280546001600160a01b0319166001600160a01b03929092169190911790556100dd565b600080546001600160a01b038381166001600160a01b0319831681178455604051919092169283917f8be0079c531659141344cd1fd0a4f28419497f9722a3daafe3b4186f6b6457e09190a35050565b6000602082840312156100bf57600080fd5b81516001600160a01b03811681146100d657600080fd5b9392505050565b612588806100ec6000396000f3fe6080604052600436106100865760003560e01c8063785c1c3911610059578063785c1c391461013a5780638da5cb5b1461014d57806399e7d0561461016b578063c5e60f241461018b578063f2fde38b146101ab57600080fd5b8063025b22bc1461008b57806304878bfb146100ca57806353aca078146100ed578063715018a614610125575b600080fd5b34801561009757600080fd5b506100c86100a6366004610675565b600280546001600160a01b0319166001600160a01b0392909216919091179055565b005b3480156100d657600080fd5b506001546040519081526020015b60405180910390f35b3480156100f957600080fd5b5061010d610108366004610697565b6101cb565b6040516001600160a01b0390911681526020016100e4565b34801561013157600080fd5b506100c86101f5565b61010d6101483660046106d7565b610260565b34801561015957600080fd5b506000546001600160a01b031661010d565b34801561017757600080fd5b5060025461010d906001600160a01b031681565b34801561019757600080fd5b5061010d6101a63660046106d7565b6103cf565b3480156101b757600080fd5b506100c86101c6366004610675565b610531565b600181815481106101db57600080fd5b6000918252602090912001546001600160a01b0316905081565b6000546001600160a01b031633146102545760405162461bcd60e51b815260206004820181905260248201527f4f776e61626c653a2063616c6c6572206973206e6f7420746865206f776e657260448201526064015b60405180910390fd5b61025e60006105fc565b565b600080604051806020016102739061064c565b6020820181038252601f19601f82011660405250905060008a8a8a8a8a8a8a8a6040516020016102aa989796959493929190610805565b604051602081830303815290604052805190602001209050808251602084016000f5604051636a235a3760e11b81529093506001600160a01b0384169063d446b46e90610309908e908e908e908e908e908e908e908e9060040161089f565b600060405180830381600087803b15801561032357600080fd5b505af1158015610337573d6000803e3d6000fd5b50506001805480820182556000919091527fb10e2d527612073b26eecdfd717e6a320cf44b4afac2b0732d9fcbe2b7fa0cf60180546001600160a01b0319166001600160a01b03871617905550506040517f4ad207009a5276c57bc489dd77c45a1e884f9de1ef46129e2b7a21d892d34d5f906103b99085908e908a906108f9565b60405180910390a1505098975050505050505050565b600254604051733d602d80600a3d3981f3363d3d373d3d3d363d7360601b815260609190911b6bffffffffffffffffffffffff1916601482018190526e5af43d82803e903d91602b57fd5bf360881b6028830152600091829060378183f0604051636a235a3760e11b81529092506001600160a01b038316915063d446b46e9061046b908e908e908e908e908e908e908e908e9060040161089f565b600060405180830381600087803b15801561048557600080fd5b505af1158015610499573d6000803e3d6000fd5b50506001805480820182556000919091527fb10e2d527612073b26eecdfd717e6a320cf44b4afac2b0732d9fcbe2b7fa0cf60180546001600160a01b0319166001600160a01b03851617905550506040517f4ad207009a5276c57bc489dd77c45a1e884f9de1ef46129e2b7a21d892d34d5f9061051b9083908e908a906108f9565b60405180910390a19a9950505050505050505050565b6000546001600160a01b0316331461058b5760405162461bcd60e51b815260206004820181905260248201527f4f776e61626c653a2063616c6c6572206973206e6f7420746865206f776e6572604482015260640161024b565b6001600160a01b0381166105f05760405162461bcd60e51b815260206004820152602660248201527f4f776e61626c653a206e6577206f776e657220697320746865207a65726f206160448201526564647265737360d01b606482015260840161024b565b6105f9816105fc565b50565b600080546001600160a01b038381166001600160a01b0319831681178455604051919092169283917f8be0079c531659141344cd1fd0a4f28419497f9722a3daafe3b4186f6b6457e09190a35050565b611c248061092f83390190565b80356001600160a01b038116811461067057600080fd5b919050565b60006020828403121561068757600080fd5b61069082610659565b9392505050565b6000602082840312156106a957600080fd5b5035919050565b634e487b7160e01b600052604160045260246000fd5b803560ff8116811461067057600080fd5b600080600080600080600080610100898b0312156106f457600080fd5b883567ffffffffffffffff8082111561070c57600080fd5b818b0191508b601f83011261072057600080fd5b813581811115610732576107326106b0565b604051601f8201601f19908116603f0116810190838211818310171561075a5761075a6106b0565b816040528281528e602084870101111561077357600080fd5b82602086016020830137600060208483010152809c505050505050602089013596506040890135955060608901359450608089013593506107b660a08a01610659565b92506107c460c08a01610659565b91506107d260e08a016106c6565b90509295985092959890939650565b60005b838110156107fc5781810151838201526020016107e4565b50506000910152565b60008951610817818460208e016107e1565b919091019788525060208701959095526040860193909352606080860192909252811b6bffffffffffffffffffffffff19908116608086015291901b16609483015260f81b6001600160f81b03191660a882015260a901919050565b6000815180845261088b8160208601602086016107e1565b601f01601f19169290920160200192915050565b60006101008083526108b38184018c610873565b602084019a909a5250506040810196909652606086019490945260808501929092526001600160a01b0390811660a08501521660c083015260ff1660e090910152919050565b600060018060a01b0380861683526060602084015261091b6060840186610873565b915080841660408401525094935050505056fe608060405234801561001057600080fd5b5061001a3361002c565b6000805460ff60a01b1916905561007c565b600080546001600160a01b038381166001600160a01b0319831681178455604051919092169283917f8be0079c531659141344cd1fd0a4f28419497f9722a3daafe3b4186f6b6457e09190a35050565b611b998061008b6000396000f3fe608060405234801561001057600080fd5b506004361061018e5760003560e01c8063715018a6116100de578063ab0bcc4111610097578063dd30105711610071578063dd30105714610369578063e81ba08014610372578063f2fde38b14610385578063f75c1b981461039857600080fd5b8063ab0bcc4114610344578063c10b93581461034d578063d446b46e1461035657600080fd5b8063715018a6146102f45780638456cb59146102fc5780638cb37ab2146103045780638da5cb5b1461030d5780639d76ea581461031e578063a4475ce41461033157600080fd5b8063392e53cd1161014b5780635c975abb116101255780635c975abb1461029657806362dd5f38146102a85780636ab3846b146102bb57806371283088146102ce57600080fd5b8063392e53cd1461023e5780633f4ba83a1461025257806348dec2a71461025a57600080fd5b806306bcf02f1461019357806306fdde03146101a85780631bbc4b83146101c65780631c713fa9146101f157806323548b8b146102045780633610724e1461021b575b600080fd5b6101a66101a1366004611550565b6103fd565b005b6101b061047d565b6040516101bd9190611569565b60405180910390f35b6009546101d9906001600160a01b031681565b6040516001600160a01b0390911681526020016101bd565b6101a66101ff3660046116a9565b61050b565b61020d60025481565b6040519081526020016101bd565b61022e610229366004611550565b610674565b60405190151581526020016101bd565b60005461022e90600160a81b900460ff1681565b6101a6610aea565b610281610268366004611769565b600b602052600090815260409020805460019091015482565b604080519283526020830191909152016101bd565b600054600160a01b900460ff1661022e565b6101a66102b636600461178b565b610b1e565b6101a66102c9366004611550565b610e7d565b6009546102e290600160a01b900460ff1681565b60405160ff90911681526020016101bd565b6101a6610f17565b6101a6610f4b565b61020d60055481565b6000546001600160a01b03166101d9565b6008546101d9906001600160a01b031681565b6007546101d9906001600160a01b031681565b61020d60035481565b61020d60045481565b6101a661036436600461186e565b610f7d565b61020d60065481565b6101a6610380366004611550565b6111e0565b6101a6610393366004611769565b61124e565b6103d56103a6366004611550565b600a60205260009081526040902080546001820154600283015460038401546004909401549293919290919085565b604080519586526020860194909452928401919091526060830152608082015260a0016101bd565b6000546001600160a01b031633146104305760405162461bcd60e51b81526004016104279061195b565b60405180910390fd5b60035442106104785760405162461bcd60e51b815260206004820152601460248201527314d85b1948185b1c9958591e481cdd185c9d195960621b6044820152606401610427565b600355565b6001805461048a90611990565b80601f01602080910402602001604051908101604052809291908181526020018280546104b690611990565b80156105035780601f106104d857610100808354040283529160200191610503565b820191906000526020600020905b8154815290600101906020018083116104e657829003601f168201915b505050505081565b6000546001600160a01b031633146105355760405162461bcd60e51b81526004016104279061195b565b805182511461057e5760405162461bcd60e51b8152602060048201526015602482015274082e4e4c2f240d8cadccee8d040dad2e6dac2e8c6d605b1b6044820152606401610427565b60005b825181101561066f57600082828151811061059e5761059e6119ca565b60200260200101511180156105ce57506006548282815181106105c3576105c36119ca565b602002602001015111155b6106095760405162461bcd60e51b815260206004820152600c60248201526b24b73b30b634b2103a34b2b960a11b6044820152606401610427565b81818151811061061b5761061b6119ca565b6020026020010151600b6000858481518110610639576106396119ca565b6020908102919091018101516001600160a01b031682528101919091526040016000205580610667816119f6565b915050610581565b505050565b60008054600160a01b900460ff16156106c25760405162461bcd60e51b815260206004820152601060248201526f14185d5cd8589b194e881c185d5cd95960821b6044820152606401610427565b600954604051636eb1769f60e11b815233600482018190523060248301529184916000916001600160a01b03169063dd62ed3e90604401602060405180830381865afa158015610716573d6000803e3d6000fd5b505050506040513d601f19601f8201168201806040525081019061073a9190611a0f565b9050808211156107965760405162461bcd60e51b815260206004820152602160248201527f4d616b65207375726520746f2061646420656e6f75676820616c6c6f77616e636044820152606560f81b6064820152608401610427565b6003544210156107df5760405162461bcd60e51b815260206004820152601460248201527314d85b19481b9bdd081cdd185c9d1959081e595d60621b6044820152606401610427565b60045442111561081e5760405162461bcd60e51b815260206004820152600a60248201526914d85b1948115b99195960b21b6044820152606401610427565b60025460055461082e90876112e9565b11156108735760405162461bcd60e51b815260206004820152601460248201527304578636565647320706f6f6c206d6178206361760641b6044820152606401610427565b336000908152600b6020526040902054801580159061089457506006548111155b6108d75760405162461bcd60e51b8152602060048201526014602482015273155cd95c881b9bdd081dda1a5d195b1a5cdd195960621b6044820152606401610427565b336000908152600b60205260408120600101546108f59088906112e9565b6000838152600a60205260409020600101549091508110156109595760405162461bcd60e51b815260206004820152601d60248201527f416d6f756e74206c657373207468616e2075736572206d696e206361700000006044820152606401610427565b6000828152600a60205260409020600201548111156109ba5760405162461bcd60e51b815260206004820181905260248201527f416d6f756e742067726561746572207468616e2075736572206d6178206361706044820152606401610427565b6000828152600a6020526040902054811115610a245760405162461bcd60e51b8152602060048201526024808201527f416d6f756e742067726561746572207468616e207468652074696572206d61786044820152630206361760e41b6064820152608401610427565b600554610a3190886112e9565b6005556000828152600a6020526040902060030154610a5090886112e9565b6000838152600a602090815260408083206003019390935533808352600b909152919020600101829055600754600954610a99926001600160a01b03918216929091168a611351565b600954604051828152600160a01b90910460ff169033907fa6c963db73174350c08b882c2b6c89902dccdfdb463a6f6fe06659a0320b7a339060200160405180910390a35060019695505050505050565b6000546001600160a01b03163314610b145760405162461bcd60e51b81526004016104279061195b565b610b1c6113db565b565b6000546001600160a01b03163314610b485760405162461bcd60e51b81526004016104279061195b565b83518551148015610b5a575082518451145b8015610b67575081518351145b8015610b74575080518251145b610bb35760405162461bcd60e51b815260206004820152601060248201526f098cadccee8d0e640dad2e6dac2e8c6d60831b6044820152606401610427565b60005b8551811015610e75576000868281518110610bd357610bd36119ca565b6020026020010151118015610c035750600654868281518110610bf857610bf86119ca565b602002602001015111155b610c455760405162461bcd60e51b815260206004820152601360248201527224b73b30b634b2103a34b2b910373ab6b132b960691b6044820152606401610427565b6000858281518110610c5957610c596119ca565b602002602001015111610cae5760405162461bcd60e51b815260206004820152601b60248201527f496e76616c6964206d617820746965722063617020616d6f756e7400000000006044820152606401610427565b6000838281518110610cc257610cc26119ca565b602002602001015111610d175760405162461bcd60e51b815260206004820152601b60248201527f496e76616c6964206d617820757365722063617020616d6f756e7400000000006044820152606401610427565b6000828281518110610d2b57610d2b6119ca565b602002602001015111610d755760405162461bcd60e51b81526020600482015260126024820152712d32b937903ab9b2b9399034b7103a34b2b960711b6044820152606401610427565b6040518060a00160405280868381518110610d9257610d926119ca565b60200260200101518152602001858381518110610db157610db16119ca565b60200260200101518152602001848381518110610dd057610dd06119ca565b6020026020010151815260200160008152602001838381518110610df657610df66119ca565b6020026020010151815250600a6000888481518110610e1757610e176119ca565b6020026020010151815260200190815260200160002060008201518160000155602082015181600101556040820151816002015560608201518160030155608082015181600401559050508080610e6d906119f6565b915050610bb6565b505050505050565b6000546001600160a01b03163314610ea75760405162461bcd60e51b81526004016104279061195b565b60035481118015610eb757504281115b610f125760405162461bcd60e51b815260206004820152602660248201527f53616c6520656e642063616e2774206265206c657373207468616e2073616c65604482015265081cdd185c9d60d21b6064820152608401610427565b600455565b6000546001600160a01b03163314610f415760405162461bcd60e51b81526004016104279061195b565b610b1c6000611478565b6000546001600160a01b03163314610f755760405162461bcd60e51b81526004016104279061195b565b610b1c6114c8565b600054600160a81b900460ff1615610fd75760405162461bcd60e51b815260206004820152601860248201527f425553444c61756e63687061643a20464f5242494444454e00000000000000006044820152606401610427565b6000805460ff60a81b1916600160a81b1790556001610ff68982611a6e565b50600087116110365760405162461bcd60e51b815260206004820152600c60248201526b05a65726f206d6178206361760a41b6044820152606401610427565b6002879055428611801561104957508585115b6110875760405162461bcd60e51b815260206004820152600f60248201526e496e76616c69642074696d696e677360881b6044820152606401610427565b60038690556004859055836110cb5760405162461bcd60e51b815260206004820152600a6024820152695a65726f20746965727360b01b6044820152606401610427565b60068490556001600160a01b0383166111265760405162461bcd60e51b815260206004820152601a60248201527f5a65726f2070726f6a656374206f776e657220616464726573730000000000006044820152606401610427565b600780546001600160a01b0319166001600160a01b03851690811790915561114d90611278565b6001600160a01b0382166111985760405162461bcd60e51b81526020600482015260126024820152715a65726f20746f6b656e206164647265737360701b6044820152606401610427565b600880546001600160a01b039093166001600160a01b0319909316831790556009805460ff909216600160a01b026001600160a81b0319909216909217179055505050505050565b6000546001600160a01b0316331461120a5760405162461bcd60e51b81526004016104279061195b565b600081116112495760405162461bcd60e51b815260206004820152600c60248201526b05a65726f206d6178206361760a41b6044820152606401610427565b600255565b6000546001600160a01b031633146112785760405162461bcd60e51b81526004016104279061195b565b6001600160a01b0381166112dd5760405162461bcd60e51b815260206004820152602660248201527f4f776e61626c653a206e6577206f776e657220697320746865207a65726f206160448201526564647265737360d01b6064820152608401610427565b6112e681611478565b50565b6000806112f68385611b2e565b9050838110156113485760405162461bcd60e51b815260206004820152601b60248201527f536166654d6174683a206164646974696f6e206f766572666c6f7700000000006044820152606401610427565b90505b92915050565b6040516323b872dd60e01b81526001600160a01b0384811660048301528381166024830152604482018390528516906323b872dd906064016020604051808303816000875af11580156113a8573d6000803e3d6000fd5b505050506040513d601f19601f820116820180604052508101906113cc9190611b41565b6113d557600080fd5b50505050565b600054600160a01b900460ff1661142b5760405162461bcd60e51b815260206004820152601460248201527314185d5cd8589b194e881b9bdd081c185d5cd95960621b6044820152606401610427565b6000805460ff60a01b191690557f5db9ee0a495bf2e6ff9c91a7834c1ba4fdd244a5e8aa4e537bd38aeae4b073aa335b6040516001600160a01b03909116815260200160405180910390a1565b600080546001600160a01b038381166001600160a01b0319831681178455604051919092169283917f8be0079c531659141344cd1fd0a4f28419497f9722a3daafe3b4186f6b6457e09190a35050565b600054600160a01b900460ff16156115155760405162461bcd60e51b815260206004820152601060248201526f14185d5cd8589b194e881c185d5cd95960821b6044820152606401610427565b6000805460ff60a01b1916600160a01b1790557f62e78cea01bee320cd4e420270b5ea74000d11b0c9f74754ebdbfc544b05a25861145b3390565b60006020828403121561156257600080fd5b5035919050565b600060208083528351808285015260005b818110156115965785810183015185820160400152820161157a565b506000604082860101526040601f19601f8301168501019250505092915050565b634e487b7160e01b600052604160045260246000fd5b604051601f8201601f1916810167ffffffffffffffff811182821017156115f6576115f66115b7565b604052919050565b600067ffffffffffffffff821115611618576116186115b7565b5060051b60200190565b80356001600160a01b038116811461163957600080fd5b919050565b600082601f83011261164f57600080fd5b8135602061166461165f836115fe565b6115cd565b82815260059290921b8401810191818101908684111561168357600080fd5b8286015b8481101561169e5780358352918301918301611687565b509695505050505050565b600080604083850312156116bc57600080fd5b823567ffffffffffffffff808211156116d457600080fd5b818501915085601f8301126116e857600080fd5b813560206116f861165f836115fe565b82815260059290921b8401810191818101908984111561171757600080fd5b948201945b8386101561173c5761172d86611622565b8252948201949082019061171c565b9650508601359250508082111561175257600080fd5b5061175f8582860161163e565b9150509250929050565b60006020828403121561177b57600080fd5b61178482611622565b9392505050565b600080600080600060a086880312156117a357600080fd5b853567ffffffffffffffff808211156117bb57600080fd5b6117c789838a0161163e565b965060208801359150808211156117dd57600080fd5b6117e989838a0161163e565b955060408801359150808211156117ff57600080fd5b61180b89838a0161163e565b9450606088013591508082111561182157600080fd5b61182d89838a0161163e565b9350608088013591508082111561184357600080fd5b506118508882890161163e565b9150509295509295909350565b803560ff8116811461163957600080fd5b600080600080600080600080610100898b03121561188b57600080fd5b883567ffffffffffffffff808211156118a357600080fd5b818b0191508b601f8301126118b757600080fd5b81356020828211156118cb576118cb6115b7565b6118dd601f8301601f191682016115cd565b92508183528d818386010111156118f357600080fd5b818185018285013760009183018101919091529099508a013597505060408901359550606089013594506080890135935061193060a08a01611622565b925061193e60c08a01611622565b915061194c60e08a0161185d565b90509295985092959890939650565b6020808252818101527f4f776e61626c653a2063616c6c6572206973206e6f7420746865206f776e6572604082015260600190565b600181811c908216806119a457607f821691505b6020821081036119c457634e487b7160e01b600052602260045260246000fd5b50919050565b634e487b7160e01b600052603260045260246000fd5b634e487b7160e01b600052601160045260246000fd5b600060018201611a0857611a086119e0565b5060010190565b600060208284031215611a2157600080fd5b5051919050565b601f82111561066f57600081815260208120601f850160051c81016020861015611a4f5750805b601f850160051c820191505b81811015610e7557828155600101611a5b565b815167ffffffffffffffff811115611a8857611a886115b7565b611a9c81611a968454611990565b84611a28565b602080601f831160018114611ad15760008415611ab95750858301515b600019600386901b1c1916600185901b178555610e75565b600085815260208120601f198616915b82811015611b0057888601518255948401946001909101908401611ae1565b5085821015611b1e5787850151600019600388901b60f8161c191681555b5050505050600190811b01905550565b8082018082111561134b5761134b6119e0565b600060208284031215611b5357600080fd5b8151801515811461134857600080fdfea26469706673582212206459026831005cf56a73a2576907aa53bfc6981694f5908334fdcdcb5bf6691464736f6c63430008140033a2646970667358221220e6ad9aaa0699ad9a2da48fd3c903a2e5b053120d58ddf0318edd16851508b7c064736f6c63430008140033",
    "linkReferences": {}
  },
  "methodIdentifiers": {
    "allLaunchpads(uint256)": "53aca078",
    "deployClone(string,uint256,uint256,uint256,uint256,address,address,uint8)": "c5e60f24",
    "deployWithCreate2(string,uint256,uint256,uint256,uint256,address,address,uint8)": "785c1c39",
    "getAllLaunchpadsLength()": "04878bfb",
    "implementationContract()": "99e7d056",
    "owner()": "8da5cb5b",
    "renounceOwnership()": "715018a6",
    "transferOwnership(address)": "f2fde38b",
    "updateImplementation(address)": "025b22bc"
  },
  "id": 1
}