{
  "abi": [
    {
      "inputs": [
        {
          "internalType": "uint256",
          "name": "_maxCap",
          "type": "uint256"
        },
        {
          "internalType": "uint256",
          "name": "_saleStartTime",
          "type": "uint256"
        },
        {
          "internalType": "uint256",
          "name": "_saleEndTime",
          "type": "uint256"
        },
        {
          "internalType": "address payable",
          "name": "_projectOwner",
          "type": "address"
        },
        {
          "internalType": "uint256",
          "name": "_tierOneValue",
          "type": "uint256"
        },
        {
          "internalType": "uint256",
          "name": "_tierTwoValue",
          "type": "uint256"
        },
        {
          "internalType": "uint256",
          "name": "_tierThreeValue",
          "type": "uint256"
        },
        {
          "internalType": "uint256",
          "name": "_totalparticipants",
          "type": "uint256"
        }
      ],
      "stateMutability": "nonpayable",
      "type": "constructor"
    },
    {
      "anonymous": false,
      "inputs": [
        {
          "indexed": true,
          "internalType": "address",
          "name": "previousOwner",
          "type": "address"
        },
        {
          "indexed": true,
          "internalType": "address",
          "name": "newOwner",
          "type": "address"
        }
      ],
      "name": "OwnershipTransferred",
      "type": "event"
    },
    {
      "inputs": [],
      "name": "NAME",
      "outputs": [
        {
          "internalType": "string",
          "name": "",
          "type": "string"
        }
      ],
      "stateMutability": "view",
      "type": "function"
    },
    {
      "inputs": [
        {
          "internalType": "address",
          "name": "_address",
          "type": "address"
        }
      ],
      "name": "addWhitelistOne",
      "outputs": [],
      "stateMutability": "nonpayable",
      "type": "function"
    },
    {
      "inputs": [
        {
          "internalType": "address",
          "name": "_address",
          "type": "address"
        }
      ],
      "name": "addWhitelistThree",
      "outputs": [],
      "stateMutability": "nonpayable",
      "type": "function"
    },
    {
      "inputs": [
        {
          "internalType": "address",
          "name": "_address",
          "type": "address"
        }
      ],
      "name": "addWhitelistTwo",
      "outputs": [],
      "stateMutability": "nonpayable",
      "type": "function"
    },
    {
      "inputs": [
        {
          "internalType": "address",
          "name": "",
          "type": "address"
        }
      ],
      "name": "buyInEightTier",
      "outputs": [
        {
          "internalType": "uint256",
          "name": "",
          "type": "uint256"
        }
      ],
      "stateMutability": "view",
      "type": "function"
    },
    {
      "inputs": [
        {
          "internalType": "address",
          "name": "",
          "type": "address"
        }
      ],
      "name": "buyInFiveTier",
      "outputs": [
        {
          "internalType": "uint256",
          "name": "",
          "type": "uint256"
        }
      ],
      "stateMutability": "view",
      "type": "function"
    },
    {
      "inputs": [
        {
          "internalType": "address",
          "name": "",
          "type": "address"
        }
      ],
      "name": "buyInFourTier",
      "outputs": [
        {
          "internalType": "uint256",
          "name": "",
          "type": "uint256"
        }
      ],
      "stateMutability": "view",
      "type": "function"
    },
    {
      "inputs": [
        {
          "internalType": "address",
          "name": "",
          "type": "address"
        }
      ],
      "name": "buyInNineTier",
      "outputs": [
        {
          "internalType": "uint256",
          "name": "",
          "type": "uint256"
        }
      ],
      "stateMutability": "view",
      "type": "function"
    },
    {
      "inputs": [
        {
          "internalType": "address",
          "name": "",
          "type": "address"
        }
      ],
      "name": "buyInOneTier",
      "outputs": [
        {
          "internalType": "uint256",
          "name": "",
          "type": "uint256"
        }
      ],
      "stateMutability": "view",
      "type": "function"
    },
    {
      "inputs": [
        {
          "internalType": "address",
          "name": "",
          "type": "address"
        }
      ],
      "name": "buyInSevenTier",
      "outputs": [
        {
          "internalType": "uint256",
          "name": "",
          "type": "uint256"
        }
      ],
      "stateMutability": "view",
      "type": "function"
    },
    {
      "inputs": [
        {
          "internalType": "address",
          "name": "",
          "type": "address"
        }
      ],
      "name": "buyInSixTier",
      "outputs": [
        {
          "internalType": "uint256",
          "name": "",
          "type": "uint256"
        }
      ],
      "stateMutability": "view",
      "type": "function"
    },
    {
      "inputs": [
        {
          "internalType": "address",
          "name": "",
          "type": "address"
        }
      ],
      "name": "buyInThreeTier",
      "outputs": [
        {
          "internalType": "uint256",
          "name": "",
          "type": "uint256"
        }
      ],
      "stateMutability": "view",
      "type": "function"
    },
    {
      "inputs": [
        {
          "internalType": "address",
          "name": "",
          "type": "address"
        }
      ],
      "name": "buyInTwoTier",
      "outputs": [
        {
          "internalType": "uint256",
          "name": "",
          "type": "uint256"
        }
      ],
      "stateMutability": "view",
      "type": "function"
    },
    {
      "inputs": [
        {
          "internalType": "address",
          "name": "_address",
          "type": "address"
        }
      ],
      "name": "getWhitelistOne",
      "outputs": [
        {
          "internalType": "bool",
          "name": "",
          "type": "bool"
        }
      ],
      "stateMutability": "view",
      "type": "function"
    },
    {
      "inputs": [
        {
          "internalType": "address",
          "name": "_address",
          "type": "address"
        }
      ],
      "name": "getWhitelistThree",
      "outputs": [
        {
          "internalType": "bool",
          "name": "",
          "type": "bool"
        }
      ],
      "stateMutability": "view",
      "type": "function"
    },
    {
      "inputs": [
        {
          "internalType": "address",
          "name": "_address",
          "type": "address"
        }
      ],
      "name": "getWhitelistTwo",
      "outputs": [
        {
          "internalType": "bool",
          "name": "",
          "type": "bool"
        }
      ],
      "stateMutability": "view",
      "type": "function"
    },
    {
      "inputs": [],
      "name": "maxAllocaPerUserTierEight",
      "outputs": [
        {
          "internalType": "uint256",
          "name": "",
          "type": "uint256"
        }
      ],
      "stateMutability": "view",
      "type": "function"
    },
    {
      "inputs": [],
      "name": "maxAllocaPerUserTierFive",
      "outputs": [
        {
          "internalType": "uint256",
          "name": "",
          "type": "uint256"
        }
      ],
      "stateMutability": "view",
      "type": "function"
    },
    {
      "inputs": [],
      "name": "maxAllocaPerUserTierFour",
      "outputs": [
        {
          "internalType": "uint256",
          "name": "",
          "type": "uint256"
        }
      ],
      "stateMutability": "view",
      "type": "function"
    },
    {
      "inputs": [],
      "name": "maxAllocaPerUserTierNine",
      "outputs": [
        {
          "internalType": "uint256",
          "name": "",
          "type": "uint256"
        }
      ],
      "stateMutability": "view",
      "type": "function"
    },
    {
      "inputs": [],
      "name": "maxAllocaPerUserTierOne",
      "outputs": [
        {
          "internalType": "uint256",
          "name": "",
          "type": "uint256"
        }
      ],
      "stateMutability": "view",
      "type": "function"
    },
    {
      "inputs": [],
      "name": "maxAllocaPerUserTierSeven",
      "outputs": [
        {
          "internalType": "uint256",
          "name": "",
          "type": "uint256"
        }
      ],
      "stateMutability": "view",
      "type": "function"
    },
    {
      "inputs": [],
      "name": "maxAllocaPerUserTierSix",
      "outputs": [
        {
          "internalType": "uint256",
          "name": "",
          "type": "uint256"
        }
      ],
      "stateMutability": "view",
      "type": "function"
    },
    {
      "inputs": [],
      "name": "maxAllocaPerUserTierThree",
      "outputs": [
        {
          "internalType": "uint256",
          "name": "",
          "type": "uint256"
        }
      ],
      "stateMutability": "view",
      "type": "function"
    },
    {
      "inputs": [],
      "name": "maxAllocaPerUserTierTwo",
      "outputs": [
        {
          "internalType": "uint256",
          "name": "",
          "type": "uint256"
        }
      ],
      "stateMutability": "view",
      "type": "function"
    },
    {
      "inputs": [],
      "name": "maxCap",
      "outputs": [
        {
          "internalType": "uint256",
          "name": "",
          "type": "uint256"
        }
      ],
      "stateMutability": "view",
      "type": "function"
    },
    {
      "inputs": [],
      "name": "owner",
      "outputs": [
        {
          "internalType": "address",
          "name": "",
          "type": "address"
        }
      ],
      "stateMutability": "view",
      "type": "function"
    },
    {
      "inputs": [],
      "name": "projectOwner",
      "outputs": [
        {
          "internalType": "address payable",
          "name": "",
          "type": "address"
        }
      ],
      "stateMutability": "view",
      "type": "function"
    },
    {
      "inputs": [],
      "name": "saleEndTime",
      "outputs": [
        {
          "internalType": "uint256",
          "name": "",
          "type": "uint256"
        }
      ],
      "stateMutability": "view",
      "type": "function"
    },
    {
      "inputs": [],
      "name": "saleStartTime",
      "outputs": [
        {
          "internalType": "uint256",
          "name": "",
          "type": "uint256"
        }
      ],
      "stateMutability": "view",
      "type": "function"
    },
    {
      "inputs": [],
      "name": "tierEightMaxCap",
      "outputs": [
        {
          "internalType": "uint256",
          "name": "",
          "type": "uint256"
        }
      ],
      "stateMutability": "view",
      "type": "function"
    },
    {
      "inputs": [],
      "name": "tierFiveMaxCap",
      "outputs": [
        {
          "internalType": "uint256",
          "name": "",
          "type": "uint256"
        }
      ],
      "stateMutability": "view",
      "type": "function"
    },
    {
      "inputs": [],
      "name": "tierFourMaxCap",
      "outputs": [
        {
          "internalType": "uint256",
          "name": "",
          "type": "uint256"
        }
      ],
      "stateMutability": "view",
      "type": "function"
    },
    {
      "inputs": [],
      "name": "tierNineMaxCap",
      "outputs": [
        {
          "internalType": "uint256",
          "name": "",
          "type": "uint256"
        }
      ],
      "stateMutability": "view",
      "type": "function"
    },
    {
      "inputs": [],
      "name": "tierOneMaxCap",
      "outputs": [
        {
          "internalType": "uint256",
          "name": "",
          "type": "uint256"
        }
      ],
      "stateMutability": "view",
      "type": "function"
    },
    {
      "inputs": [],
      "name": "tierSevenMaxCap",
      "outputs": [
        {
          "internalType": "uint256",
          "name": "",
          "type": "uint256"
        }
      ],
      "stateMutability": "view",
      "type": "function"
    },
    {
      "inputs": [],
      "name": "tierSixMaxCap",
      "outputs": [
        {
          "internalType": "uint256",
          "name": "",
          "type": "uint256"
        }
      ],
      "stateMutability": "view",
      "type": "function"
    },
    {
      "inputs": [],
      "name": "tierThreeMaxCap",
      "outputs": [
        {
          "internalType": "uint256",
          "name": "",
          "type": "uint256"
        }
      ],
      "stateMutability": "view",
      "type": "function"
    },
    {
      "inputs": [],
      "name": "tierTwoMaxCap",
      "outputs": [
        {
          "internalType": "uint256",
          "name": "",
          "type": "uint256"
        }
      ],
      "stateMutability": "view",
      "type": "function"
    },
    {
      "inputs": [],
      "name": "totalBnbInTierEight",
      "outputs": [
        {
          "internalType": "uint256",
          "name": "",
          "type": "uint256"
        }
      ],
      "stateMutability": "view",
      "type": "function"
    },
    {
      "inputs": [],
      "name": "totalBnbInTierFive",
      "outputs": [
        {
          "internalType": "uint256",
          "name": "",
          "type": "uint256"
        }
      ],
      "stateMutability": "view",
      "type": "function"
    },
    {
      "inputs": [],
      "name": "totalBnbInTierFour",
      "outputs": [
        {
          "internalType": "uint256",
          "name": "",
          "type": "uint256"
        }
      ],
      "stateMutability": "view",
      "type": "function"
    },
    {
      "inputs": [],
      "name": "totalBnbInTierNine",
      "outputs": [
        {
          "internalType": "uint256",
          "name": "",
          "type": "uint256"
        }
      ],
      "stateMutability": "view",
      "type": "function"
    },
    {
      "inputs": [],
      "name": "totalBnbInTierOne",
      "outputs": [
        {
          "internalType": "uint256",
          "name": "",
          "type": "uint256"
        }
      ],
      "stateMutability": "view",
      "type": "function"
    },
    {
      "inputs": [],
      "name": "totalBnbInTierSeven",
      "outputs": [
        {
          "internalType": "uint256",
          "name": "",
          "type": "uint256"
        }
      ],
      "stateMutability": "view",
      "type": "function"
    },
    {
      "inputs": [],
      "name": "totalBnbInTierSix",
      "outputs": [
        {
          "internalType": "uint256",
          "name": "",
          "type": "uint256"
        }
      ],
      "stateMutability": "view",
      "type": "function"
    },
    {
      "inputs": [],
      "name": "totalBnbInTierThree",
      "outputs": [
        {
          "internalType": "uint256",
          "name": "",
          "type": "uint256"
        }
      ],
      "stateMutability": "view",
      "type": "function"
    },
    {
      "inputs": [],
      "name": "totalBnbInTierTwo",
      "outputs": [
        {
          "internalType": "uint256",
          "name": "",
          "type": "uint256"
        }
      ],
      "stateMutability": "view",
      "type": "function"
    },
    {
      "inputs": [],
      "name": "totalBnbReceivedInAllTier",
      "outputs": [
        {
          "internalType": "uint256",
          "name": "",
          "type": "uint256"
        }
      ],
      "stateMutability": "view",
      "type": "function"
    },
    {
      "inputs": [],
      "name": "totalUserInTierEight",
      "outputs": [
        {
          "internalType": "uint256",
          "name": "",
          "type": "uint256"
        }
      ],
      "stateMutability": "view",
      "type": "function"
    },
    {
      "inputs": [],
      "name": "totalUserInTierFive",
      "outputs": [
        {
          "internalType": "uint256",
          "name": "",
          "type": "uint256"
        }
      ],
      "stateMutability": "view",
      "type": "function"
    },
    {
      "inputs": [],
      "name": "totalUserInTierFour",
      "outputs": [
        {
          "internalType": "uint256",
          "name": "",
          "type": "uint256"
        }
      ],
      "stateMutability": "view",
      "type": "function"
    },
    {
      "inputs": [],
      "name": "totalUserInTierNine",
      "outputs": [
        {
          "internalType": "uint256",
          "name": "",
          "type": "uint256"
        }
      ],
      "stateMutability": "view",
      "type": "function"
    },
    {
      "inputs": [],
      "name": "totalUserInTierOne",
      "outputs": [
        {
          "internalType": "uint256",
          "name": "",
          "type": "uint256"
        }
      ],
      "stateMutability": "view",
      "type": "function"
    },
    {
      "inputs": [],
      "name": "totalUserInTierSeven",
      "outputs": [
        {
          "internalType": "uint256",
          "name": "",
          "type": "uint256"
        }
      ],
      "stateMutability": "view",
      "type": "function"
    },
    {
      "inputs": [],
      "name": "totalUserInTierSix",
      "outputs": [
        {
          "internalType": "uint256",
          "name": "",
          "type": "uint256"
        }
      ],
      "stateMutability": "view",
      "type": "function"
    },
    {
      "inputs": [],
      "name": "totalUserInTierThree",
      "outputs": [
        {
          "internalType": "uint256",
          "name": "",
          "type": "uint256"
        }
      ],
      "stateMutability": "view",
      "type": "function"
    },
    {
      "inputs": [],
      "name": "totalUserInTierTwo",
      "outputs": [
        {
          "internalType": "uint256",
          "name": "",
          "type": "uint256"
        }
      ],
      "stateMutability": "view",
      "type": "function"
    },
    {
      "inputs": [],
      "name": "totalparticipants",
      "outputs": [
        {
          "internalType": "uint256",
          "name": "",
          "type": "uint256"
        }
      ],
      "stateMutability": "view",
      "type": "function"
    },
    {
      "inputs": [
        {
          "internalType": "address",
          "name": "newOwner",
          "type": "address"
        }
      ],
      "name": "transferOwnership",
      "outputs": [],
      "stateMutability": "nonpayable",
      "type": "function"
    },
    {
      "inputs": [
        {
          "internalType": "uint256",
          "name": "_tierOneUsersValue",
          "type": "uint256"
        },
        {
          "internalType": "uint256",
          "name": "_tierTwoUsersValue",
          "type": "uint256"
        },
        {
          "internalType": "uint256",
          "name": "_tierThreeUsersValue",
          "type": "uint256"
        }
      ],
      "name": "updateTierUsersValue",
      "outputs": [],
      "stateMutability": "nonpayable",
      "type": "function"
    },
    {
      "inputs": [
        {
          "internalType": "uint256",
          "name": "_tierOneValue",
          "type": "uint256"
        },
        {
          "internalType": "uint256",
          "name": "_tierTwoValue",
          "type": "uint256"
        },
        {
          "internalType": "uint256",
          "name": "_tierThreeValue",
          "type": "uint256"
        }
      ],
      "name": "updateTierValues",
      "outputs": [],
      "stateMutability": "nonpayable",
      "type": "function"
    },
    {
      "stateMutability": "payable",
      "type": "receive"
    }
  ],
  "bytecode": {
    "object": "0x60c06040523480156200001157600080fd5b50604051620019ef380380620019ef8339810160408190526200003491620000d6565b60008054336001600160a01b0319918216179091556001899055608088905260a0879052600d80549091166001600160a01b038716179055600e849055600f839055601082905560026017819055601881905560036019556200009890856200014e565b602055601854600f54620000ad91906200014e565b602155601954601054620000c291906200014e565b602255600c55506200017195505050505050565b600080600080600080600080610100898b031215620000f457600080fd5b885160208a015160408b015160608c0151929a5090985096506001600160a01b03811681146200012357600080fd5b60808a015160a08b015160c08c015160e0909c01519a9d999c50979a91999098919650945092505050565b6000826200016c57634e487b7160e01b600052601260045260246000fd5b500490565b60805160a05161184a620001a56000396000818161042d0152610f4a0152600081816103b801526109b0015261184a6000f3fe6080604052600436106103b15760003560e01c806390257644116101e7578063b9ec0dde1161010d578063f1e81e07116100a0578063f6bb87f51161006f578063f6bb87f514610fce578063fd86997114610fe4578063fe36f6c914610ffa578063ff3e7c721461102757600080fd5b8063f1e81e0714610f6c578063f1e9989d14610f82578063f2fde38b14610f98578063f482bcee14610fb857600080fd5b8063e0daa8ba116100dc578063e0daa8ba14610edf578063e7f7814e14610ef5578063e8891b7d14610f22578063ed338ff114610f3857600080fd5b8063b9ec0dde14610e7d578063bd57a11e14610e9d578063becbb04b14610eb3578063c31d36f514610ec957600080fd5b8063a390c97f11610185578063ae4fdad911610154578063ae4fdad914610e1b578063b2c85e1114610e3b578063b45ccf0b14610e51578063b8307a3f14610e6757600080fd5b8063a390c97f14610d89578063a3f4df7e14610d9f578063a4475ce414610de5578063a8b40d8d14610e0557600080fd5b8063a05eeb32116101c1578063a05eeb3214610d10578063a0ce460b14610d30578063a10ac30114610d5d578063a340f0b314610d7357600080fd5b80639025764414610cce57806397ede62314610ce45780639d9db77d14610cfa57600080fd5b80634d9b4b4f116102d757806371b9510d1161026a578063823276c311610239578063823276c314610c54578063864a92fa14610c6a5780638a9983d814610c805780638da5cb5b14610c9657600080fd5b806371b9510d14610be557806374c6bd0d14610c125780637b3e8b7c14610c285780637eee205714610c3e57600080fd5b80635e18c330116102a65780635e18c33014610b6c57806362ace63f14610b825780636cd52c6414610ba25780636f507e0d14610bb857600080fd5b80634d9b4b4f14610b0a5780634dce516814610b20578063523d6b2614610b405780635a81a53c14610b5657600080fd5b806322b153341161034f5780633c6bb4741161031e5780633c6bb47414610a9e57806349f4ebb914610abe5780634c0d8e8d14610ade5780634c510db714610af457600080fd5b806322b1533414610a1557806323548b8b14610a45578063244c4f1014610a5b5780632ad16bee14610a7157600080fd5b80631a0e66bf1161038b5780631a0e66bf146109885780631cbaee2d1461099e5780631eaf7834146109d25780631fc0d469146109ff57600080fd5b8063010998851461091c578063015e2a13146109455780630e9197611461097257600080fd5b36610917577f000000000000000000000000000000000000000000000000000000000000000042101561042b5760405162461bcd60e51b815260206004820152601c60248201527f5468652073616c65206973206e6f74207374617274656420796574200000000060448201526064015b60405180910390fd5b7f00000000000000000000000000000000000000000000000000000000000000004211156104905760405162461bcd60e51b8152602060048201526012602482015271151a19481cd85b19481a5cc818db1bdcd95960721b6044820152606401610422565b600154346002546104a19190611668565b11156104ee5760405162461bcd60e51b815260206004820152602860248201526000805160206117f58339815191526044820152670206d6178206361760c41b6064820152608401610422565b6104f733611054565b1561066557600e543460035461050d9190611668565b11156105635760405162461bcd60e51b815260206004820152603160248201526000805160206117f583398151915260448201527002054696572206f6e65206d61782063617607c1b6064820152608401610422565b602080543360009081526032909252604090912054610583903490611668565b11156105f75760405162461bcd60e51b815260206004820152603860248201527f627579546f6b656e733a596f752061726520696e76657374696e67206d6f726560448201527f207468616e20796f757220746965722d31206c696d69742100000000000000006064820152608401610422565b3360009081526032602052604081208054349290610616908490611668565b92505081905550346002600082825461062f9190611668565b9250508190555034600360008282546106489190611668565b9091555050600d54610663906001600160a01b0316476110c3565b005b61066e336111e1565b156107bd57600f54346004546106849190611668565b11156106da5760405162461bcd60e51b815260206004820152603160248201526000805160206117f5833981519152604482015270020546965722074776f206d61782063617607c1b6064820152608401610422565b602154336000908152603360205260409020546106f8903490611668565b111561076c5760405162461bcd60e51b815260206004820152603860248201527f627579546f6b656e733a596f752061726520696e76657374696e67206d6f726560448201527f207468616e20796f757220746965722d32206c696d69742100000000000000006064820152608401610422565b336000908152603360205260408120805434929061078b908490611668565b9250508190555034600260008282546107a49190611668565b9250508190555034600460008282546106489190611668565b6107c633611246565b1561091757601054346005546107dc9190611668565b11156108345760405162461bcd60e51b815260206004820152603360248201526000805160206117f583398151915260448201527202054696572207468726565206d61782063617606c1b6064820152608401610422565b60225433600090815260346020526040902054610852903490611668565b11156108c65760405162461bcd60e51b815260206004820152603860248201527f627579546f6b656e733a596f752061726520696e76657374696e67206d6f726560448201527f207468616e20796f757220746965722d33206c696d69742100000000000000006064820152608401610422565b33600090815260346020526040812080543492906108e5908490611668565b9250508190555034600260008282546108fe9190611668565b9250508190555034600560008282546106489190611668565b600080fd5b34801561092857600080fd5b50610932600c5481565b6040519081526020015b60405180910390f35b34801561095157600080fd5b50610932610960366004611681565b60376020526000908152604090205481565b34801561097e57600080fd5b5061093260275481565b34801561099457600080fd5b5061093260265481565b3480156109aa57600080fd5b506109327f000000000000000000000000000000000000000000000000000000000000000081565b3480156109de57600080fd5b506109326109ed366004611681565b60396020526000908152604090205481565b348015610a0b57600080fd5b5061093260155481565b348015610a2157600080fd5b50610a35610a30366004611681565b611246565b604051901515815260200161093c565b348015610a5157600080fd5b5061093260015481565b348015610a6757600080fd5b50610932600f5481565b348015610a7d57600080fd5b50610932610a8c366004611681565b603a6020526000908152604090205481565b348015610aaa57600080fd5b50610663610ab9366004611681565b6112ab565b348015610aca57600080fd5b50610663610ad93660046116b1565b61134d565b348015610aea57600080fd5b5061093260035481565b348015610b0057600080fd5b50610932601b5481565b348015610b1657600080fd5b5061093260235481565b348015610b2c57600080fd5b50610a35610b3b366004611681565b611054565b348015610b4c57600080fd5b5061093260245481565b348015610b6257600080fd5b5061093260045481565b348015610b7857600080fd5b50610932601a5481565b348015610b8e57600080fd5b50610663610b9d366004611681565b6113e1565b348015610bae57600080fd5b5061093260285481565b348015610bc457600080fd5b50610932610bd3366004611681565b60366020526000908152604090205481565b348015610bf157600080fd5b50610932610c00366004611681565b60336020526000908152604090205481565b348015610c1e57600080fd5b5061093260195481565b348015610c3457600080fd5b50610932600a5481565b348015610c4a57600080fd5b50610932601d5481565b348015610c6057600080fd5b50610932600e5481565b348015610c7657600080fd5b5061093260095481565b348015610c8c57600080fd5b5061093260255481565b348015610ca257600080fd5b50600054610cb6906001600160a01b031681565b6040516001600160a01b03909116815260200161093c565b348015610cda57600080fd5b5061093260205481565b348015610cf057600080fd5b5061093260145481565b348015610d0657600080fd5b5061093260115481565b348015610d1c57600080fd5b50610663610d2b3660046116b1565b611483565b348015610d3c57600080fd5b50610932610d4b366004611681565b60346020526000908152604090205481565b348015610d6957600080fd5b5061093260085481565b348015610d7f57600080fd5b50610932601c5481565b348015610d9557600080fd5b5061093260105481565b348015610dab57600080fd5b50610dd86040518060400160405280600d81526020016c536565646966792e66756e647360981b81525081565b60405161093c91906116dd565b348015610df157600080fd5b50600d54610cb6906001600160a01b031681565b348015610e1157600080fd5b5061093260055481565b348015610e2757600080fd5b50610663610e36366004611681565b611518565b348015610e4757600080fd5b50610932601f5481565b348015610e5d57600080fd5b5061093260125481565b348015610e7357600080fd5b5061093260025481565b348015610e8957600080fd5b50610a35610e98366004611681565b6111e1565b348015610ea957600080fd5b5061093260065481565b348015610ebf57600080fd5b5061093260225481565b348015610ed557600080fd5b5061093260135481565b348015610eeb57600080fd5b5061093260175481565b348015610f0157600080fd5b50610932610f10366004611681565b60356020526000908152604090205481565b348015610f2e57600080fd5b5061093260215481565b348015610f4457600080fd5b506109327f000000000000000000000000000000000000000000000000000000000000000081565b348015610f7857600080fd5b5061093260185481565b348015610f8e57600080fd5b50610932600b5481565b348015610fa457600080fd5b50610663610fb3366004611681565b6115ba565b348015610fc457600080fd5b5061093260075481565b348015610fda57600080fd5b50610932601e5481565b348015610ff057600080fd5b5061093260165481565b34801561100657600080fd5b50610932611015366004611681565b60326020526000908152604090205481565b34801561103357600080fd5b50610932611042366004611681565b60386020526000908152604090205481565b60295460009081905b808210156110b95760006029838154811061107a5761107a61172b565b6000918252602090912001546001600160a01b039081169150851681036110a657506001949350505050565b50816110b181611741565b92505061105d565b5060009392505050565b804710156111135760405162461bcd60e51b815260206004820152601d60248201527f416464726573733a20696e73756666696369656e742062616c616e63650000006044820152606401610422565b6000826001600160a01b03168260405160006040518083038185875af1925050503d8060008114611160576040519150601f19603f3d011682016040523d82523d6000602084013e611165565b606091505b50509050806111dc5760405162461bcd60e51b815260206004820152603a60248201527f416464726573733a20756e61626c6520746f2073656e642076616c75652c207260448201527f6563697069656e74206d617920686176652072657665727465640000000000006064820152608401610422565b505050565b602a5460009081905b808210156110b9576000602a83815481106112075761120761172b565b6000918252602090912001546001600160a01b0390811691508516810361123357506001949350505050565b508161123e81611741565b9250506111ea565b602b5460009081905b808210156110b9576000602b838154811061126c5761126c61172b565b6000918252602090912001546001600160a01b0390811691508516810361129857506001949350505050565b50816112a381611741565b92505061124f565b6000546001600160a01b031633146112d55760405162461bcd60e51b81526004016104229061175a565b6001600160a01b0381166112fb5760405162461bcd60e51b8152600401610422906117a9565b602b80546001810182556000919091527f11c44e4875b74d31ff9fd779bf2566af7bd15b87fc985d01f5094b89e3669e4f0180546001600160a01b0319166001600160a01b0392909216919091179055565b6000546001600160a01b031633146113775760405162461bcd60e51b81526004016104229061175a565b600e839055600f829055601081905560175461139390846117d2565b602055601854600f546113a691906117d2565b6021556019546010546113b991906117d2565b602255601054600f54600e546113cf9190611668565b6113d99190611668565b600155505050565b6000546001600160a01b0316331461140b5760405162461bcd60e51b81526004016104229061175a565b6001600160a01b0381166114315760405162461bcd60e51b8152600401610422906117a9565b602980546001810182556000919091527fcb7c14ce178f56e2e8d86ab33ebc0ae081ba8556a00cd122038841867181caac0180546001600160a01b0319166001600160a01b0392909216919091179055565b6000546001600160a01b031633146114ad5760405162461bcd60e51b81526004016104229061175a565b601783905560188290556019819055600e546114ca9084906117d2565b602055601854600f546114dd91906117d2565b6021556019546010546114f091906117d2565b6022556019546018546017546115069190611668565b6115109190611668565b600c55505050565b6000546001600160a01b031633146115425760405162461bcd60e51b81526004016104229061175a565b6001600160a01b0381166115685760405162461bcd60e51b8152600401610422906117a9565b602a80546001810182556000919091527fbeced09521047d05b8960b7e7bcc1d1292cf3e4b2a6b63f48335cbde5f7545d20180546001600160a01b0319166001600160a01b0392909216919091179055565b6000546001600160a01b031633146115e45760405162461bcd60e51b81526004016104229061175a565b6001600160a01b0381166115f757600080fd5b600080546040516001600160a01b03808516939216917f8be0079c531659141344cd1fd0a4f28419497f9722a3daafe3b4186f6b6457e091a3600080546001600160a01b0319166001600160a01b0392909216919091179055565b634e487b7160e01b600052601160045260246000fd5b8082018082111561167b5761167b611652565b92915050565b60006020828403121561169357600080fd5b81356001600160a01b03811681146116aa57600080fd5b9392505050565b6000806000606084860312156116c657600080fd5b505081359360208301359350604090920135919050565b600060208083528351808285015260005b8181101561170a578581018301518582016040015282016116ee565b506000604082860101526040601f19601f8301168501019250505092915050565b634e487b7160e01b600052603260045260246000fd5b60006001820161175357611753611652565b5060010190565b6020808252602f908201527f4f6e6c79206f776e6572206861732074686520726967687420746f207065726660408201526e37b936903a3434b99030b1ba34b7b760891b606082015260800190565b6020808252600f908201526e496e76616c6964206164647265737360881b604082015260600190565b6000826117ef57634e487b7160e01b600052601260045260246000fd5b50049056fe627579546f6b656e733a20707572636861736520776f756c6420657863656564a2646970667358221220df581fbf84e8323bbe824d1aa8299d280318064312bbe2006dfd48efd693d85e64736f6c63430008140033",
    "linkReferences": {}
  },
  "methodIdentifiers": {
    "NAME()": "a3f4df7e",
    "addWhitelistOne(address)": "62ace63f",
    "addWhitelistThree(address)": "3c6bb474",
    "addWhitelistTwo(address)": "ae4fdad9",
    "buyInEightTier(address)": "1eaf7834",
    "buyInFiveTier(address)": "6f507e0d",
    "buyInFourTier(address)": "e7f7814e",
    "buyInNineTier(address)": "2ad16bee",
    "buyInOneTier(address)": "fe36f6c9",
    "buyInSevenTier(address)": "ff3e7c72",
    "buyInSixTier(address)": "015e2a13",
    "buyInThreeTier(address)": "a0ce460b",
    "buyInTwoTier(address)": "71b9510d",
    "getWhitelistOne(address)": "4dce5168",
    "getWhitelistThree(address)": "22b15334",
    "getWhitelistTwo(address)": "b9ec0dde",
    "maxAllocaPerUserTierEight()": "0e919761",
    "maxAllocaPerUserTierFive()": "523d6b26",
    "maxAllocaPerUserTierFour()": "4d9b4b4f",
    "maxAllocaPerUserTierNine()": "6cd52c64",
    "maxAllocaPerUserTierOne()": "90257644",
    "maxAllocaPerUserTierSeven()": "1a0e66bf",
    "maxAllocaPerUserTierSix()": "8a9983d8",
    "maxAllocaPerUserTierThree()": "becbb04b",
    "maxAllocaPerUserTierTwo()": "e8891b7d",
    "maxCap()": "23548b8b",
    "owner()": "8da5cb5b",
    "projectOwner()": "a4475ce4",
    "saleEndTime()": "ed338ff1",
    "saleStartTime()": "1cbaee2d",
    "tierEightMaxCap()": "1fc0d469",
    "tierFiveMaxCap()": "b45ccf0b",
    "tierFourMaxCap()": "9d9db77d",
    "tierNineMaxCap()": "fd869971",
    "tierOneMaxCap()": "823276c3",
    "tierSevenMaxCap()": "97ede623",
    "tierSixMaxCap()": "c31d36f5",
    "tierThreeMaxCap()": "a390c97f",
    "tierTwoMaxCap()": "244c4f10",
    "totalBnbInTierEight()": "7b3e8b7c",
    "totalBnbInTierFive()": "f482bcee",
    "totalBnbInTierFour()": "bd57a11e",
    "totalBnbInTierNine()": "f1e9989d",
    "totalBnbInTierOne()": "4c0d8e8d",
    "totalBnbInTierSeven()": "864a92fa",
    "totalBnbInTierSix()": "a10ac301",
    "totalBnbInTierThree()": "a8b40d8d",
    "totalBnbInTierTwo()": "5a81a53c",
    "totalBnbReceivedInAllTier()": "b8307a3f",
    "totalUserInTierEight()": "f6bb87f5",
    "totalUserInTierFive()": "4c510db7",
    "totalUserInTierFour()": "5e18c330",
    "totalUserInTierNine()": "b2c85e11",
    "totalUserInTierOne()": "e0daa8ba",
    "totalUserInTierSeven()": "7eee2057",
    "totalUserInTierSix()": "a340f0b3",
    "totalUserInTierThree()": "74c6bd0d",
    "totalUserInTierTwo()": "f1e81e07",
    "totalparticipants()": "01099885",
    "transferOwnership(address)": "f2fde38b",
    "updateTierUsersValue(uint256,uint256,uint256)": "a05eeb32",
    "updateTierValues(uint256,uint256,uint256)": "49f4ebb9"
  },
  "id": 8
}