{
  "abi": [
    {
      "inputs": [
        {
          "internalType": "uint256",
          "name": "_maxCap",
          "type": "uint256"
        },
        {
          "internalType": "uint256",
          "name": "_saleStartTime",
          "type": "uint256"
        },
        {
          "internalType": "uint256",
          "name": "_saleEndTime",
          "type": "uint256"
        },
        {
          "internalType": "address payable",
          "name": "_projectOwner",
          "type": "address"
        },
        {
          "internalType": "uint256",
          "name": "_tierOneValue",
          "type": "uint256"
        },
        {
          "internalType": "uint256",
          "name": "_tierTwoValue",
          "type": "uint256"
        },
        {
          "internalType": "uint256",
          "name": "_tierThreeValue",
          "type": "uint256"
        },
        {
          "internalType": "uint256",
          "name": "_tierFourValue",
          "type": "uint256"
        },
        {
          "internalType": "uint256",
          "name": "_totalparticipants",
          "type": "uint256"
        }
      ],
      "stateMutability": "nonpayable",
      "type": "constructor"
    },
    {
      "anonymous": false,
      "inputs": [
        {
          "indexed": true,
          "internalType": "address",
          "name": "previousOwner",
          "type": "address"
        },
        {
          "indexed": true,
          "internalType": "address",
          "name": "newOwner",
          "type": "address"
        }
      ],
      "name": "OwnershipTransferred",
      "type": "event"
    },
    {
      "inputs": [],
      "name": "NAME",
      "outputs": [
        {
          "internalType": "string",
          "name": "",
          "type": "string"
        }
      ],
      "stateMutability": "view",
      "type": "function"
    },
    {
      "inputs": [
        {
          "internalType": "address",
          "name": "_address",
          "type": "address"
        }
      ],
      "name": "addWhitelistEight",
      "outputs": [],
      "stateMutability": "nonpayable",
      "type": "function"
    },
    {
      "inputs": [
        {
          "internalType": "address",
          "name": "_address",
          "type": "address"
        }
      ],
      "name": "addWhitelistFive",
      "outputs": [],
      "stateMutability": "nonpayable",
      "type": "function"
    },
    {
      "inputs": [
        {
          "internalType": "address",
          "name": "_address",
          "type": "address"
        }
      ],
      "name": "addWhitelistFour",
      "outputs": [],
      "stateMutability": "nonpayable",
      "type": "function"
    },
    {
      "inputs": [
        {
          "internalType": "address",
          "name": "_address",
          "type": "address"
        }
      ],
      "name": "addWhitelistNine",
      "outputs": [],
      "stateMutability": "nonpayable",
      "type": "function"
    },
    {
      "inputs": [
        {
          "internalType": "address",
          "name": "_address",
          "type": "address"
        }
      ],
      "name": "addWhitelistOne",
      "outputs": [],
      "stateMutability": "nonpayable",
      "type": "function"
    },
    {
      "inputs": [
        {
          "internalType": "address",
          "name": "_address",
          "type": "address"
        }
      ],
      "name": "addWhitelistSeven",
      "outputs": [],
      "stateMutability": "nonpayable",
      "type": "function"
    },
    {
      "inputs": [
        {
          "internalType": "address",
          "name": "_address",
          "type": "address"
        }
      ],
      "name": "addWhitelistSix",
      "outputs": [],
      "stateMutability": "nonpayable",
      "type": "function"
    },
    {
      "inputs": [
        {
          "internalType": "address",
          "name": "_address",
          "type": "address"
        }
      ],
      "name": "addWhitelistThree",
      "outputs": [],
      "stateMutability": "nonpayable",
      "type": "function"
    },
    {
      "inputs": [
        {
          "internalType": "address",
          "name": "_address",
          "type": "address"
        }
      ],
      "name": "addWhitelistTwo",
      "outputs": [],
      "stateMutability": "nonpayable",
      "type": "function"
    },
    {
      "inputs": [
        {
          "internalType": "address",
          "name": "",
          "type": "address"
        }
      ],
      "name": "buyInEightTier",
      "outputs": [
        {
          "internalType": "uint256",
          "name": "",
          "type": "uint256"
        }
      ],
      "stateMutability": "view",
      "type": "function"
    },
    {
      "inputs": [
        {
          "internalType": "address",
          "name": "",
          "type": "address"
        }
      ],
      "name": "buyInFiveTier",
      "outputs": [
        {
          "internalType": "uint256",
          "name": "",
          "type": "uint256"
        }
      ],
      "stateMutability": "view",
      "type": "function"
    },
    {
      "inputs": [
        {
          "internalType": "address",
          "name": "",
          "type": "address"
        }
      ],
      "name": "buyInFourTier",
      "outputs": [
        {
          "internalType": "uint256",
          "name": "",
          "type": "uint256"
        }
      ],
      "stateMutability": "view",
      "type": "function"
    },
    {
      "inputs": [
        {
          "internalType": "address",
          "name": "",
          "type": "address"
        }
      ],
      "name": "buyInNineTier",
      "outputs": [
        {
          "internalType": "uint256",
          "name": "",
          "type": "uint256"
        }
      ],
      "stateMutability": "view",
      "type": "function"
    },
    {
      "inputs": [
        {
          "internalType": "address",
          "name": "",
          "type": "address"
        }
      ],
      "name": "buyInOneTier",
      "outputs": [
        {
          "internalType": "uint256",
          "name": "",
          "type": "uint256"
        }
      ],
      "stateMutability": "view",
      "type": "function"
    },
    {
      "inputs": [
        {
          "internalType": "address",
          "name": "",
          "type": "address"
        }
      ],
      "name": "buyInSevenTier",
      "outputs": [
        {
          "internalType": "uint256",
          "name": "",
          "type": "uint256"
        }
      ],
      "stateMutability": "view",
      "type": "function"
    },
    {
      "inputs": [
        {
          "internalType": "address",
          "name": "",
          "type": "address"
        }
      ],
      "name": "buyInSixTier",
      "outputs": [
        {
          "internalType": "uint256",
          "name": "",
          "type": "uint256"
        }
      ],
      "stateMutability": "view",
      "type": "function"
    },
    {
      "inputs": [
        {
          "internalType": "address",
          "name": "",
          "type": "address"
        }
      ],
      "name": "buyInThreeTier",
      "outputs": [
        {
          "internalType": "uint256",
          "name": "",
          "type": "uint256"
        }
      ],
      "stateMutability": "view",
      "type": "function"
    },
    {
      "inputs": [
        {
          "internalType": "address",
          "name": "",
          "type": "address"
        }
      ],
      "name": "buyInTwoTier",
      "outputs": [
        {
          "internalType": "uint256",
          "name": "",
          "type": "uint256"
        }
      ],
      "stateMutability": "view",
      "type": "function"
    },
    {
      "inputs": [
        {
          "internalType": "address",
          "name": "_address",
          "type": "address"
        }
      ],
      "name": "getWhitelistEight",
      "outputs": [
        {
          "internalType": "bool",
          "name": "",
          "type": "bool"
        }
      ],
      "stateMutability": "view",
      "type": "function"
    },
    {
      "inputs": [
        {
          "internalType": "address",
          "name": "_address",
          "type": "address"
        }
      ],
      "name": "getWhitelistFive",
      "outputs": [
        {
          "internalType": "bool",
          "name": "",
          "type": "bool"
        }
      ],
      "stateMutability": "view",
      "type": "function"
    },
    {
      "inputs": [
        {
          "internalType": "address",
          "name": "_address",
          "type": "address"
        }
      ],
      "name": "getWhitelistFour",
      "outputs": [
        {
          "internalType": "bool",
          "name": "",
          "type": "bool"
        }
      ],
      "stateMutability": "view",
      "type": "function"
    },
    {
      "inputs": [
        {
          "internalType": "address",
          "name": "_address",
          "type": "address"
        }
      ],
      "name": "getWhitelistNine",
      "outputs": [
        {
          "internalType": "bool",
          "name": "",
          "type": "bool"
        }
      ],
      "stateMutability": "view",
      "type": "function"
    },
    {
      "inputs": [
        {
          "internalType": "address",
          "name": "_address",
          "type": "address"
        }
      ],
      "name": "getWhitelistOne",
      "outputs": [
        {
          "internalType": "bool",
          "name": "",
          "type": "bool"
        }
      ],
      "stateMutability": "view",
      "type": "function"
    },
    {
      "inputs": [
        {
          "internalType": "address",
          "name": "_address",
          "type": "address"
        }
      ],
      "name": "getWhitelistSeven",
      "outputs": [
        {
          "internalType": "bool",
          "name": "",
          "type": "bool"
        }
      ],
      "stateMutability": "view",
      "type": "function"
    },
    {
      "inputs": [
        {
          "internalType": "address",
          "name": "_address",
          "type": "address"
        }
      ],
      "name": "getWhitelistSix",
      "outputs": [
        {
          "internalType": "bool",
          "name": "",
          "type": "bool"
        }
      ],
      "stateMutability": "view",
      "type": "function"
    },
    {
      "inputs": [
        {
          "internalType": "address",
          "name": "_address",
          "type": "address"
        }
      ],
      "name": "getWhitelistThree",
      "outputs": [
        {
          "internalType": "bool",
          "name": "",
          "type": "bool"
        }
      ],
      "stateMutability": "view",
      "type": "function"
    },
    {
      "inputs": [
        {
          "internalType": "address",
          "name": "_address",
          "type": "address"
        }
      ],
      "name": "getWhitelistTwo",
      "outputs": [
        {
          "internalType": "bool",
          "name": "",
          "type": "bool"
        }
      ],
      "stateMutability": "view",
      "type": "function"
    },
    {
      "inputs": [],
      "name": "maxAllocaPerUserTierEight",
      "outputs": [
        {
          "internalType": "uint256",
          "name": "",
          "type": "uint256"
        }
      ],
      "stateMutability": "view",
      "type": "function"
    },
    {
      "inputs": [],
      "name": "maxAllocaPerUserTierFive",
      "outputs": [
        {
          "internalType": "uint256",
          "name": "",
          "type": "uint256"
        }
      ],
      "stateMutability": "view",
      "type": "function"
    },
    {
      "inputs": [],
      "name": "maxAllocaPerUserTierFour",
      "outputs": [
        {
          "internalType": "uint256",
          "name": "",
          "type": "uint256"
        }
      ],
      "stateMutability": "view",
      "type": "function"
    },
    {
      "inputs": [],
      "name": "maxAllocaPerUserTierNine",
      "outputs": [
        {
          "internalType": "uint256",
          "name": "",
          "type": "uint256"
        }
      ],
      "stateMutability": "view",
      "type": "function"
    },
    {
      "inputs": [],
      "name": "maxAllocaPerUserTierOne",
      "outputs": [
        {
          "internalType": "uint256",
          "name": "",
          "type": "uint256"
        }
      ],
      "stateMutability": "view",
      "type": "function"
    },
    {
      "inputs": [],
      "name": "maxAllocaPerUserTierSeven",
      "outputs": [
        {
          "internalType": "uint256",
          "name": "",
          "type": "uint256"
        }
      ],
      "stateMutability": "view",
      "type": "function"
    },
    {
      "inputs": [],
      "name": "maxAllocaPerUserTierSix",
      "outputs": [
        {
          "internalType": "uint256",
          "name": "",
          "type": "uint256"
        }
      ],
      "stateMutability": "view",
      "type": "function"
    },
    {
      "inputs": [],
      "name": "maxAllocaPerUserTierThree",
      "outputs": [
        {
          "internalType": "uint256",
          "name": "",
          "type": "uint256"
        }
      ],
      "stateMutability": "view",
      "type": "function"
    },
    {
      "inputs": [],
      "name": "maxAllocaPerUserTierTwo",
      "outputs": [
        {
          "internalType": "uint256",
          "name": "",
          "type": "uint256"
        }
      ],
      "stateMutability": "view",
      "type": "function"
    },
    {
      "inputs": [],
      "name": "maxCap",
      "outputs": [
        {
          "internalType": "uint256",
          "name": "",
          "type": "uint256"
        }
      ],
      "stateMutability": "view",
      "type": "function"
    },
    {
      "inputs": [],
      "name": "minAllocaPerUserTierEight",
      "outputs": [
        {
          "internalType": "uint256",
          "name": "",
          "type": "uint256"
        }
      ],
      "stateMutability": "view",
      "type": "function"
    },
    {
      "inputs": [],
      "name": "minAllocaPerUserTierFive",
      "outputs": [
        {
          "internalType": "uint256",
          "name": "",
          "type": "uint256"
        }
      ],
      "stateMutability": "view",
      "type": "function"
    },
    {
      "inputs": [],
      "name": "minAllocaPerUserTierFour",
      "outputs": [
        {
          "internalType": "uint256",
          "name": "",
          "type": "uint256"
        }
      ],
      "stateMutability": "view",
      "type": "function"
    },
    {
      "inputs": [],
      "name": "minAllocaPerUserTierNine",
      "outputs": [
        {
          "internalType": "uint256",
          "name": "",
          "type": "uint256"
        }
      ],
      "stateMutability": "view",
      "type": "function"
    },
    {
      "inputs": [],
      "name": "minAllocaPerUserTierOne",
      "outputs": [
        {
          "internalType": "uint256",
          "name": "",
          "type": "uint256"
        }
      ],
      "stateMutability": "view",
      "type": "function"
    },
    {
      "inputs": [],
      "name": "minAllocaPerUserTierSeven",
      "outputs": [
        {
          "internalType": "uint256",
          "name": "",
          "type": "uint256"
        }
      ],
      "stateMutability": "view",
      "type": "function"
    },
    {
      "inputs": [],
      "name": "minAllocaPerUserTierSix",
      "outputs": [
        {
          "internalType": "uint256",
          "name": "",
          "type": "uint256"
        }
      ],
      "stateMutability": "view",
      "type": "function"
    },
    {
      "inputs": [],
      "name": "minAllocaPerUserTierThree",
      "outputs": [
        {
          "internalType": "uint256",
          "name": "",
          "type": "uint256"
        }
      ],
      "stateMutability": "view",
      "type": "function"
    },
    {
      "inputs": [],
      "name": "minAllocaPerUserTierTwo",
      "outputs": [
        {
          "internalType": "uint256",
          "name": "",
          "type": "uint256"
        }
      ],
      "stateMutability": "view",
      "type": "function"
    },
    {
      "inputs": [
        {
          "internalType": "address",
          "name": "",
          "type": "address"
        }
      ],
      "name": "minBuyInEightTier",
      "outputs": [
        {
          "internalType": "uint256",
          "name": "",
          "type": "uint256"
        }
      ],
      "stateMutability": "view",
      "type": "function"
    },
    {
      "inputs": [
        {
          "internalType": "address",
          "name": "",
          "type": "address"
        }
      ],
      "name": "minBuyInFiveTier",
      "outputs": [
        {
          "internalType": "uint256",
          "name": "",
          "type": "uint256"
        }
      ],
      "stateMutability": "view",
      "type": "function"
    },
    {
      "inputs": [
        {
          "internalType": "address",
          "name": "",
          "type": "address"
        }
      ],
      "name": "minBuyInFourTier",
      "outputs": [
        {
          "internalType": "uint256",
          "name": "",
          "type": "uint256"
        }
      ],
      "stateMutability": "view",
      "type": "function"
    },
    {
      "inputs": [
        {
          "internalType": "address",
          "name": "",
          "type": "address"
        }
      ],
      "name": "minBuyInNineTier",
      "outputs": [
        {
          "internalType": "uint256",
          "name": "",
          "type": "uint256"
        }
      ],
      "stateMutability": "view",
      "type": "function"
    },
    {
      "inputs": [
        {
          "internalType": "address",
          "name": "",
          "type": "address"
        }
      ],
      "name": "minBuyInOneTier",
      "outputs": [
        {
          "internalType": "uint256",
          "name": "",
          "type": "uint256"
        }
      ],
      "stateMutability": "view",
      "type": "function"
    },
    {
      "inputs": [
        {
          "internalType": "address",
          "name": "",
          "type": "address"
        }
      ],
      "name": "minBuyInSevenTier",
      "outputs": [
        {
          "internalType": "uint256",
          "name": "",
          "type": "uint256"
        }
      ],
      "stateMutability": "view",
      "type": "function"
    },
    {
      "inputs": [
        {
          "internalType": "address",
          "name": "",
          "type": "address"
        }
      ],
      "name": "minBuyInSixTier",
      "outputs": [
        {
          "internalType": "uint256",
          "name": "",
          "type": "uint256"
        }
      ],
      "stateMutability": "view",
      "type": "function"
    },
    {
      "inputs": [
        {
          "internalType": "address",
          "name": "",
          "type": "address"
        }
      ],
      "name": "minBuyInThreeTier",
      "outputs": [
        {
          "internalType": "uint256",
          "name": "",
          "type": "uint256"
        }
      ],
      "stateMutability": "view",
      "type": "function"
    },
    {
      "inputs": [
        {
          "internalType": "address",
          "name": "",
          "type": "address"
        }
      ],
      "name": "minBuyInTwoTier",
      "outputs": [
        {
          "internalType": "uint256",
          "name": "",
          "type": "uint256"
        }
      ],
      "stateMutability": "view",
      "type": "function"
    },
    {
      "inputs": [],
      "name": "owner",
      "outputs": [
        {
          "internalType": "address",
          "name": "",
          "type": "address"
        }
      ],
      "stateMutability": "view",
      "type": "function"
    },
    {
      "inputs": [],
      "name": "projectOwner",
      "outputs": [
        {
          "internalType": "address payable",
          "name": "",
          "type": "address"
        }
      ],
      "stateMutability": "view",
      "type": "function"
    },
    {
      "inputs": [],
      "name": "renounceOwnership",
      "outputs": [],
      "stateMutability": "nonpayable",
      "type": "function"
    },
    {
      "inputs": [],
      "name": "saleEndTime",
      "outputs": [
        {
          "internalType": "uint256",
          "name": "",
          "type": "uint256"
        }
      ],
      "stateMutability": "view",
      "type": "function"
    },
    {
      "inputs": [],
      "name": "saleStartTime",
      "outputs": [
        {
          "internalType": "uint256",
          "name": "",
          "type": "uint256"
        }
      ],
      "stateMutability": "view",
      "type": "function"
    },
    {
      "inputs": [],
      "name": "tierEightMaxCap",
      "outputs": [
        {
          "internalType": "uint256",
          "name": "",
          "type": "uint256"
        }
      ],
      "stateMutability": "view",
      "type": "function"
    },
    {
      "inputs": [],
      "name": "tierFiveMaxCap",
      "outputs": [
        {
          "internalType": "uint256",
          "name": "",
          "type": "uint256"
        }
      ],
      "stateMutability": "view",
      "type": "function"
    },
    {
      "inputs": [],
      "name": "tierFourMaxCap",
      "outputs": [
        {
          "internalType": "uint256",
          "name": "",
          "type": "uint256"
        }
      ],
      "stateMutability": "view",
      "type": "function"
    },
    {
      "inputs": [],
      "name": "tierNineMaxCap",
      "outputs": [
        {
          "internalType": "uint256",
          "name": "",
          "type": "uint256"
        }
      ],
      "stateMutability": "view",
      "type": "function"
    },
    {
      "inputs": [],
      "name": "tierOneMaxCap",
      "outputs": [
        {
          "internalType": "uint256",
          "name": "",
          "type": "uint256"
        }
      ],
      "stateMutability": "view",
      "type": "function"
    },
    {
      "inputs": [],
      "name": "tierSevenMaxCap",
      "outputs": [
        {
          "internalType": "uint256",
          "name": "",
          "type": "uint256"
        }
      ],
      "stateMutability": "view",
      "type": "function"
    },
    {
      "inputs": [],
      "name": "tierSixMaxCap",
      "outputs": [
        {
          "internalType": "uint256",
          "name": "",
          "type": "uint256"
        }
      ],
      "stateMutability": "view",
      "type": "function"
    },
    {
      "inputs": [],
      "name": "tierThreeMaxCap",
      "outputs": [
        {
          "internalType": "uint256",
          "name": "",
          "type": "uint256"
        }
      ],
      "stateMutability": "view",
      "type": "function"
    },
    {
      "inputs": [],
      "name": "tierTwoMaxCap",
      "outputs": [
        {
          "internalType": "uint256",
          "name": "",
          "type": "uint256"
        }
      ],
      "stateMutability": "view",
      "type": "function"
    },
    {
      "inputs": [],
      "name": "totalBnbInTierEight",
      "outputs": [
        {
          "internalType": "uint256",
          "name": "",
          "type": "uint256"
        }
      ],
      "stateMutability": "view",
      "type": "function"
    },
    {
      "inputs": [],
      "name": "totalBnbInTierFive",
      "outputs": [
        {
          "internalType": "uint256",
          "name": "",
          "type": "uint256"
        }
      ],
      "stateMutability": "view",
      "type": "function"
    },
    {
      "inputs": [],
      "name": "totalBnbInTierFour",
      "outputs": [
        {
          "internalType": "uint256",
          "name": "",
          "type": "uint256"
        }
      ],
      "stateMutability": "view",
      "type": "function"
    },
    {
      "inputs": [],
      "name": "totalBnbInTierNine",
      "outputs": [
        {
          "internalType": "uint256",
          "name": "",
          "type": "uint256"
        }
      ],
      "stateMutability": "view",
      "type": "function"
    },
    {
      "inputs": [],
      "name": "totalBnbInTierOne",
      "outputs": [
        {
          "internalType": "uint256",
          "name": "",
          "type": "uint256"
        }
      ],
      "stateMutability": "view",
      "type": "function"
    },
    {
      "inputs": [],
      "name": "totalBnbInTierSeven",
      "outputs": [
        {
          "internalType": "uint256",
          "name": "",
          "type": "uint256"
        }
      ],
      "stateMutability": "view",
      "type": "function"
    },
    {
      "inputs": [],
      "name": "totalBnbInTierSix",
      "outputs": [
        {
          "internalType": "uint256",
          "name": "",
          "type": "uint256"
        }
      ],
      "stateMutability": "view",
      "type": "function"
    },
    {
      "inputs": [],
      "name": "totalBnbInTierThree",
      "outputs": [
        {
          "internalType": "uint256",
          "name": "",
          "type": "uint256"
        }
      ],
      "stateMutability": "view",
      "type": "function"
    },
    {
      "inputs": [],
      "name": "totalBnbInTierTwo",
      "outputs": [
        {
          "internalType": "uint256",
          "name": "",
          "type": "uint256"
        }
      ],
      "stateMutability": "view",
      "type": "function"
    },
    {
      "inputs": [],
      "name": "totalBnbReceivedInAllTier",
      "outputs": [
        {
          "internalType": "uint256",
          "name": "",
          "type": "uint256"
        }
      ],
      "stateMutability": "view",
      "type": "function"
    },
    {
      "inputs": [],
      "name": "totalUserInTierEight",
      "outputs": [
        {
          "internalType": "uint256",
          "name": "",
          "type": "uint256"
        }
      ],
      "stateMutability": "view",
      "type": "function"
    },
    {
      "inputs": [],
      "name": "totalUserInTierFive",
      "outputs": [
        {
          "internalType": "uint256",
          "name": "",
          "type": "uint256"
        }
      ],
      "stateMutability": "view",
      "type": "function"
    },
    {
      "inputs": [],
      "name": "totalUserInTierFour",
      "outputs": [
        {
          "internalType": "uint256",
          "name": "",
          "type": "uint256"
        }
      ],
      "stateMutability": "view",
      "type": "function"
    },
    {
      "inputs": [],
      "name": "totalUserInTierNine",
      "outputs": [
        {
          "internalType": "uint256",
          "name": "",
          "type": "uint256"
        }
      ],
      "stateMutability": "view",
      "type": "function"
    },
    {
      "inputs": [],
      "name": "totalUserInTierOne",
      "outputs": [
        {
          "internalType": "uint256",
          "name": "",
          "type": "uint256"
        }
      ],
      "stateMutability": "view",
      "type": "function"
    },
    {
      "inputs": [],
      "name": "totalUserInTierSeven",
      "outputs": [
        {
          "internalType": "uint256",
          "name": "",
          "type": "uint256"
        }
      ],
      "stateMutability": "view",
      "type": "function"
    },
    {
      "inputs": [],
      "name": "totalUserInTierSix",
      "outputs": [
        {
          "internalType": "uint256",
          "name": "",
          "type": "uint256"
        }
      ],
      "stateMutability": "view",
      "type": "function"
    },
    {
      "inputs": [],
      "name": "totalUserInTierThree",
      "outputs": [
        {
          "internalType": "uint256",
          "name": "",
          "type": "uint256"
        }
      ],
      "stateMutability": "view",
      "type": "function"
    },
    {
      "inputs": [],
      "name": "totalUserInTierTwo",
      "outputs": [
        {
          "internalType": "uint256",
          "name": "",
          "type": "uint256"
        }
      ],
      "stateMutability": "view",
      "type": "function"
    },
    {
      "inputs": [],
      "name": "totalparticipants",
      "outputs": [
        {
          "internalType": "uint256",
          "name": "",
          "type": "uint256"
        }
      ],
      "stateMutability": "view",
      "type": "function"
    },
    {
      "inputs": [
        {
          "internalType": "address",
          "name": "newOwner",
          "type": "address"
        }
      ],
      "name": "transferOwnership",
      "outputs": [],
      "stateMutability": "nonpayable",
      "type": "function"
    },
    {
      "inputs": [
        {
          "internalType": "uint256",
          "name": "_tierOneUsersValue",
          "type": "uint256"
        },
        {
          "internalType": "uint256",
          "name": "_tierTwoUsersValue",
          "type": "uint256"
        },
        {
          "internalType": "uint256",
          "name": "_tierThreeUsersValue",
          "type": "uint256"
        },
        {
          "internalType": "uint256",
          "name": "_tierFourUsersValue",
          "type": "uint256"
        },
        {
          "internalType": "uint256",
          "name": "_tierFiveUsersValue",
          "type": "uint256"
        },
        {
          "internalType": "uint256",
          "name": "_tierSixUsersValue",
          "type": "uint256"
        },
        {
          "internalType": "uint256",
          "name": "_tierSevenUsersValue",
          "type": "uint256"
        },
        {
          "internalType": "uint256",
          "name": "_tierEightUsersValue",
          "type": "uint256"
        },
        {
          "internalType": "uint256",
          "name": "_tierNineUsersValue",
          "type": "uint256"
        }
      ],
      "name": "updateTierUsersValue",
      "outputs": [],
      "stateMutability": "nonpayable",
      "type": "function"
    },
    {
      "inputs": [
        {
          "internalType": "uint256",
          "name": "_tierOneValue",
          "type": "uint256"
        },
        {
          "internalType": "uint256",
          "name": "_tierTwoValue",
          "type": "uint256"
        },
        {
          "internalType": "uint256",
          "name": "_tierThreeValue",
          "type": "uint256"
        },
        {
          "internalType": "uint256",
          "name": "_tierFourValue",
          "type": "uint256"
        },
        {
          "internalType": "uint256",
          "name": "_tierFiveValue",
          "type": "uint256"
        },
        {
          "internalType": "uint256",
          "name": "_tierSixValue",
          "type": "uint256"
        },
        {
          "internalType": "uint256",
          "name": "_tierSevenValue",
          "type": "uint256"
        },
        {
          "internalType": "uint256",
          "name": "_tierEightValue",
          "type": "uint256"
        },
        {
          "internalType": "uint256",
          "name": "_tierNineValue",
          "type": "uint256"
        }
      ],
      "name": "updateTierValues",
      "outputs": [],
      "stateMutability": "nonpayable",
      "type": "function"
    },
    {
      "stateMutability": "payable",
      "type": "receive"
    }
  ],
  "bytecode": {
    "object": "0x60e06040523480156200001157600080fd5b5060405162003286380380620032868339810160408190526200003491620001fa565b6200003f33620001aa565b608089905260a088905260c0879052600c80546001600160a01b0319166001600160a01b038816179055600d859055600e849055600f839055601082905566038d7ea4c6800060288190556029819055602a819055602b819055602c819055602d819055602e819055602f81905560305561029d60168190556101ee601755600160188190556019819055601a819055601b819055601c819055601d819055601e55620000ed90866200027e565b601f55601754600e546200010291906200027e565b602055601854600f546200011791906200027e565b6021556019546010546200012c91906200027e565b602255601a546011546200014191906200027e565b602355601b546012546200015691906200027e565b602455601c546013546200016b91906200027e565b602555601d546014546200018091906200027e565b602655601e546015546200019591906200027e565b602755600b5550620002a19650505050505050565b600080546001600160a01b038381166001600160a01b0319831681178455604051919092169283917f8be0079c531659141344cd1fd0a4f28419497f9722a3daafe3b4186f6b6457e09190a35050565b60008060008060008060008060006101208a8c0312156200021a57600080fd5b895160208b015160408c015160608d0151929b5090995097506001600160a01b03811681146200024957600080fd5b8096505060808a0151945060a08a0151935060c08a0151925060e08a015191506101008a015190509295985092959850929598565b6000826200029c57634e487b7160e01b600052601260045260246000fd5b500490565b60805160a05160c051612fa0620002e6600039600081816105820152611eca01526000818161050d01526116620152600081816105e701526117460152612fa06000f3fe6080604052600436106105065760003560e01c8063864a92fa11610297578063b8307a3f11610165578063ed338ff1116100cc578063f812795811610085578063f812795814611f64578063fd23485614611f84578063fd86997114611fa4578063fde2da1314611fba578063fe36f6c914611fe7578063ff3e7c721461201457600080fd5b8063ed338ff114611eb8578063f1e81e0714611eec578063f1e9989d14611f02578063f2fde38b14611f18578063f482bcee14611f38578063f6bb87f514611f4e57600080fd5b8063d529a5651161011e578063d529a56514611e1d578063db0bc68314611e33578063dfcf605f14611e49578063e0daa8ba14611e5f578063e7f7814e14611e75578063e8891b7d14611ea257600080fd5b8063b8307a3f14611d85578063b9ec0dde14611d9b578063bd57a11e14611dbb578063becbb04b14611dd1578063c31d36f514611de7578063c7ac1d4414611dfd57600080fd5b8063a10ac30111610209578063a8b40d8d116101c2578063a8b40d8d14611ce3578063adfed46f14611cf9578063ae4fdad914611d19578063b2c85e1114611d39578063b45ccf0b14611d4f578063b6c8a99c14611d6557600080fd5b8063a10ac30114611c1b578063a315b40414611c31578063a340f0b314611c51578063a390c97f14611c67578063a3f4df7e14611c7d578063a4475ce414611cc357600080fd5b806397ede6231161025b57806397ede62314611b695780639ae05f3814611b7f5780639b2e5d8b14611b955780639d9db77d14611bab5780639eb1143914611bc1578063a0ce460b14611bee57600080fd5b8063864a92fa14611ad55780638a9983d814611aeb5780638da5cb5b14611b015780638fb4874114611b335780639025764414611b5357600080fd5b806340d09496116103d4578063602072fa1161034657806374c6bd0d116102ff57806374c6bd0d14611a3057806376d8711f14611a465780637b3e8b7c14611a735780637eee205714611a89578063823276c314611a9f578063842a827114611ab557600080fd5b8063602072fa1461195e57806362ace63f1461198b5780636cd52c64146119ab5780636f507e0d146119c1578063715018a6146119ee57806371b9510d14611a0357600080fd5b80634d9b4b4f116103985780634d9b4b4f146118d05780634dce5168146118e65780634e6ac05914611906578063523d6b261461191c5780635a81a53c146119325780635e18c3301461194857600080fd5b806340d094961461185857806342ec27591461186e578063434800fc1461188e5780634c0d8e8d146118a45780634c510db7146118ba57600080fd5b80631eaf783411610478578063288a4dee11610431578063288a4dee1461177e57806329d6cd871461179e5780632ad16bee146117cb5780632f84901c146117f85780633c6bb474146118185780633ff2bbc61461183857600080fd5b80631eaf7834146116a45780631fc0d469146116d15780632146d7ff146116e757806322b153341461171457806323548b8b14611734578063244c4f101461176857600080fd5b80630e919761116104ca5780630e919761146115e15780630f738fd5146115f75780631a0e66bf146116245780631a8b43e41461163a5780631cbaee2d146116505780631e2b2a501461168457600080fd5b80630109988514611501578063015e2a131461152a578063026928351461155757806303673ff7146115875780630e3a02e2146115b457600080fd5b366114fc577f00000000000000000000000000000000000000000000000000000000000000004210156105805760405162461bcd60e51b815260206004820152601c60248201527f5468652073616c65206973206e6f74207374617274656420796574200000000060448201526064015b60405180910390fd5b7f00000000000000000000000000000000000000000000000000000000000000004211156105e55760405162461bcd60e51b8152602060048201526012602482015271151a19481cd85b19481a5cc818db1bdcd95960721b6044820152606401610577565b7f0000000000000000000000000000000000000000000000000000000000000000346001546106149190612d4e565b11156106615760405162461bcd60e51b81526020600482015260286024820152600080516020612f4b8339815191526044820152670206d6178206361760c41b6064820152608401610577565b61066a33612041565b1561081957336000908152604360205260408120805434929061068e908490612d4e565b90915550506028543360009081526043602052604090205410156106c45760405162461bcd60e51b815260040161057790612d67565b600d54346002546106d59190612d4e565b111561072b5760405162461bcd60e51b81526020600482015260316024820152600080516020612f4b83398151915260448201527002054696572206f6e65206d61782063617607c1b6064820152608401610577565b601f54336000908152603a6020526040902054610749903490612d4e565b11156107ab5760405162461bcd60e51b81526020600482015260386024820152600080516020612f2b83398151915260448201527f207468616e20796f757220746965722d31206c696d69742100000000000000006064820152608401610577565b336000908152603a6020526040812080543492906107ca908490612d4e565b9250508190555034600160008282546107e39190612d4e565b9250508190555034600260008282546107fc9190612d4e565b9091555050600c54610817906001600160a01b0316476120b0565b005b610822336121ce565b156109b6573360009081526044602052604081208054349290610846908490612d4e565b909155505060295433600090815260446020526040902054101561087c5760405162461bcd60e51b815260040161057790612d67565b600e543460035461088d9190612d4e565b11156108e35760405162461bcd60e51b81526020600482015260316024820152600080516020612f4b833981519152604482015270020546965722074776f206d61782063617607c1b6064820152608401610577565b60208054336000908152603b909252604090912054610903903490612d4e565b11156109655760405162461bcd60e51b81526020600482015260386024820152600080516020612f2b83398151915260448201527f207468616e20796f757220746965722d32206c696d69742100000000000000006064820152608401610577565b336000908152603b602052604081208054349290610984908490612d4e565b92505081905550346001600082825461099d9190612d4e565b9250508190555034600360008282546107fc9190612d4e565b6109bf33612233565b15610b535733600090815260456020526040812080543492906109e3908490612d4e565b9091555050602a54336000908152604560205260409020541015610a195760405162461bcd60e51b815260040161057790612d67565b602154336000908152603c6020526040902054610a37903490612d4e565b1115610a995760405162461bcd60e51b81526020600482015260386024820152600080516020612f2b83398151915260448201527f207468616e20796f757220746965722d33206c696d69742100000000000000006064820152608401610577565b600f5434600454610aaa9190612d4e565b1115610b025760405162461bcd60e51b81526020600482015260336024820152600080516020612f4b83398151915260448201527202054696572207468726565206d61782063617606c1b6064820152608401610577565b336000908152603c602052604081208054349290610b21908490612d4e565b925050819055503460016000828254610b3a9190612d4e565b9250508190555034600460008282546107fc9190612d4e565b610b5c33612298565b15610cef573360009081526046602052604081208054349290610b80908490612d4e565b9091555050602b54336000908152604660205260409020541015610bb65760405162461bcd60e51b815260040161057790612d67565b60105434600554610bc79190612d4e565b1115610c1e5760405162461bcd60e51b81526020600482015260326024820152600080516020612f4b8339815191526044820152710205469657220466f7572206d6178206361760741b6064820152608401610577565b602254336000908152603d6020526040902054610c3c903490612d4e565b1115610c9e5760405162461bcd60e51b81526020600482015260386024820152600080516020612f2b83398151915260448201527f207468616e20796f757220746965722d34206c696d69742100000000000000006064820152608401610577565b336000908152603d602052604081208054349290610cbd908490612d4e565b925050819055503460016000828254610cd69190612d4e565b9250508190555034600560008282546107fc9190612d4e565b610cf8336122fd565b15610e8b573360009081526047602052604081208054349290610d1c908490612d4e565b9091555050602c54336000908152604760205260409020541015610d525760405162461bcd60e51b815260040161057790612d67565b60115434600654610d639190612d4e565b1115610dba5760405162461bcd60e51b81526020600482015260326024820152600080516020612f4b833981519152604482015271020546965722046697665206d6178206361760741b6064820152608401610577565b602354336000908152603e6020526040902054610dd8903490612d4e565b1115610e3a5760405162461bcd60e51b81526020600482015260386024820152600080516020612f2b83398151915260448201527f207468616e20796f757220746965722d35206c696d69742100000000000000006064820152608401610577565b336000908152603e602052604081208054349290610e59908490612d4e565b925050819055503460016000828254610e729190612d4e565b9250508190555034600660008282546107fc9190612d4e565b610e9433612362565b15611026573360009081526048602052604081208054349290610eb8908490612d4e565b9091555050602d54336000908152604860205260409020541015610eee5760405162461bcd60e51b815260040161057790612d67565b60125434600754610eff9190612d4e565b1115610f555760405162461bcd60e51b81526020600482015260316024820152600080516020612f4b8339815191526044820152700205469657220536978206d61782063617607c1b6064820152608401610577565b602454336000908152603f6020526040902054610f73903490612d4e565b1115610fd55760405162461bcd60e51b81526020600482015260386024820152600080516020612f2b83398151915260448201527f207468616e20796f757220746965722d36206c696d69742100000000000000006064820152608401610577565b336000908152603f602052604081208054349290610ff4908490612d4e565b92505081905550346001600082825461100d9190612d4e565b9250508190555034600760008282546107fc9190612d4e565b61102f336123c7565b156111c3573360009081526049602052604081208054349290611053908490612d4e565b9091555050602e543360009081526049602052604090205410156110895760405162461bcd60e51b815260040161057790612d67565b6013543460085461109a9190612d4e565b11156110f25760405162461bcd60e51b81526020600482015260336024820152600080516020612f4b8339815191526044820152720205469657220536576656e206d61782063617606c1b6064820152608401610577565b60255433600090815260406020819052902054611110903490612d4e565b11156111725760405162461bcd60e51b81526020600482015260386024820152600080516020612f2b83398151915260448201527f207468616e20796f757220746965722d37206c696d69742100000000000000006064820152608401610577565b3360009081526040602081905281208054349290611191908490612d4e565b9250508190555034600160008282546111aa9190612d4e565b9250508190555034600860008282546107fc9190612d4e565b6111cc3361242c565b1561136057336000908152604a6020526040812080543492906111f0908490612d4e565b9091555050602f54336000908152604a602052604090205410156112265760405162461bcd60e51b815260040161057790612d67565b601454346009546112379190612d4e565b111561128f5760405162461bcd60e51b81526020600482015260336024820152600080516020612f4b83398151915260448201527202054696572204569676874206d61782063617606c1b6064820152608401610577565b602654336000908152604160205260409020546112ad903490612d4e565b111561130f5760405162461bcd60e51b81526020600482015260386024820152600080516020612f2b83398151915260448201527f207468616e20796f757220746965722d38206c696d69742100000000000000006064820152608401610577565b336000908152604160205260408120805434929061132e908490612d4e565b9250508190555034600160008282546113479190612d4e565b9250508190555034600960008282546107fc9190612d4e565b61136933612491565b156114fc57336000908152604b60205260408120805434929061138d908490612d4e565b9091555050603054336000908152604b602052604090205410156113c35760405162461bcd60e51b815260040161057790612d67565b60155434600a546113d49190612d4e565b111561142b5760405162461bcd60e51b81526020600482015260326024820152600080516020612f4b83398151915260448201527102054696572204e696e65206d6178206361760741b6064820152608401610577565b60275433600090815260426020526040902054611449903490612d4e565b11156114ab5760405162461bcd60e51b81526020600482015260386024820152600080516020612f2b83398151915260448201527f207468616e20796f757220746965722d39206c696d69742100000000000000006064820152608401610577565b33600090815260426020526040812080543492906114ca908490612d4e565b9250508190555034600160008282546114e39190612d4e565b9250508190555034600a60008282546107fc9190612d4e565b600080fd5b34801561150d57600080fd5b50611517600b5481565b6040519081526020015b60405180910390f35b34801561153657600080fd5b50611517611545366004612d9e565b603f6020526000908152604090205481565b34801561156357600080fd5b50611577611572366004612d9e565b61242c565b6040519015158152602001611521565b34801561159357600080fd5b506115176115a2366004612d9e565b60486020526000908152604090205481565b3480156115c057600080fd5b506115176115cf366004612d9e565b60436020526000908152604090205481565b3480156115ed57600080fd5b5061151760265481565b34801561160357600080fd5b50611517611612366004612d9e565b604a6020526000908152604090205481565b34801561163057600080fd5b5061151760255481565b34801561164657600080fd5b50611517602a5481565b34801561165c57600080fd5b506115177f000000000000000000000000000000000000000000000000000000000000000081565b34801561169057600080fd5b5061081761169f366004612dce565b6124f6565b3480156116b057600080fd5b506115176116bf366004612d9e565b60416020526000908152604090205481565b3480156116dd57600080fd5b5061151760145481565b3480156116f357600080fd5b50611517611702366004612d9e565b60446020526000908152604090205481565b34801561172057600080fd5b5061157761172f366004612d9e565b612233565b34801561174057600080fd5b506115177f000000000000000000000000000000000000000000000000000000000000000081565b34801561177457600080fd5b50611517600e5481565b34801561178a57600080fd5b50611577611799366004612d9e565b6123c7565b3480156117aa57600080fd5b506115176117b9366004612d9e565b604b6020526000908152604090205481565b3480156117d757600080fd5b506115176117e6366004612d9e565b60426020526000908152604090205481565b34801561180457600080fd5b50610817611813366004612d9e565b612600565b34801561182457600080fd5b50610817611833366004612d9e565b6126a2565b34801561184457600080fd5b50610817611853366004612d9e565b612744565b34801561186457600080fd5b50611517602c5481565b34801561187a57600080fd5b50610817611889366004612dce565b6127e6565b34801561189a57600080fd5b5061151760295481565b3480156118b057600080fd5b5061151760025481565b3480156118c657600080fd5b50611517601a5481565b3480156118dc57600080fd5b5061151760225481565b3480156118f257600080fd5b50611577611901366004612d9e565b612041565b34801561191257600080fd5b5061151760285481565b34801561192857600080fd5b5061151760235481565b34801561193e57600080fd5b5061151760035481565b34801561195457600080fd5b5061151760195481565b34801561196a57600080fd5b50611517611979366004612d9e565b60466020526000908152604090205481565b34801561199757600080fd5b506108176119a6366004612d9e565b61284b565b3480156119b757600080fd5b5061151760275481565b3480156119cd57600080fd5b506115176119dc366004612d9e565b603e6020526000908152604090205481565b3480156119fa57600080fd5b506108176128ed565b348015611a0f57600080fd5b50611517611a1e366004612d9e565b603b6020526000908152604090205481565b348015611a3c57600080fd5b5061151760185481565b348015611a5257600080fd5b50611517611a61366004612d9e565b60456020526000908152604090205481565b348015611a7f57600080fd5b5061151760095481565b348015611a9557600080fd5b50611517601c5481565b348015611aab57600080fd5b50611517600d5481565b348015611ac157600080fd5b50610817611ad0366004612d9e565b612923565b348015611ae157600080fd5b5061151760085481565b348015611af757600080fd5b5061151760245481565b348015611b0d57600080fd5b506000546001600160a01b03165b6040516001600160a01b039091168152602001611521565b348015611b3f57600080fd5b50610817611b4e366004612d9e565b6129c5565b348015611b5f57600080fd5b50611517601f5481565b348015611b7557600080fd5b5061151760135481565b348015611b8b57600080fd5b50611517602e5481565b348015611ba157600080fd5b50611517602f5481565b348015611bb757600080fd5b5061151760105481565b348015611bcd57600080fd5b50611517611bdc366004612d9e565b60496020526000908152604090205481565b348015611bfa57600080fd5b50611517611c09366004612d9e565b603c6020526000908152604090205481565b348015611c2757600080fd5b5061151760075481565b348015611c3d57600080fd5b50610817611c4c366004612d9e565b612a67565b348015611c5d57600080fd5b50611517601b5481565b348015611c7357600080fd5b50611517600f5481565b348015611c8957600080fd5b50611cb66040518060400160405280600d81526020016c536565646966792e66756e647360981b81525081565b6040516115219190612e2d565b348015611ccf57600080fd5b50600c54611b1b906001600160a01b031681565b348015611cef57600080fd5b5061151760045481565b348015611d0557600080fd5b50611577611d14366004612d9e565b612362565b348015611d2557600080fd5b50610817611d34366004612d9e565b612b09565b348015611d4557600080fd5b50611517601e5481565b348015611d5b57600080fd5b5061151760115481565b348015611d7157600080fd5b50610817611d80366004612d9e565b612bab565b348015611d9157600080fd5b5061151760015481565b348015611da757600080fd5b50611577611db6366004612d9e565b6121ce565b348015611dc757600080fd5b5061151760055481565b348015611ddd57600080fd5b5061151760215481565b348015611df357600080fd5b5061151760125481565b348015611e0957600080fd5b50611577611e18366004612d9e565b6122fd565b348015611e2957600080fd5b50611517602b5481565b348015611e3f57600080fd5b5061151760305481565b348015611e5557600080fd5b50611517602d5481565b348015611e6b57600080fd5b5061151760165481565b348015611e8157600080fd5b50611517611e90366004612d9e565b603d6020526000908152604090205481565b348015611eae57600080fd5b5061151760205481565b348015611ec457600080fd5b506115177f000000000000000000000000000000000000000000000000000000000000000081565b348015611ef857600080fd5b5061151760175481565b348015611f0e57600080fd5b50611517600a5481565b348015611f2457600080fd5b50610817611f33366004612d9e565b612c4d565b348015611f4457600080fd5b5061151760065481565b348015611f5a57600080fd5b50611517601d5481565b348015611f7057600080fd5b50611577611f7f366004612d9e565b612298565b348015611f9057600080fd5b50611577611f9f366004612d9e565b612491565b348015611fb057600080fd5b5061151760155481565b348015611fc657600080fd5b50611517611fd5366004612d9e565b60476020526000908152604090205481565b348015611ff357600080fd5b50611517612002366004612d9e565b603a6020526000908152604090205481565b34801561202057600080fd5b5061151761202f366004612d9e565b60406020819052600091825290205481565b60315460009081905b808210156120a65760006031838154811061206757612067612e7b565b6000918252602090912001546001600160a01b0390811691508516810361209357506001949350505050565b508161209e81612e91565b92505061204a565b5060009392505050565b804710156121005760405162461bcd60e51b815260206004820152601d60248201527f416464726573733a20696e73756666696369656e742062616c616e63650000006044820152606401610577565b6000826001600160a01b03168260405160006040518083038185875af1925050503d806000811461214d576040519150601f19603f3d011682016040523d82523d6000602084013e612152565b606091505b50509050806121c95760405162461bcd60e51b815260206004820152603a60248201527f416464726573733a20756e61626c6520746f2073656e642076616c75652c207260448201527f6563697069656e74206d617920686176652072657665727465640000000000006064820152608401610577565b505050565b60325460009081905b808210156120a6576000603283815481106121f4576121f4612e7b565b6000918252602090912001546001600160a01b0390811691508516810361222057506001949350505050565b508161222b81612e91565b9250506121d7565b60335460009081905b808210156120a65760006033838154811061225957612259612e7b565b6000918252602090912001546001600160a01b0390811691508516810361228557506001949350505050565b508161229081612e91565b92505061223c565b60345460009081905b808210156120a6576000603483815481106122be576122be612e7b565b6000918252602090912001546001600160a01b039081169150851681036122ea57506001949350505050565b50816122f581612e91565b9250506122a1565b60355460009081905b808210156120a65760006035838154811061232357612323612e7b565b6000918252602090912001546001600160a01b0390811691508516810361234f57506001949350505050565b508161235a81612e91565b925050612306565b60365460009081905b808210156120a65760006036838154811061238857612388612e7b565b6000918252602090912001546001600160a01b039081169150851681036123b457506001949350505050565b50816123bf81612e91565b92505061236b565b60375460009081905b808210156120a6576000603783815481106123ed576123ed612e7b565b6000918252602090912001546001600160a01b0390811691508516810361241957506001949350505050565b508161242481612e91565b9250506123d0565b60385460009081905b808210156120a65760006038838154811061245257612452612e7b565b6000918252602090912001546001600160a01b0390811691508516810361247e57506001949350505050565b508161248981612e91565b925050612435565b60395460009081905b808210156120a6576000603983815481106124b7576124b7612e7b565b6000918252602090912001546001600160a01b039081169150851681036124e357506001949350505050565b50816124ee81612e91565b92505061249a565b6000546001600160a01b031633146125205760405162461bcd60e51b815260040161057790612eaa565b600d899055600e889055600f87905560108690556011859055601284905560138390556014829055601581905560165461255a908a612edf565b601f55601754600e5461256d9190612edf565b602055601854600f546125809190612edf565b6021556019546010546125939190612edf565b602255601a546011546125a69190612edf565b602355601b546012546125b99190612edf565b602455601c546013546125cc9190612edf565b602555601d546014546125df9190612edf565b602655601e546015546125f29190612edf565b602755505050505050505050565b6000546001600160a01b0316331461262a5760405162461bcd60e51b815260040161057790612eaa565b6001600160a01b0381166126505760405162461bcd60e51b815260040161057790612f01565b603980546001810182556000919091527fdc16fef70f8d5ddbc01ee3d903d1e69c18a3c7be080eb86a81e0578814ee58d30180546001600160a01b0319166001600160a01b0392909216919091179055565b6000546001600160a01b031633146126cc5760405162461bcd60e51b815260040161057790612eaa565b6001600160a01b0381166126f25760405162461bcd60e51b815260040161057790612f01565b603380546001810182556000919091527f82a75bdeeae8604d839476ae9efd8b0e15aa447e21bfd7f41283bb54e22c9a820180546001600160a01b0319166001600160a01b0392909216919091179055565b6000546001600160a01b0316331461276e5760405162461bcd60e51b815260040161057790612eaa565b6001600160a01b0381166127945760405162461bcd60e51b815260040161057790612f01565b603480546001810182556000919091527f46bddb1178e94d7f2892ff5f366840eb658911794f2c3a44c450aa2c505186c10180546001600160a01b0319166001600160a01b0392909216919091179055565b6000546001600160a01b031633146128105760405162461bcd60e51b815260040161057790612eaa565b6016899055601788905560188790556019869055601a859055601b849055601c839055601d829055601e819055600d5461255a908a90612edf565b6000546001600160a01b031633146128755760405162461bcd60e51b815260040161057790612eaa565b6001600160a01b03811661289b5760405162461bcd60e51b815260040161057790612f01565b603180546001810182556000919091527fc54045fa7c6ec765e825df7f9e9bf9dec12c5cef146f93a5eee56772ee647fbc0180546001600160a01b0319166001600160a01b0392909216919091179055565b6000546001600160a01b031633146129175760405162461bcd60e51b815260040161057790612eaa565b6129216000612ce8565b565b6000546001600160a01b0316331461294d5760405162461bcd60e51b815260040161057790612eaa565b6001600160a01b0381166129735760405162461bcd60e51b815260040161057790612f01565b603680546001810182556000919091527f4a11f94e20a93c79f6ec743a1954ec4fc2c08429ae2122118bf234b2185c81b80180546001600160a01b0319166001600160a01b0392909216919091179055565b6000546001600160a01b031633146129ef5760405162461bcd60e51b815260040161057790612eaa565b6001600160a01b038116612a155760405162461bcd60e51b815260040161057790612f01565b603580546001810182556000919091527fcfa4bec1d3298408bb5afcfcd9c430549c5b31f8aa5c5848151c0a55f473c34d0180546001600160a01b0319166001600160a01b0392909216919091179055565b6000546001600160a01b03163314612a915760405162461bcd60e51b815260040161057790612eaa565b6001600160a01b038116612ab75760405162461bcd60e51b815260040161057790612f01565b603880546001810182556000919091527f38395c5dceade9603479b177b68959049485df8aa97b39f3533039af5f4561990180546001600160a01b0319166001600160a01b0392909216919091179055565b6000546001600160a01b03163314612b335760405162461bcd60e51b815260040161057790612eaa565b6001600160a01b038116612b595760405162461bcd60e51b815260040161057790612f01565b603280546001810182556000919091527f11df491316f14931039edfd4f8964c9a443b862f02d4c7611d18c2bc4e6ff6970180546001600160a01b0319166001600160a01b0392909216919091179055565b6000546001600160a01b03163314612bd55760405162461bcd60e51b815260040161057790612eaa565b6001600160a01b038116612bfb5760405162461bcd60e51b815260040161057790612f01565b603780546001810182556000919091527f42a7b7dd785cd69714a189dffb3fd7d7174edc9ece837694ce50f7078f7c31ae0180546001600160a01b0319166001600160a01b0392909216919091179055565b6000546001600160a01b03163314612c775760405162461bcd60e51b815260040161057790612eaa565b6001600160a01b038116612cdc5760405162461bcd60e51b815260206004820152602660248201527f4f776e61626c653a206e6577206f776e657220697320746865207a65726f206160448201526564647265737360d01b6064820152608401610577565b612ce581612ce8565b50565b600080546001600160a01b038381166001600160a01b0319831681178455604051919092169283917f8be0079c531659141344cd1fd0a4f28419497f9722a3daafe3b4186f6b6457e09190a35050565b634e487b7160e01b600052601160045260246000fd5b80820180821115612d6157612d61612d38565b92915050565b6020808252601f908201527f796f75722070757263686173696e6720506f77657220697320736f204c6f7700604082015260600190565b600060208284031215612db057600080fd5b81356001600160a01b0381168114612dc757600080fd5b9392505050565b60008060008060008060008060006101208a8c031215612ded57600080fd5b505087359960208901359950604089013598606081013598506080810135975060a0810135965060c0810135955060e08101359450610100013592509050565b600060208083528351808285015260005b81811015612e5a57858101830151858201604001528201612e3e565b506000604082860101526040601f19601f8301168501019250505092915050565b634e487b7160e01b600052603260045260246000fd5b600060018201612ea357612ea3612d38565b5060010190565b6020808252818101527f4f776e61626c653a2063616c6c6572206973206e6f7420746865206f776e6572604082015260600190565b600082612efc57634e487b7160e01b600052601260045260246000fd5b500490565b6020808252600f908201526e496e76616c6964206164647265737360881b60408201526060019056fe627579546f6b656e733a596f752061726520696e76657374696e67206d6f7265627579546f6b656e733a20707572636861736520776f756c6420657863656564a2646970667358221220ef75d00d2be0ed89a90e96fced38348178a18554e9ba5052fe5399ba7d02941464736f6c63430008140033",
    "linkReferences": {}
  },
  "methodIdentifiers": {
    "NAME()": "a3f4df7e",
    "addWhitelistEight(address)": "a315b404",
    "addWhitelistFive(address)": "8fb48741",
    "addWhitelistFour(address)": "3ff2bbc6",
    "addWhitelistNine(address)": "2f84901c",
    "addWhitelistOne(address)": "62ace63f",
    "addWhitelistSeven(address)": "b6c8a99c",
    "addWhitelistSix(address)": "842a8271",
    "addWhitelistThree(address)": "3c6bb474",
    "addWhitelistTwo(address)": "ae4fdad9",
    "buyInEightTier(address)": "1eaf7834",
    "buyInFiveTier(address)": "6f507e0d",
    "buyInFourTier(address)": "e7f7814e",
    "buyInNineTier(address)": "2ad16bee",
    "buyInOneTier(address)": "fe36f6c9",
    "buyInSevenTier(address)": "ff3e7c72",
    "buyInSixTier(address)": "015e2a13",
    "buyInThreeTier(address)": "a0ce460b",
    "buyInTwoTier(address)": "71b9510d",
    "getWhitelistEight(address)": "02692835",
    "getWhitelistFive(address)": "c7ac1d44",
    "getWhitelistFour(address)": "f8127958",
    "getWhitelistNine(address)": "fd234856",
    "getWhitelistOne(address)": "4dce5168",
    "getWhitelistSeven(address)": "288a4dee",
    "getWhitelistSix(address)": "adfed46f",
    "getWhitelistThree(address)": "22b15334",
    "getWhitelistTwo(address)": "b9ec0dde",
    "maxAllocaPerUserTierEight()": "0e919761",
    "maxAllocaPerUserTierFive()": "523d6b26",
    "maxAllocaPerUserTierFour()": "4d9b4b4f",
    "maxAllocaPerUserTierNine()": "6cd52c64",
    "maxAllocaPerUserTierOne()": "90257644",
    "maxAllocaPerUserTierSeven()": "1a0e66bf",
    "maxAllocaPerUserTierSix()": "8a9983d8",
    "maxAllocaPerUserTierThree()": "becbb04b",
    "maxAllocaPerUserTierTwo()": "e8891b7d",
    "maxCap()": "23548b8b",
    "minAllocaPerUserTierEight()": "9b2e5d8b",
    "minAllocaPerUserTierFive()": "40d09496",
    "minAllocaPerUserTierFour()": "d529a565",
    "minAllocaPerUserTierNine()": "db0bc683",
    "minAllocaPerUserTierOne()": "4e6ac059",
    "minAllocaPerUserTierSeven()": "9ae05f38",
    "minAllocaPerUserTierSix()": "dfcf605f",
    "minAllocaPerUserTierThree()": "1a8b43e4",
    "minAllocaPerUserTierTwo()": "434800fc",
    "minBuyInEightTier(address)": "0f738fd5",
    "minBuyInFiveTier(address)": "fde2da13",
    "minBuyInFourTier(address)": "602072fa",
    "minBuyInNineTier(address)": "29d6cd87",
    "minBuyInOneTier(address)": "0e3a02e2",
    "minBuyInSevenTier(address)": "9eb11439",
    "minBuyInSixTier(address)": "03673ff7",
    "minBuyInThreeTier(address)": "76d8711f",
    "minBuyInTwoTier(address)": "2146d7ff",
    "owner()": "8da5cb5b",
    "projectOwner()": "a4475ce4",
    "renounceOwnership()": "715018a6",
    "saleEndTime()": "ed338ff1",
    "saleStartTime()": "1cbaee2d",
    "tierEightMaxCap()": "1fc0d469",
    "tierFiveMaxCap()": "b45ccf0b",
    "tierFourMaxCap()": "9d9db77d",
    "tierNineMaxCap()": "fd869971",
    "tierOneMaxCap()": "823276c3",
    "tierSevenMaxCap()": "97ede623",
    "tierSixMaxCap()": "c31d36f5",
    "tierThreeMaxCap()": "a390c97f",
    "tierTwoMaxCap()": "244c4f10",
    "totalBnbInTierEight()": "7b3e8b7c",
    "totalBnbInTierFive()": "f482bcee",
    "totalBnbInTierFour()": "bd57a11e",
    "totalBnbInTierNine()": "f1e9989d",
    "totalBnbInTierOne()": "4c0d8e8d",
    "totalBnbInTierSeven()": "864a92fa",
    "totalBnbInTierSix()": "a10ac301",
    "totalBnbInTierThree()": "a8b40d8d",
    "totalBnbInTierTwo()": "5a81a53c",
    "totalBnbReceivedInAllTier()": "b8307a3f",
    "totalUserInTierEight()": "f6bb87f5",
    "totalUserInTierFive()": "4c510db7",
    "totalUserInTierFour()": "5e18c330",
    "totalUserInTierNine()": "b2c85e11",
    "totalUserInTierOne()": "e0daa8ba",
    "totalUserInTierSeven()": "7eee2057",
    "totalUserInTierSix()": "a340f0b3",
    "totalUserInTierThree()": "74c6bd0d",
    "totalUserInTierTwo()": "f1e81e07",
    "totalparticipants()": "01099885",
    "transferOwnership(address)": "f2fde38b",
    "updateTierUsersValue(uint256,uint256,uint256,uint256,uint256,uint256,uint256,uint256,uint256)": "42ec2759",
    "updateTierValues(uint256,uint256,uint256,uint256,uint256,uint256,uint256,uint256,uint256)": "1e2b2a50"
  },
  "id": 7
}